{
  "contractName": "Eth2ChainRelay_512",
  "abi": [
    {
      "inputs": [
        {
          "internalType": "uint64",
          "name": "_signatureThreshold",
          "type": "uint64"
        },
        {
          "internalType": "uint64",
          "name": "_trustingPeriod",
          "type": "uint64"
        },
        {
          "internalType": "bytes32",
          "name": "_finalizedBlockRoot",
          "type": "bytes32"
        },
        {
          "internalType": "bytes32",
          "name": "_finalizedStateRoot",
          "type": "bytes32"
        },
        {
          "internalType": "uint64",
          "name": "_finalizedSlot",
          "type": "uint64"
        },
        {
          "internalType": "uint64",
          "name": "_latestSlot",
          "type": "uint64"
        },
        {
          "internalType": "uint64",
          "name": "_latestSlotWithValidatorSetChange",
          "type": "uint64"
        }
      ],
      "stateMutability": "nonpayable",
      "type": "constructor"
    },
    {
      "inputs": [
        {
          "internalType": "bytes[512]",
          "name": "_currentValidatorSet",
          "type": "bytes[512]"
        },
        {
          "internalType": "bytes",
          "name": "_currentValidatorSetAggregate",
          "type": "bytes"
        }
      ],
      "name": "initializeCurrent",
      "outputs": [],
      "stateMutability": "nonpayable",
      "type": "function"
    },
    {
      "inputs": [
        {
          "internalType": "bytes[512]",
          "name": "_nextValidatorSet",
          "type": "bytes[512]"
        },
        {
          "internalType": "bytes",
          "name": "_nextValidatorSetAggregate",
          "type": "bytes"
        }
      ],
      "name": "initializeNext",
      "outputs": [],
      "stateMutability": "nonpayable",
      "type": "function"
    },
    {
      "inputs": [],
      "name": "getLatestSlotWithValidatorSetChange",
      "outputs": [
        {
          "internalType": "uint64",
          "name": "",
          "type": "uint64"
        }
      ],
      "stateMutability": "view",
      "type": "function",
      "constant": true
    },
    {
      "inputs": [],
      "name": "getFinalizedBlockRoot",
      "outputs": [
        {
          "internalType": "bytes32",
          "name": "",
          "type": "bytes32"
        }
      ],
      "stateMutability": "view",
      "type": "function",
      "constant": true
    },
    {
      "inputs": [],
      "name": "getFinalizedStateRoot",
      "outputs": [
        {
          "internalType": "bytes32",
          "name": "",
          "type": "bytes32"
        }
      ],
      "stateMutability": "view",
      "type": "function",
      "constant": true
    },
    {
      "inputs": [
        {
          "components": [
            {
              "internalType": "bytes",
              "name": "signature",
              "type": "bytes"
            },
            {
              "internalType": "bool[512]",
              "name": "participants",
              "type": "bool[512]"
            },
            {
              "internalType": "bytes32",
              "name": "latestBlockRoot",
              "type": "bytes32"
            },
            {
              "internalType": "bytes32",
              "name": "signingDomain",
              "type": "bytes32"
            },
            {
              "internalType": "uint64",
              "name": "latestSlot",
              "type": "uint64"
            },
            {
              "internalType": "bytes32[]",
              "name": "latestSlotBranch",
              "type": "bytes32[]"
            },
            {
              "internalType": "bytes32",
              "name": "finalizedBlockRoot",
              "type": "bytes32"
            },
            {
              "internalType": "bytes32[]",
              "name": "finalizingBranch",
              "type": "bytes32[]"
            },
            {
              "internalType": "uint64",
              "name": "finalizedSlot",
              "type": "uint64"
            },
            {
              "internalType": "bytes32[]",
              "name": "finalizedSlotBranch",
              "type": "bytes32[]"
            },
            {
              "internalType": "bytes32",
              "name": "finalizedStateRoot",
              "type": "bytes32"
            },
            {
              "internalType": "bytes32[]",
              "name": "finalizedStateRootBranch",
              "type": "bytes32[]"
            },
            {
              "internalType": "bytes32",
              "name": "stateRoot",
              "type": "bytes32"
            },
            {
              "internalType": "bytes32[]",
              "name": "stateRootBranch",
              "type": "bytes32[]"
            }
          ],
          "internalType": "struct ChainRelayUpdate",
          "name": "_chainRelayUpdate",
          "type": "tuple"
        },
        {
          "components": [
            {
              "internalType": "bytes[512]",
              "name": "nextNextValidatorSet",
              "type": "bytes[512]"
            },
            {
              "internalType": "bytes",
              "name": "nextNextValidatorSetAggregate",
              "type": "bytes"
            },
            {
              "internalType": "bytes32[]",
              "name": "nextNextValidatorSetBranch",
              "type": "bytes32[]"
            }
          ],
          "internalType": "struct SyncCommitteeUpdate",
          "name": "_syncCommitteeUpdate",
          "type": "tuple"
        }
      ],
      "name": "submitUpdate",
      "outputs": [
        {
          "internalType": "bool",
          "name": "",
          "type": "bool"
        }
      ],
      "stateMutability": "nonpayable",
      "type": "function"
    },
    {
      "inputs": [
        {
          "internalType": "bytes[512]",
          "name": "_pubkeys",
          "type": "bytes[512]"
        },
        {
          "internalType": "bool[512]",
          "name": "_isActive",
          "type": "bool[512]"
        },
        {
          "internalType": "uint256",
          "name": "_numberOfActive",
          "type": "uint256"
        }
      ],
      "name": "getActiveValidators",
      "outputs": [
        {
          "internalType": "bytes[]",
          "name": "",
          "type": "bytes[]"
        }
      ],
      "stateMutability": "pure",
      "type": "function",
      "constant": true
    },
    {
      "inputs": [
        {
          "internalType": "bool[512]",
          "name": "_bools",
          "type": "bool[512]"
        }
      ],
      "name": "countTrueBools",
      "outputs": [
        {
          "internalType": "uint256",
          "name": "",
          "type": "uint256"
        }
      ],
      "stateMutability": "pure",
      "type": "function",
      "constant": true
    },
    {
      "inputs": [
        {
          "internalType": "bytes32",
          "name": "_message",
          "type": "bytes32"
        },
        {
          "internalType": "bytes",
          "name": "_signature",
          "type": "bytes"
        },
        {
          "internalType": "bytes[]",
          "name": "_pubkeys",
          "type": "bytes[]"
        }
      ],
      "name": "serializeAggregateSignature",
      "outputs": [
        {
          "internalType": "bytes",
          "name": "",
          "type": "bytes"
        }
      ],
      "stateMutability": "pure",
      "type": "function",
      "constant": true
    },
    {
      "inputs": [
        {
          "internalType": "bytes",
          "name": "_input",
          "type": "bytes"
        }
      ],
      "name": "fastAggregateVerify",
      "outputs": [
        {
          "internalType": "bool",
          "name": "o",
          "type": "bool"
        }
      ],
      "stateMutability": "view",
      "type": "function",
      "constant": true
    },
    {
      "inputs": [
        {
          "internalType": "uint256",
          "name": "_slot",
          "type": "uint256"
        }
      ],
      "name": "slotToUnixTimestamp",
      "outputs": [
        {
          "internalType": "uint256",
          "name": "timestamp",
          "type": "uint256"
        }
      ],
      "stateMutability": "pure",
      "type": "function",
      "constant": true
    },
    {
      "inputs": [
        {
          "internalType": "bytes32",
          "name": "_input",
          "type": "bytes32"
        }
      ],
      "name": "bytes32ToBytes",
      "outputs": [
        {
          "internalType": "bytes",
          "name": "output",
          "type": "bytes"
        }
      ],
      "stateMutability": "pure",
      "type": "function",
      "constant": true
    },
    {
      "inputs": [
        {
          "internalType": "bytes2",
          "name": "_input",
          "type": "bytes2"
        }
      ],
      "name": "bytes2ToBytes",
      "outputs": [
        {
          "internalType": "bytes",
          "name": "output",
          "type": "bytes"
        }
      ],
      "stateMutability": "pure",
      "type": "function",
      "constant": true
    },
    {
      "inputs": [
        {
          "internalType": "bytes32",
          "name": "_left",
          "type": "bytes32"
        },
        {
          "internalType": "bytes32",
          "name": "_right",
          "type": "bytes32"
        }
      ],
      "name": "concat",
      "outputs": [
        {
          "internalType": "bytes",
          "name": "",
          "type": "bytes"
        }
      ],
      "stateMutability": "pure",
      "type": "function",
      "constant": true
    },
    {
      "inputs": [
        {
          "internalType": "bytes32",
          "name": "_left",
          "type": "bytes32"
        },
        {
          "internalType": "bytes32",
          "name": "_right",
          "type": "bytes32"
        }
      ],
      "name": "hashTreeRootPair",
      "outputs": [
        {
          "internalType": "bytes32",
          "name": "",
          "type": "bytes32"
        }
      ],
      "stateMutability": "pure",
      "type": "function",
      "constant": true
    },
    {
      "inputs": [
        {
          "internalType": "bytes",
          "name": "_blspubkey",
          "type": "bytes"
        }
      ],
      "name": "hashTreeRootBlspubkey",
      "outputs": [
        {
          "internalType": "bytes32",
          "name": "",
          "type": "bytes32"
        }
      ],
      "stateMutability": "pure",
      "type": "function",
      "constant": true
    },
    {
      "inputs": [
        {
          "internalType": "bytes32",
          "name": "_blockRoot",
          "type": "bytes32"
        },
        {
          "internalType": "bytes32",
          "name": "_signingDomain",
          "type": "bytes32"
        }
      ],
      "name": "computeSigningRoot",
      "outputs": [
        {
          "internalType": "bytes32",
          "name": "",
          "type": "bytes32"
        }
      ],
      "stateMutability": "pure",
      "type": "function",
      "constant": true
    },
    {
      "inputs": [
        {
          "internalType": "bytes",
          "name": "_input",
          "type": "bytes"
        }
      ],
      "name": "bytesToBytes8",
      "outputs": [
        {
          "internalType": "bytes8",
          "name": "result",
          "type": "bytes8"
        }
      ],
      "stateMutability": "pure",
      "type": "function",
      "constant": true
    },
    {
      "inputs": [
        {
          "internalType": "bytes",
          "name": "_input",
          "type": "bytes"
        }
      ],
      "name": "bytesToBytes32",
      "outputs": [
        {
          "internalType": "bytes32",
          "name": "result",
          "type": "bytes32"
        }
      ],
      "stateMutability": "pure",
      "type": "function",
      "constant": true
    },
    {
      "inputs": [
        {
          "internalType": "bytes8",
          "name": "_input",
          "type": "bytes8"
        }
      ],
      "name": "revertBytes8",
      "outputs": [
        {
          "internalType": "bytes8",
          "name": "",
          "type": "bytes8"
        }
      ],
      "stateMutability": "pure",
      "type": "function",
      "constant": true
    },
    {
      "inputs": [
        {
          "internalType": "uint64",
          "name": "_input",
          "type": "uint64"
        }
      ],
      "name": "merklelizeSlot",
      "outputs": [
        {
          "internalType": "bytes32",
          "name": "",
          "type": "bytes32"
        }
      ],
      "stateMutability": "pure",
      "type": "function",
      "constant": true
    },
    {
      "inputs": [
        {
          "internalType": "uint256",
          "name": "_input",
          "type": "uint256"
        }
      ],
      "name": "bitLength",
      "outputs": [
        {
          "internalType": "uint256",
          "name": "",
          "type": "uint256"
        }
      ],
      "stateMutability": "pure",
      "type": "function",
      "constant": true
    },
    {
      "inputs": [
        {
          "internalType": "uint256",
          "name": "_input",
          "type": "uint256"
        }
      ],
      "name": "nextPowOfTwo",
      "outputs": [
        {
          "internalType": "uint256",
          "name": "",
          "type": "uint256"
        }
      ],
      "stateMutability": "pure",
      "type": "function",
      "constant": true
    },
    {
      "inputs": [
        {
          "internalType": "uint256",
          "name": "_input",
          "type": "uint256"
        }
      ],
      "name": "floorLog2",
      "outputs": [
        {
          "internalType": "uint256",
          "name": "",
          "type": "uint256"
        }
      ],
      "stateMutability": "pure",
      "type": "function",
      "constant": true
    },
    {
      "inputs": [
        {
          "internalType": "bytes32[512]",
          "name": "_chunks",
          "type": "bytes32[512]"
        }
      ],
      "name": "merkleize",
      "outputs": [
        {
          "internalType": "bytes32",
          "name": "",
          "type": "bytes32"
        }
      ],
      "stateMutability": "pure",
      "type": "function",
      "constant": true
    },
    {
      "inputs": [
        {
          "internalType": "bytes[512]",
          "name": "_syncCommittee",
          "type": "bytes[512]"
        },
        {
          "internalType": "bytes",
          "name": "_syncAggregate",
          "type": "bytes"
        }
      ],
      "name": "hashTreeRootSyncCommittee",
      "outputs": [
        {
          "internalType": "bytes32",
          "name": "",
          "type": "bytes32"
        }
      ],
      "stateMutability": "pure",
      "type": "function",
      "constant": true
    },
    {
      "inputs": [
        {
          "internalType": "uint256",
          "name": "_generalizedIndex",
          "type": "uint256"
        }
      ],
      "name": "getSubtreeIndex",
      "outputs": [
        {
          "internalType": "uint256",
          "name": "",
          "type": "uint256"
        }
      ],
      "stateMutability": "pure",
      "type": "function",
      "constant": true
    },
    {
      "inputs": [
        {
          "internalType": "bytes32",
          "name": "_root",
          "type": "bytes32"
        },
        {
          "internalType": "bytes32",
          "name": "_leaf",
          "type": "bytes32"
        },
        {
          "internalType": "uint256",
          "name": "_generalizedIndex",
          "type": "uint256"
        },
        {
          "internalType": "bytes32[]",
          "name": "_branch",
          "type": "bytes32[]"
        }
      ],
      "name": "validateMerkleBranch",
      "outputs": [
        {
          "internalType": "bool",
          "name": "",
          "type": "bool"
        }
      ],
      "stateMutability": "pure",
      "type": "function",
      "constant": true
    }
  ],
  "bytecode": "0x60806040523480156200001157600080fd5b5060405162003bfe38038062003bfe833981810160405281019062000037919062000151565b866000806101000a81548167ffffffffffffffff021916908367ffffffffffffffff16021790555085600060086101000a81548167ffffffffffffffff021916908367ffffffffffffffff16021790555084610403819055508161040560006101000a81548167ffffffffffffffff021916908367ffffffffffffffff1602179055508061040560086101000a81548167ffffffffffffffff021916908367ffffffffffffffff1602179055508261040560106101000a81548167ffffffffffffffff021916908367ffffffffffffffff1602179055508361040481905550505050505050506200025b565b600081519050620001348162000227565b92915050565b6000815190506200014b8162000241565b92915050565b600080600080600080600060e0888a03121562000173576200017262000222565b5b6000620001838a828b016200013a565b9750506020620001968a828b016200013a565b9650506040620001a98a828b0162000123565b9550506060620001bc8a828b0162000123565b9450506080620001cf8a828b016200013a565b93505060a0620001e28a828b016200013a565b92505060c0620001f58a828b016200013a565b91505092959891949750929550565b6000819050919050565b600067ffffffffffffffff82169050919050565b600080fd5b620002328162000204565b81146200023e57600080fd5b50565b6200024c816200020e565b81146200025857600080fd5b50565b613993806200026b6000396000f3fe608060405234801561001057600080fd5b50600436106101c45760003560e01c80637b9e6200116100f9578063b8ffb2e311610097578063e41bbcf811610071578063e41bbcf8146105eb578063e92938ab1461061b578063f218850e1461064b578063fe24511e1461067b576101c4565b8063b8ffb2e31461055b578063bfe370d91461058b578063c36a13da146105bb576101c4565b80638e8a29eb116100d35780638e8a29eb1461049b5780639eb51fce146104cb578063a9755eb1146104fb578063b1e9f2a01461052b576101c4565b80637b9e62001461040b5780637e7f232a1461043b578063809d74ba1461046b576101c4565b80634466b4301161016657806356f07c061161014057806356f07c061461036f5780635c5528791461038d578063639f30c3146103bd5780636e1e76b9146103db576101c4565b80634466b430146102f357806345b8bafc1461030f5780634c0999c71461033f576101c4565b80632c26bfd4116101a25780632c26bfd414610245578063398fd9d4146102635780633fccb97b14610293578063404c2a71146102c3576101c4565b8063201112e6146101c9578063255f3791146101e55780632b22475114610215575b600080fd5b6101e360048036038101906101de9190612580565b6106ab565b005b6101ff60048036038101906101fa9190612580565b6106da565b60405161020c9190612cce565b60405180910390f35b61022f600480360381019061022a91906124e1565b610772565b60405161023c9190612cce565b60405180910390f35b61024d61088e565b60405161025a9190612cce565b60405180910390f35b61027d600480360381019061027891906127fa565b610899565b60405161028a9190612cb3565b60405180910390f35b6102ad60048036038101906102a891906128bb565b6108f0565b6040516102ba9190612e66565b60405180910390f35b6102dd60048036038101906102d891906128e8565b610915565b6040516102ea9190612cce565b60405180910390f35b61030d60048036038101906103089190612580565b610945565b005b610329600480360381019061032491906128bb565b610975565b6040516103369190612e66565b60405180910390f35b61035960048036038101906103549190612625565b6109d7565b6040516103669190612d04565b60405180910390f35b610377610a00565b6040516103849190612cce565b60405180910390f35b6103a760048036038101906103a291906127fa565b610a0b565b6040516103b49190612ce9565b60405180910390f35b6103c5610a2f565b6040516103d29190612e81565b60405180910390f35b6103f560048036038101906103f091906127cd565b610a4e565b6040516104029190612ce9565b60405180910390f35b6104256004803603810190610420919061267f565b610b37565b6040516104329190612d04565b60405180910390f35b61045560048036038101906104509190612742565b610b63565b6040516104629190612d04565b60405180910390f35b610485600480360381019061048091906124b3565b610e53565b6040516104929190612e66565b60405180910390f35b6104b560048036038101906104b09190612843565b610eb8565b6040516104c29190612cb3565b60405180910390f35b6104e560048036038101906104e0919061267f565b6114e3565b6040516104f29190612cce565b60405180910390f35b610515600480360381019061051091906125f8565b611546565b6040516105229190612d04565b60405180910390f35b610545600480360381019061054091906128bb565b61156f565b6040516105529190612e66565b60405180910390f35b610575600480360381019061057091906128bb565b611598565b6040516105829190612e66565b60405180910390f35b6105a560048036038101906105a091906127fa565b6115d4565b6040516105b29190612cce565b60405180910390f35b6105d560048036038101906105d091906127fa565b6115f7565b6040516105e29190612cce565b60405180910390f35b610605600480360381019061060091906128bb565b61167c565b6040516106129190612e66565b60405180910390f35b6106356004803603810190610630919061267f565b6116af565b6040516106429190612cce565b60405180910390f35b610665600480360381019061066091906126bf565b6116c3565b6040516106729190612cb3565b60405180910390f35b6106956004803603810190610690919061250f565b61182e565b6040516106a29190612c91565b60405180910390f35b816001906102006106bd929190611abc565b508061020190805190602001906106d5929190611b10565b505050565b60006106e4611b96565b60005b610200811015610742576107128582610200811061070857610707613544565b5b60200201516115f7565b8282610200811061072657610725613544565b5b602002018181525050808061073a90613429565b9150506106e7565b50600061074e82610772565b905060006107648261075f876115f7565b6114e3565b905080935050505092915050565b600080610780610200611598565b9050600061020090505b818110156107a557808061079d90613429565b91505061078a565b5060005b6107b282610975565b81101561086b5760008160026107c89190613118565b905060005b838110156108565761081a868261020081106107ec576107eb613544565b5b60200201518784846107fe919061303e565b61020081106108105761080f613544565b5b60200201516114e3565b8682610200811061082e5761082d613544565b5b6020020181815250506002826108449190613236565b8161084f919061303e565b90506107cd565b5050808061086390613429565b9150506107a9565b50826000610200811061088157610880613544565b5b6020020151915050919050565b600061040354905090565b600080156108aa57600190506108eb565b6108b2611bba565b6040518351602083826020880160055afa6108cc57600080fd5b5050806000600181106108e2576108e1613544565b5b60200201519150505b919050565b6000635fc63057600c836109049190613236565b61090e919061303e565b9050919050565b60006109238260c01b610a4e565b77ffffffffffffffffffffffffffffffffffffffffffffffff19169050919050565b8161020290610200610958929190611abc565b50806104029080519060200190610970929190611b10565b505050565b600060018210156109bb576040517f08c379a00000000000000000000000000000000000000000000000000000000081526004016109b290612d66565b60405180910390fd5b60016109c68361167c565b6109d09190613290565b9050919050565b6060816040516020016109ea9190612c33565b6040516020818303038152906040529050919050565b600061040454905090565b60008082511415610a2257600060c01b9050610a2a565b602082015190505b919050565b600061040560089054906101000a900467ffffffffffffffff16905090565b600080600867ffffffffffffffff811115610a6c57610a6b613573565b5b6040519080825280601f01601f191660200182016040528015610a9e5781602001600182028036833780820191505090505b50905060005b6008811015610b2557838160088110610ac057610abf613544565b5b1a60f81b82826007610ad29190613290565b81518110610ae357610ae2613544565b5b60200101907effffffffffffffffffffffffffffffffffffffffffffffffffffffffffffff1916908160001a9053508080610b1d90613429565b915050610aa4565b50610b2f81610a0b565b915050919050565b60608282604051602001610b4c929190612c4e565b604051602081830303815290604052905092915050565b60606000825160f01b9050600083516030610b7e9190613236565b6082610b8a919061303e565b67ffffffffffffffff811115610ba357610ba2613573565b5b6040519080825280601f01601f191660200182016040528015610bd55781602001600182028036833780820191505090505b50905060005b6020811015610c5057868160208110610bf757610bf6613544565b5b1a60f81b828281518110610c0e57610c0d613544565b5b60200101907effffffffffffffffffffffffffffffffffffffffffffffffffffffffffffff1916908160001a9053508080610c4890613429565b915050610bdb565b506000602090505b6080811015610ce05785602082610c6f9190613290565b81518110610c8057610c7f613544565b5b602001015160f81c60f81b828281518110610c9e57610c9d613544565b5b60200101907effffffffffffffffffffffffffffffffffffffffffffffffffffffffffffff1916908160001a9053508080610cd890613429565b915050610c58565b506000608090505b6082811015610d695782608082610cff9190613290565b60028110610d1057610d0f613544565b5b1a60f81b828281518110610d2757610d26613544565b5b60200101907effffffffffffffffffffffffffffffffffffffffffffffffffffffffffffff1916908160001a9053508080610d6190613429565b915050610ce8565b5060005b8451811015610e465760005b6030811015610e3257858281518110610d9557610d94613544565b5b60200260200101518181518110610daf57610dae613544565b5b602001015160f81c60f81b8382603085610dc99190613236565b6082610dd5919061303e565b610ddf919061303e565b81518110610df057610def613544565b5b60200101907effffffffffffffffffffffffffffffffffffffffffffffffffffffffffffff1916908160001a9053508080610e2a90613429565b915050610d79565b508080610e3e90613429565b915050610d6d565b5080925050509392505050565b6000806000905060005b610200811015610eae576001151584826102008110610e7f57610e7e613544565b5b602002015115151415610e9b578180610e9790613429565b9250505b8080610ea690613429565b915050610e5d565b5080915050919050565b600080610ecd846040015185606001516116af565b90506000610ede8560200151610e53565b905060008054906101000a900467ffffffffffffffff1667ffffffffffffffff16811015610f41576040517f08c379a0000000000000000000000000000000000000000000000000000000008152600401610f3890612dc6565b60405180910390fd5b610f5c8560400151866101800151600b886101a001516116c3565b610f9b576040517f08c379a0000000000000000000000000000000000000000000000000000000008152600401610f9290612e46565b60405180910390fd5b610fbc8560400151610fb08760800151610915565b60088860a001516116c3565b50610fd78561018001518660c0015160698860e001516116c3565b50610ffb8560c00151610fee876101000151610915565b60088861012001516116c3565b506110178560c00151866101400151600b8861016001516116c3565b611056576040517f08c379a000000000000000000000000000000000000000000000000000000000815260040161104d90612d26565b60405180910390fd5b600061040560089054906101000a900467ffffffffffffffff16866080015161107f91906132c4565b67ffffffffffffffff1690506000610200602061109c9190613236565b826110a79190613094565b14156111d65761119261118d848860000151611188600161020080602002604051908101604052809291906000905b828210156111795783820180546110ec906133c6565b80601f0160208091040260200160405190810160405280929190818152602001828054611118906133c6565b80156111655780601f1061113a57610100808354040283529160200191611165565b820191906000526020600020905b81548152906001019060200180831161114857829003601f168201915b5050505050815260200190600101906110d6565b505050508b602001518861182e565b610b63565b610899565b6111d1576040517f08c379a00000000000000000000000000000000000000000000000000000000081526004016111c890612da6565b60405180910390fd5b611460565b600161020060206111e79190613236565b826111f29190613094565b1415611424576112de6112d98488600001516112d461020261020080602002604051908101604052809291906000905b828210156112c5578382018054611238906133c6565b80601f0160208091040260200160405190810160405280929190818152602001828054611264906133c6565b80156112b15780601f10611286576101008083540402835291602001916112b1565b820191906000526020600020905b81548152906001019060200180831161129457829003601f168201915b505050505081526020019060010190611222565b505050508b602001518861182e565b610b63565b610899565b61131d576040517f08c379a000000000000000000000000000000000000000000000000000000000815260040161131490612e26565b60405180910390fd5b6000611331866000015187602001516106da565b905061134987610140015182603789604001516116c3565b611388576040517f08c379a000000000000000000000000000000000000000000000000000000000815260040161137f90612d46565b60405180910390fd5b61020260019061020061139c929190611bdc565b506104026102019080546113af906133c6565b6113ba929190611c30565b508560000151610202906102006113d2929190611abc565b50856020015161040290805190602001906113ee929190611b10565b5086610100015161040560086101000a81548167ffffffffffffffff021916908367ffffffffffffffff1602179055505061145f565b6040517f08c379a000000000000000000000000000000000000000000000000000000000815260040161145690612e06565b60405180910390fd5b5b8560c001516104038190555085610140015161040481905550856080015161040560006101000a81548167ffffffffffffffff021916908367ffffffffffffffff16021790555085610100015161040560106101000a81548167ffffffffffffffff021916908367ffffffffffffffff1602179055506001935050505092915050565b600060026114f18484610b37565b6040516114fe9190612c7a565b602060405180830381855afa15801561151b573d6000803e3d6000fd5b5050506040513d601f19601f8201168201806040525081019061153e9190612652565b905092915050565b6060816040516020016115599190612c18565b6040516020818303038152906040529050919050565b600061157a82610975565b60026115869190613118565b826115919190613486565b9050919050565b6000808214156115ab57600190506115cf565b6115c06001836115bb9190613290565b61167c565b60026115cc9190613118565b90505b919050565b600080825114156115ea576000801b90506115f2565b602082015190505b919050565b60008061161160006020856119149092919063ffffffff16565b9050600061162c60206010866119149092919063ffffffff16565b9050611657604051806040016040528060108152602001600081525082611a3290919063ffffffff16565b9050611673611665836115d4565b61166e836115d4565b6114e3565b92505050919050565b600080600090505b600083146116a657600183901c9250808061169e90613429565b915050611684565b80915050919050565b60006116bb83836114e3565b905092915050565b6000806116cf8461156f565b905060006116dc85610975565b9050600086905060005b8281101561181d57600160028260026116ff9190613118565b8661170a9190613094565b6117149190613486565b141561179457600261174087838151811061173257611731613544565b5b602002602001015184610b37565b60405161174d9190612c7a565b602060405180830381855afa15801561176a573d6000803e3d6000fd5b5050506040513d601f19601f8201168201806040525081019061178d9190612652565b915061180a565b60026117ba838884815181106117ad576117ac613544565b5b6020026020010151610b37565b6040516117c79190612c7a565b602060405180830381855afa1580156117e4573d6000803e3d6000fd5b5050506040513d601f19601f820116820180604052508101906118079190612652565b91505b808061181590613429565b9150506116e6565b508781149350505050949350505050565b606060008267ffffffffffffffff81111561184c5761184b613573565b5b60405190808252806020026020018201604052801561187f57816020015b606081526020019060019003908161186a5790505b5090506000805b61020081101561190757858161020081106118a4576118a3613544565b5b6020020151156118f457868161020081106118c2576118c1613544565b5b60200201518383815181106118da576118d9613544565b5b602002602001018190525081806118f090613429565b9250505b80806118ff90613429565b915050611886565b5081925050509392505050565b606081601f83611924919061303e565b1015611965576040517f08c379a000000000000000000000000000000000000000000000000000000000815260040161195c90612d86565b60405180910390fd5b8183611971919061303e565b845110156119b4576040517f08c379a00000000000000000000000000000000000000000000000000000000081526004016119ab90612de6565b60405180910390fd5b60608215600081146119d55760405191506000825260208201604052611a26565b6040519150601f8416801560200281840101858101878315602002848b0101015b81831015611a1357805183526020830192506020810190506119f6565b50868552601f19601f8301166040525050505b50809150509392505050565b6060806040519050835180825260208201818101602087015b81831015611a685780518352602083019250602081019050611a4b565b50855192508351830184528091508282019050602086015b81831015611a9d5780518352602083019250602081019050611a80565b50601f19601f8851850115830101166040525050508091505092915050565b826102008101928215611aff579160200282015b82811115611afe578251829080519060200190611aee929190611b10565b5091602001919060010190611ad0565b5b509050611b0c9190611cbd565b5090565b828054611b1c906133c6565b90600052602060002090601f016020900481019282611b3e5760008555611b85565b82601f10611b5757805160ff1916838001178555611b85565b82800160010185558215611b85579182015b82811115611b84578251825591602001919060010190611b69565b5b509050611b929190611ce1565b5090565b60405180614000016040528061020090602082028036833780820191505090505090565b6040518060200160405280600190602082028036833780820191505090505090565b826102008101928215611c1f579182015b82811115611c1e578282908054611c03906133c6565b611c0e929190611cfe565b5091600101919060010190611bed565b5b509050611c2c9190611cbd565b5090565b828054611c3c906133c6565b90600052602060002090601f016020900481019282611c5e5760008555611cac565b82601f10611c6f5780548555611cac565b82800160010185558215611cac57600052602060002091601f016020900482015b82811115611cab578254825591600101919060010190611c90565b5b509050611cb99190611ce1565b5090565b5b80821115611cdd5760008181611cd49190611d8b565b50600101611cbe565b5090565b5b80821115611cfa576000816000905550600101611ce2565b5090565b828054611d0a906133c6565b90600052602060002090601f016020900481019282611d2c5760008555611d7a565b82601f10611d3d5780548555611d7a565b82800160010185558215611d7a57600052602060002091601f016020900482015b82811115611d79578254825591600101919060010190611d5e565b5b509050611d879190611ce1565b5090565b508054611d97906133c6565b6000825580601f10611da95750611dc8565b601f016020900490600052602060002090810190611dc79190611ce1565b5b50565b6000611dde611dd984612ec1565b612e9c565b90508082856020860282011115611df857611df76135b1565b5b60005b85811015611e285781611e0e888261213e565b845260208401935060208301925050600181019050611dfb565b5050509392505050565b6000611e45611e4084612ee7565b612e9c565b90508082856020860282011115611e5f57611e5e6135b1565b5b60005b85811015611e8f5781611e758882612168565b845260208401935060208301925050600181019050611e62565b5050509392505050565b6000611eac611ea784612f0d565b612e9c565b90508083825260208201905082856020860282011115611ecf57611ece6135b1565b5b60005b85811015611eff5781611ee58882612168565b845260208401935060208301925050600181019050611ed2565b5050509392505050565b6000611f1c611f1784612f39565b612e9c565b90508082856020860282011115611f3657611f356135b1565b5b60005b85811015611f8457813567ffffffffffffffff811115611f5c57611f5b6135a2565b5b808601611f6989826121a7565b85526020850194506020840193505050600181019050611f39565b5050509392505050565b6000611fa1611f9c84612f5f565b612e9c565b90508083825260208201905082856020860282011115611fc457611fc36135b1565b5b60005b8581101561201257813567ffffffffffffffff811115611fea57611fe96135a2565b5b808601611ff789826121a7565b85526020850194506020840193505050600181019050611fc7565b5050509392505050565b600061202f61202a84612f8b565b612e9c565b90508281526020810184848401111561204b5761204a6135b6565b5b612056848285613384565b509392505050565b600082601f830112612073576120726135a2565b5b610200612081848285611dcb565b91505092915050565b600082601f83011261209f5761209e6135a2565b5b6102006120ad848285611e32565b91505092915050565b600082601f8301126120cb576120ca6135a2565b5b81356120db848260208601611e99565b91505092915050565b600082601f8301126120f9576120f86135a2565b5b610200612107848285611f09565b91505092915050565b600082601f830112612125576121246135a2565b5b8135612135848260208601611f8e565b91505092915050565b60008135905061214d816138d3565b92915050565b600081359050612162816138ea565b92915050565b60008135905061217781613901565b92915050565b60008151905061218c81613901565b92915050565b6000813590506121a181613918565b92915050565b600082601f8301126121bc576121bb6135a2565b5b81356121cc84826020860161201c565b91505092915050565b60006141a082840312156121ec576121eb6135a7565b5b6121f76101c0612e9c565b9050600082013567ffffffffffffffff811115612217576122166135ac565b5b612223848285016121a7565b60008301525060206122378482850161205e565b60208301525061402061224c84828501612168565b60408301525061404061226184828501612168565b6060830152506140606122768482850161249e565b60808301525061408082013567ffffffffffffffff81111561229b5761229a6135ac565b5b6122a7848285016120b6565b60a0830152506140a06122bc84828501612168565b60c0830152506140c082013567ffffffffffffffff8111156122e1576122e06135ac565b5b6122ed848285016120b6565b60e0830152506140e06123028482850161249e565b6101008301525061410082013567ffffffffffffffff811115612328576123276135ac565b5b612334848285016120b6565b6101208301525061412061234a84828501612168565b6101408301525061414082013567ffffffffffffffff8111156123705761236f6135ac565b5b61237c848285016120b6565b6101608301525061416061239284828501612168565b6101808301525061418082013567ffffffffffffffff8111156123b8576123b76135ac565b5b6123c4848285016120b6565b6101a08301525092915050565b6000606082840312156123e7576123e66135a7565b5b6123f16060612e9c565b9050600082013567ffffffffffffffff811115612411576124106135ac565b5b61241d848285016120e4565b600083015250602082013567ffffffffffffffff811115612441576124406135ac565b5b61244d848285016121a7565b602083015250604082013567ffffffffffffffff811115612471576124706135ac565b5b61247d848285016120b6565b60408301525092915050565b6000813590506124988161392f565b92915050565b6000813590506124ad81613946565b92915050565b600061400082840312156124ca576124c96135c0565b5b60006124d88482850161205e565b91505092915050565b600061400082840312156124f8576124f76135c0565b5b60006125068482850161208a565b91505092915050565b60008060006140408486031215612529576125286135c0565b5b600084013567ffffffffffffffff811115612547576125466135bb565b5b612553868287016120e4565b93505060206125648682870161205e565b92505061402061257686828701612489565b9150509250925092565b60008060408385031215612597576125966135c0565b5b600083013567ffffffffffffffff8111156125b5576125b46135bb565b5b6125c1858286016120e4565b925050602083013567ffffffffffffffff8111156125e2576125e16135bb565b5b6125ee858286016121a7565b9150509250929050565b60006020828403121561260e5761260d6135c0565b5b600061261c84828501612153565b91505092915050565b60006020828403121561263b5761263a6135c0565b5b600061264984828501612168565b91505092915050565b600060208284031215612668576126676135c0565b5b60006126768482850161217d565b91505092915050565b60008060408385031215612696576126956135c0565b5b60006126a485828601612168565b92505060206126b585828601612168565b9150509250929050565b600080600080608085870312156126d9576126d86135c0565b5b60006126e787828801612168565b94505060206126f887828801612168565b935050604061270987828801612489565b925050606085013567ffffffffffffffff81111561272a576127296135bb565b5b612736878288016120b6565b91505092959194509250565b60008060006060848603121561275b5761275a6135c0565b5b600061276986828701612168565b935050602084013567ffffffffffffffff81111561278a576127896135bb565b5b612796868287016121a7565b925050604084013567ffffffffffffffff8111156127b7576127b66135bb565b5b6127c386828701612110565b9150509250925092565b6000602082840312156127e3576127e26135c0565b5b60006127f184828501612192565b91505092915050565b6000602082840312156128105761280f6135c0565b5b600082013567ffffffffffffffff81111561282e5761282d6135bb565b5b61283a848285016121a7565b91505092915050565b6000806040838503121561285a576128596135c0565b5b600083013567ffffffffffffffff811115612878576128776135bb565b5b612884858286016121d5565b925050602083013567ffffffffffffffff8111156128a5576128a46135bb565b5b6128b1858286016123d1565b9150509250929050565b6000602082840312156128d1576128d06135c0565b5b60006128df84828501612489565b91505092915050565b6000602082840312156128fe576128fd6135c0565b5b600061290c8482850161249e565b91505092915050565b600061292183836129f9565b905092915050565b600061293482612fcc565b61293e8185612fef565b93508360208202850161295085612fbc565b8060005b8581101561298c578484038952815161296d8582612915565b945061297883612fe2565b925060208a01995050600181019050612954565b50829750879550505050505092915050565b6129a7816132f8565b82525050565b6129be6129b982613304565b613472565b82525050565b6129cd81613330565b82525050565b6129e46129df82613330565b61347c565b82525050565b6129f38161333a565b82525050565b6000612a0482612fd7565b612a0e8185613000565b9350612a1e818560208601613393565b612a27816135c5565b840191505092915050565b6000612a3d82612fd7565b612a478185613011565b9350612a57818560208601613393565b612a60816135c5565b840191505092915050565b6000612a7682612fd7565b612a808185613022565b9350612a90818560208601613393565b80840191505092915050565b6000612aa9602f8361302d565b9150612ab4826135e3565b604082019050919050565b6000612acc60328361302d565b9150612ad782613632565b604082019050919050565b6000612aef60328361302d565b9150612afa82613681565b604082019050919050565b6000612b12600e8361302d565b9150612b1d826136d0565b602082019050919050565b6000612b35602d8361302d565b9150612b40826136f9565b604082019050919050565b6000612b5860218361302d565b9150612b6382613748565b604082019050919050565b6000612b7b60118361302d565b9150612b8682613797565b602082019050919050565b6000612b9e60508361302d565b9150612ba9826137c0565b606082019050919050565b6000612bc1602a8361302d565b9150612bcc82613835565b604082019050919050565b6000612be4602c8361302d565b9150612bef82613884565b604082019050919050565b612c0381613366565b82525050565b612c1281613370565b82525050565b6000612c2482846129ad565b60028201915081905092915050565b6000612c3f82846129d3565b60208201915081905092915050565b6000612c5a82856129d3565b602082019150612c6a82846129d3565b6020820191508190509392505050565b6000612c868284612a6b565b915081905092915050565b60006020820190508181036000830152612cab8184612929565b905092915050565b6000602082019050612cc8600083018461299e565b92915050565b6000602082019050612ce360008301846129c4565b92915050565b6000602082019050612cfe60008301846129ea565b92915050565b60006020820190508181036000830152612d1e8184612a32565b905092915050565b60006020820190508181036000830152612d3f81612a9c565b9050919050565b60006020820190508181036000830152612d5f81612abf565b9050919050565b60006020820190508181036000830152612d7f81612ae2565b9050919050565b60006020820190508181036000830152612d9f81612b05565b9050919050565b60006020820190508181036000830152612dbf81612b28565b9050919050565b60006020820190508181036000830152612ddf81612b4b565b9050919050565b60006020820190508181036000830152612dff81612b6e565b9050919050565b60006020820190508181036000830152612e1f81612b91565b9050919050565b60006020820190508181036000830152612e3f81612bb4565b9050919050565b60006020820190508181036000830152612e5f81612bd7565b9050919050565b6000602082019050612e7b6000830184612bfa565b92915050565b6000602082019050612e966000830184612c09565b92915050565b6000612ea6612eb7565b9050612eb282826133f8565b919050565b6000604051905090565b600067ffffffffffffffff821115612edc57612edb613573565b5b602082029050919050565b600067ffffffffffffffff821115612f0257612f01613573565b5b602082029050919050565b600067ffffffffffffffff821115612f2857612f27613573565b5b602082029050602081019050919050565b600067ffffffffffffffff821115612f5457612f53613573565b5b602082029050919050565b600067ffffffffffffffff821115612f7a57612f79613573565b5b602082029050602081019050919050565b600067ffffffffffffffff821115612fa657612fa5613573565b5b612faf826135c5565b9050602081019050919050565b6000819050602082019050919050565b600081519050919050565b600081519050919050565b6000602082019050919050565b600082825260208201905092915050565b600082825260208201905092915050565b600082825260208201905092915050565b600081905092915050565b600082825260208201905092915050565b600061304982613366565b915061305483613366565b9250827fffffffffffffffffffffffffffffffffffffffffffffffffffffffffffffffff03821115613089576130886134b7565b5b828201905092915050565b600061309f82613366565b91506130aa83613366565b9250826130ba576130b96134e6565b5b828204905092915050565b6000808291508390505b600185111561310f578086048111156130eb576130ea6134b7565b5b60018516156130fa5780820291505b8081029050613108856135d6565b94506130cf565b94509492505050565b600061312382613366565b915061312e83613366565b925061315b7fffffffffffffffffffffffffffffffffffffffffffffffffffffffffffffffff8484613163565b905092915050565b600082613173576001905061322f565b81613181576000905061322f565b816001811461319757600281146131a1576131d0565b600191505061322f565b60ff8411156131b3576131b26134b7565b5b8360020a9150848211156131ca576131c96134b7565b5b5061322f565b5060208310610133831016604e8410600b84101617156132055782820a905083811115613200576131ff6134b7565b5b61322f565b61321284848460016130c5565b92509050818404811115613229576132286134b7565b5b81810290505b9392505050565b600061324182613366565b915061324c83613366565b9250817fffffffffffffffffffffffffffffffffffffffffffffffffffffffffffffffff0483118215151615613285576132846134b7565b5b828202905092915050565b600061329b82613366565b91506132a683613366565b9250828210156132b9576132b86134b7565b5b828203905092915050565b60006132cf82613370565b91506132da83613370565b9250828210156132ed576132ec6134b7565b5b828203905092915050565b60008115159050919050565b60007fffff00000000000000000000000000000000000000000000000000000000000082169050919050565b6000819050919050565b60007fffffffffffffffff00000000000000000000000000000000000000000000000082169050919050565b6000819050919050565b600067ffffffffffffffff82169050919050565b82818337600083830152505050565b60005b838110156133b1578082015181840152602081019050613396565b838111156133c0576000848401525b50505050565b600060028204905060018216806133de57607f821691505b602082108114156133f2576133f1613515565b5b50919050565b613401826135c5565b810181811067ffffffffffffffff821117156134205761341f613573565b5b80604052505050565b600061343482613366565b91507fffffffffffffffffffffffffffffffffffffffffffffffffffffffffffffffff821415613467576134666134b7565b5b600182019050919050565b6000819050919050565b6000819050919050565b600061349182613366565b915061349c83613366565b9250826134ac576134ab6134e6565b5b828206905092915050565b7f4e487b7100000000000000000000000000000000000000000000000000000000600052601160045260246000fd5b7f4e487b7100000000000000000000000000000000000000000000000000000000600052601260045260246000fd5b7f4e487b7100000000000000000000000000000000000000000000000000000000600052602260045260246000fd5b7f4e487b7100000000000000000000000000000000000000000000000000000000600052603260045260246000fd5b7f4e487b7100000000000000000000000000000000000000000000000000000000600052604160045260246000fd5b600080fd5b600080fd5b600080fd5b600080fd5b600080fd5b600080fd5b600080fd5b6000601f19601f8301169050919050565b60008160011c9050919050565b7f6d65726b6c652070726f6f6620666f722066696e616c697a656420737461746560008201527f20726f6f74206e6f742076616c69640000000000000000000000000000000000602082015250565b7f6d65726b6c652070726f6f66206f66206e657874206e6578742073796e63206360008201527f6f6d6d6974746565206e6f742076616c69640000000000000000000000000000602082015250565b7f5f696e70757420746f20666c6f6f724c6f6732206d757374206265206c61726760008201527f6572206f7220657175616c207468616e20310000000000000000000000000000602082015250565b7f736c6963655f6f766572666c6f77000000000000000000000000000000000000600082015250565b7f7369676e61747572652062792063757272656e742073796e6320636f6d6d697460008201527f746565206e6f742076616c696400000000000000000000000000000000000000602082015250565b7f6e6f7420656e6f756768207369676e6174757265207061727469636970616e7460008201527f7300000000000000000000000000000000000000000000000000000000000000602082015250565b7f736c6963655f6f75744f66426f756e6473000000000000000000000000000000600082015250565b7f6c617465737420736c6f7420646f6573206e6f7420696e64696361746520746860008201527f61742063757272656e74206f72206e6578742073796e6320636f6d6d6974746560208201527f6520697320726573706f6e7369626c6500000000000000000000000000000000604082015250565b7f7369676e6174757265206279206e6578742073796e6320636f6d6d697474656560008201527f206e6f742076616c696400000000000000000000000000000000000000000000602082015250565b7f6d65726b6c652070726f6f6620666f72206c617465737420737461746520726f60008201527f6f74206e6f742076616c69640000000000000000000000000000000000000000602082015250565b6138dc816132f8565b81146138e757600080fd5b50565b6138f381613304565b81146138fe57600080fd5b50565b61390a81613330565b811461391557600080fd5b50565b6139218161333a565b811461392c57600080fd5b50565b61393881613366565b811461394357600080fd5b50565b61394f81613370565b811461395a57600080fd5b5056fea2646970667358221220e26e189e571524d835b06f1457a0a0c303dfa30632658e31af1eb821d268e84764736f6c63430008060033",
  "immutableReferences": {},
  "source": "// SPDX-License-Identifier: UNLICENSED\npragma solidity >=0.8.0 <0.9.0;\n\nimport \"bytes/BytesLib.sol\";\n\n// debug settings\nbool constant MOCK_BLS_PRECOMPILE = false;\n\n// magic numbers\nuint constant FIRST_BEACON_BLOCK_UNIX_TIMESTAMP = 1606824023;\n\n// eth2 mainnet configuration\nuint constant SYNC_COMMITTEE_SIZE = 512;\nuint constant SECONDS_PER_SLOT = 12;\nuint constant SLOTS_PER_EPOCH = 32;\nuint constant EPOCHS_PER_SYNC_COMMITTEE_PERIOD = 512;\n\n// SSZ generalized indices\nuint constant FINALIZED_ROOT_INDEX = 105;\nuint constant FINALIZED_EPOCH_INDEX = 104;\nuint constant NEXT_SYNC_COMMITTEE_INDEX = 55;\nuint constant NEXT_SYNC_COMMITTEE_PUBKEYS_INDEX = 110;\nuint constant SLOT_INDEX = 8;\nuint constant STATE_ROOT_INDEX = 11;\n\nstruct ChainRelayUpdate {\n    bytes signature;\n    bool[SYNC_COMMITTEE_SIZE] participants;\n    bytes32 latestBlockRoot;\n    bytes32 signingDomain;\n    uint64 latestSlot;\n    bytes32[] latestSlotBranch; \n    bytes32 finalizedBlockRoot; \n    bytes32[] finalizingBranch; \n    uint64 finalizedSlot; \n    bytes32[] finalizedSlotBranch; \n    bytes32 finalizedStateRoot;\n    bytes32[] finalizedStateRootBranch;\n    bytes32 stateRoot;\n    bytes32[] stateRootBranch; \n}\n\nstruct SyncCommitteeUpdate {\n    bytes[SYNC_COMMITTEE_SIZE] nextNextValidatorSet;\n    bytes nextNextValidatorSetAggregate;\n    bytes32[] nextNextValidatorSetBranch;\n}\n\n/** \n * @title Chain Relay\n * @dev Implements a chain relay/light client for eth2 consensus post-altair (including sync committees)\n */\ncontract Eth2ChainRelay_512 {\n    using BytesLib for bytes;\n\n    uint64 private signatureThreshold; // 0 < signatureThreshold <= 512\n    uint64 private trustingPeriod; // validators are trusted for a certain time, ensuring they have not exited the validator set, in unix time\n    bytes[SYNC_COMMITTEE_SIZE] private currentValidatorSet;\n    bytes private currentValidatorSetAggregate;\n    bytes[SYNC_COMMITTEE_SIZE] private nextValidatorSet;\n    bytes private nextValidatorSetAggregate;\n    bytes32 private finalizedBlockRoot;\n    bytes32 private finalizedStateRoot; \n    uint64 private latestSlot;\n    uint64 private latestSlotWithValidatorSetChange;\n    uint64 private finalizedSlot;\n    \n    constructor(uint64 _signatureThreshold, \n                uint64 _trustingPeriod, \n                bytes32 _finalizedBlockRoot,\n                bytes32 _finalizedStateRoot,\n                uint64 _finalizedSlot,\n                uint64 _latestSlot,\n                uint64 _latestSlotWithValidatorSetChange) \n    {\n        signatureThreshold=_signatureThreshold;\n        trustingPeriod=_trustingPeriod;\n        finalizedBlockRoot=_finalizedBlockRoot;\n        latestSlot=_latestSlot;\n        latestSlotWithValidatorSetChange=_latestSlotWithValidatorSetChange;\n        finalizedSlot=_finalizedSlot;\n        finalizedStateRoot=_finalizedStateRoot;\n    }\n\n    function initializeCurrent(bytes[SYNC_COMMITTEE_SIZE] memory _currentValidatorSet, \n                            bytes memory _currentValidatorSetAggregate) public {\n        currentValidatorSet=_currentValidatorSet;\n        currentValidatorSetAggregate=_currentValidatorSetAggregate;\n                }\n\n    function initializeNext(bytes[SYNC_COMMITTEE_SIZE] memory _nextValidatorSet,\n                            bytes memory _nextValidatorSetAggregate) public {\n        nextValidatorSet=_nextValidatorSet;\n        nextValidatorSetAggregate=_nextValidatorSetAggregate;\n                }\n\n    function getLatestSlotWithValidatorSetChange() public view returns (uint64) {\n        return latestSlotWithValidatorSetChange;\n    }\n    \n    function getFinalizedBlockRoot() public view returns (bytes32) {\n        return finalizedBlockRoot;\n    }\n    \n    function getFinalizedStateRoot() public view returns (bytes32) {\n        return finalizedStateRoot;\n    }\n    \n    function submitUpdate(ChainRelayUpdate memory _chainRelayUpdate, SyncCommitteeUpdate memory _syncCommitteeUpdate) public returns (bool) {\n        bytes32 signingRoot = computeSigningRoot(_chainRelayUpdate.latestBlockRoot, _chainRelayUpdate.signingDomain);\n        uint numberOfParticipants = countTrueBools(_chainRelayUpdate.participants);\n        require(\n            numberOfParticipants >= signatureThreshold, \n            \"not enough signature participants\");\n        require(\n            validateMerkleBranch(\n                _chainRelayUpdate.latestBlockRoot, \n                _chainRelayUpdate.stateRoot, \n                STATE_ROOT_INDEX, \n                _chainRelayUpdate.stateRootBranch), \n            \"merkle proof for latest state root not valid\");\n        //require(\n            validateMerkleBranch(\n                _chainRelayUpdate.latestBlockRoot, \n                merklelizeSlot(_chainRelayUpdate.latestSlot), \n                SLOT_INDEX, \n                _chainRelayUpdate.latestSlotBranch)\n                //,\"merkle proof for latest slot not valid\")\n            ;\n        //require(\n            validateMerkleBranch(\n                _chainRelayUpdate.stateRoot, \n                _chainRelayUpdate.finalizedBlockRoot, \n                FINALIZED_ROOT_INDEX, \n                _chainRelayUpdate.finalizingBranch)/*,\"merkle proof for finalized block root not valid\")*/;\n        //require(\n            validateMerkleBranch(\n                _chainRelayUpdate.finalizedBlockRoot, \n                merklelizeSlot(_chainRelayUpdate.finalizedSlot), \n                SLOT_INDEX, \n                _chainRelayUpdate.finalizedSlotBranch)\n                //, \"merkle proof for finalized slot not valid\")\n            ;\n        require(\n            validateMerkleBranch(\n                _chainRelayUpdate.finalizedBlockRoot, \n                _chainRelayUpdate.finalizedStateRoot, \n                STATE_ROOT_INDEX, \n                _chainRelayUpdate.finalizedStateRootBranch), \n            \"merkle proof for finalized state root not valid\");\n        uint slot_distance = _chainRelayUpdate.latestSlot - latestSlotWithValidatorSetChange; \n        if ((slot_distance / (SLOTS_PER_EPOCH * EPOCHS_PER_SYNC_COMMITTEE_PERIOD)) == 0) {\n           require(\n               fastAggregateVerify(serializeAggregateSignature(\n                   signingRoot, \n                   _chainRelayUpdate.signature, \n                   getActiveValidators(currentValidatorSet, _chainRelayUpdate.participants, numberOfParticipants))), \n               \"signature by current sync committee not valid\");\n        } else if ((slot_distance / (SLOTS_PER_EPOCH * EPOCHS_PER_SYNC_COMMITTEE_PERIOD)) == 1) {\n            require(\n                fastAggregateVerify(serializeAggregateSignature(\n                    signingRoot, \n                    _chainRelayUpdate.signature, \n                    getActiveValidators(nextValidatorSet, _chainRelayUpdate.participants, numberOfParticipants))), \n                \"signature by next sync committee not valid\");\n            bytes32 merklelizedNextNextSyncCommittee = hashTreeRootSyncCommittee(_syncCommitteeUpdate.nextNextValidatorSet, _syncCommitteeUpdate.nextNextValidatorSetAggregate);\n            require(\n                validateMerkleBranch(\n                    _chainRelayUpdate.finalizedStateRoot, \n                    merklelizedNextNextSyncCommittee, \n                    NEXT_SYNC_COMMITTEE_INDEX, \n                    _syncCommitteeUpdate.nextNextValidatorSetBranch), \n                \"merkle proof of next next sync committee not valid\");\n            currentValidatorSet = nextValidatorSet; \n            currentValidatorSetAggregate = nextValidatorSetAggregate;\n            nextValidatorSet = _syncCommitteeUpdate.nextNextValidatorSet; \n            nextValidatorSetAggregate = _syncCommitteeUpdate.nextNextValidatorSetAggregate;\n            latestSlotWithValidatorSetChange = _chainRelayUpdate.finalizedSlot;\n        } else {\n            revert(\"latest slot does not indicate that current or next sync committee is responsible\");\n        }\n        finalizedBlockRoot = _chainRelayUpdate.finalizedBlockRoot; \n        finalizedStateRoot = _chainRelayUpdate.finalizedStateRoot;\n        latestSlot = _chainRelayUpdate.latestSlot;\n        finalizedSlot = _chainRelayUpdate.finalizedSlot;\n        return true;\n    }\n    \n    function getActiveValidators(bytes[SYNC_COMMITTEE_SIZE] memory _pubkeys, bool[SYNC_COMMITTEE_SIZE] memory _isActive, uint _numberOfActive) public pure returns (bytes[] memory) {\n        bytes[] memory active_validators = new bytes[](_numberOfActive);\n        uint counter = 0;\n        for (uint i = 0; i < SYNC_COMMITTEE_SIZE; i++) {\n            if (_isActive[i]) {\n                active_validators[counter] = _pubkeys[i];\n                counter++;\n            }\n        }\n        return active_validators;\n    }\n    \n    function countTrueBools(bool[SYNC_COMMITTEE_SIZE] memory _bools) public pure returns (uint) {\n        uint counter = 0;\n        for (uint i = 0; i < SYNC_COMMITTEE_SIZE; i++) {\n            if (_bools[i] == true) {\n                counter++;\n            }\n        }\n        return counter;\n    }\n\n    function serializeAggregateSignature(bytes32 _message, bytes memory _signature, bytes[] memory _pubkeys) public pure returns (bytes memory) {\n        bytes2 length = bytes2(uint16(_pubkeys.length));\n        /*bytes memory packed = abi.encode(_message, _signature, _pubkeys);\n        return packed;*/\n        /*bytes memory serialized = new bytes(0);\n        serialized = serialized.concat(bytes32ToBytes(_message));\n        serialized = serialized.concat(_signature);\n        serialized = serialized.concat(bytes2ToBytes(length));\n        for (uint i = 0; i < _pubkeys.length; i++) {\n            serialized = serialized.concat(_pubkeys[i]);\n        }*/\n        // fallback w/o library\n        bytes memory serialized = new bytes(32+96+2+48*_pubkeys.length);\n        for (uint i = 0; i < 32; i++) {\n            serialized[i] = _message[i];\n        }\n        for (uint i = 32; i < 128; i++) {\n            serialized[i] = _signature[i-32];\n        }\n        for (uint i = 128; i < 130; i++) {\n            serialized[i] = length[i-128];\n        }\n        for (uint i = 0; i < _pubkeys.length; i++) {\n            for (uint j = 0; j < 48; j++) {\n            //for (uint j = 0; j < _pubkeys[i].length; j++) {\n                serialized[32+96+2+i*48+j] = _pubkeys[i][j];\n            }\n        }\n        return serialized;\n    }\n    \n    function fastAggregateVerify(bytes memory _input) public view returns (bool o) {\n        if (MOCK_BLS_PRECOMPILE) {\n            return true;\n        }\n        bool[1] memory outCache;\n        assembly {\n            let p := mload(0x40)\n            let length := mload(_input)\n            if iszero(staticcall(gas(), 0x05, add(_input,32), length, outCache, 32)) { // first 32 yte of _input are length\n                revert(0, 0)\n            }\n        }\n        o = outCache[0];\n    }\n    \n    function slotToUnixTimestamp(uint _slot) public pure returns (uint timestamp) {\n        return _slot * SECONDS_PER_SLOT + FIRST_BEACON_BLOCK_UNIX_TIMESTAMP;\n    }\n    \n    function bytes32ToBytes(bytes32 _input) public pure returns (bytes memory output) {\n        return abi.encodePacked(_input);\n    }\n    \n    function bytes2ToBytes(bytes2 _input) public pure returns (bytes memory output) {\n        return abi.encodePacked(_input);\n    }\n    \n    function concat(bytes32 _left, bytes32 _right) public pure returns (bytes memory) {\n        return bytes.concat(_left, _right);\n        // below is fallback code for older solidity versions\n        /*bytes memory concatenated;\n        for (uint i = 0; i<32; i++) {\n            concatenated[i] = left[i];\n        }\n        for (uint i = 0; i<32; i++) {\n            concatenated[i+32] = right[i];\n        }\n        return concatenated;*/\n    }\n\n    function hashTreeRootPair(bytes32 _left, bytes32 _right) public pure returns (bytes32) {\n        return sha256(concat(_left, _right));\n    }\n    \n    function hashTreeRootBlspubkey (bytes memory _blspubkey) public pure returns (bytes32) {\n        bytes memory blspubkeyMerkleizedLeft = _blspubkey.slice(0, 32);\n        bytes memory blspubkeyMerkleizedRight = _blspubkey.slice(32, 16);\n        blspubkeyMerkleizedRight = blspubkeyMerkleizedRight.concat(bytes(hex\"00000000000000000000000000000000\"));\n        /* fallback w/o library\n        bytes memory blspubkeyMerkleizedLeft = new bytes(32);\n        for (uint i = 0; i<32; i++) {\n            blspubkeyMerkleizedLeft[i] = _blspubkey[i];\n        }\n        bytes memory blspubkeyMerkleizedRight = new bytes(32);\n        for (uint i = 0; i<16; i++) { // rest of blspubkeyMerkleizedRight is initialized zero\n            blspubkeyMerkleizedRight[i] = _blspubkey[i+32];\n        }*/\n        return hashTreeRootPair(bytesToBytes32(blspubkeyMerkleizedLeft), bytesToBytes32(blspubkeyMerkleizedRight));\n    }\n    \n    function computeSigningRoot(bytes32 _blockRoot, bytes32 _signingDomain) public pure returns (bytes32) {\n        return hashTreeRootPair(_blockRoot, _signingDomain);\n    }\n    \n    function bytesToBytes8(bytes memory _input) public pure returns (bytes8 result) {\n        if (_input.length == 0) {\n            return 0x0;\n        }\n        assembly {\n            result := mload(add(_input, 32))\n        }\n    }\n    \n    function bytesToBytes32(bytes memory _input) public pure returns (bytes32 result) {\n        if (_input.length == 0) {\n            return 0x0;\n        }\n        assembly {\n            result := mload(add(_input, 32))\n        }\n    }\n\n    function revertBytes8(bytes8 _input) public pure returns (bytes8) {\n        bytes memory reverted = new bytes(8);\n        for (uint i = 0; i < 8; i++) {\n            reverted[7-i] = _input[i];\n        }\n        return bytesToBytes8(reverted);\n    }\n\n    function merklelizeSlot(uint64 _input) public pure returns (bytes32) {\n        return bytes32(revertBytes8(bytes8(_input)));\n    }\n    \n    function bitLength(uint _input) public pure returns (uint) {\n        uint length = 0;\n        while (_input != 0) \n        {\n            _input >>= 1; \n            length++; \n        }\n        return length;\n    }\n    \n    function nextPowOfTwo(uint _input) public pure returns (uint) {\n        if (_input == 0) {\n            return 1;\n        } else {\n            return 2**(bitLength(_input-1));\n        }\n    }\n    \n    function floorLog2 (uint _input) public pure returns (uint) {\n        require(_input >= 1, \"_input to floorLog2 must be larger or equal than 1\");\n        return bitLength(_input)-1;\n    }\n    \n    function merkleize(bytes32[SYNC_COMMITTEE_SIZE] memory _chunks) public pure returns (bytes32) {\n        uint length_next_pow = nextPowOfTwo(_chunks.length);\n        for (uint i = _chunks.length; i < length_next_pow; i++) {\n           // fill lowest level \n           // TODO not necessary b/c size always 2^n?\n        }\n        for (uint level = 0; level<floorLog2(length_next_pow); level++) {\n            uint step = 2**level;\n            for (uint current_accumulator = 0; current_accumulator < length_next_pow; current_accumulator += step*2) {\n                _chunks[current_accumulator] = hashTreeRootPair(_chunks[current_accumulator], _chunks[current_accumulator+step]);\n            }\n        }\n        return _chunks[0];\n    }\n    \n    function hashTreeRootSyncCommittee(bytes[SYNC_COMMITTEE_SIZE] memory _syncCommittee, bytes memory _syncAggregate) public pure returns (bytes32) {\n        bytes32[SYNC_COMMITTEE_SIZE] memory syncCommitteeHashed;\n        for (uint i = 0; i < SYNC_COMMITTEE_SIZE; i++) {\n            syncCommitteeHashed[i] = hashTreeRootBlspubkey(_syncCommittee[i]);\n        }\n        bytes32 syncCommitteeHashedMerkleized = merkleize(syncCommitteeHashed);\n        bytes32 syncCommitteeRoot = hashTreeRootPair(syncCommitteeHashedMerkleized, hashTreeRootBlspubkey(_syncAggregate));\n        return syncCommitteeRoot;\n    }\n    \n    function getSubtreeIndex(uint _generalizedIndex) public pure returns (uint) {\n        return _generalizedIndex % 2**(floorLog2(_generalizedIndex));\n    }\n    \n    function validateMerkleBranch(bytes32 _root, bytes32 _leaf, uint _generalizedIndex, bytes32[] memory _branch) public pure returns (bool) {\n        uint index = getSubtreeIndex(_generalizedIndex);\n        uint depth = floorLog2(_generalizedIndex);\n        bytes32 value = _leaf;\n        for (uint i = 0; i < depth; i++) {\n            if ((index / (2**i) % 2) == 1) {\n                value = sha256(concat(_branch[i],value));\n            } else {\n                value = sha256(concat(value,_branch[i]));\n            }\n        }\n        return value == _root;\n    }\n    \n}",
  "sourcePath": "/Users/Max/Documents/PoSChainRelay/Eth2ChainRelay/contracts/Eth2ChainRelay_512.sol",
  "compiler": {
    "name": "solc",
    "version": "0.8.6+commit.11564f7e.Emscripten.clang"
  },
  "schemaVersion": "3.4.1",
  "updatedAt": "2021-08-07T09:36:15.027Z",
  "networkType": "ethereum",
  "devdoc": {
    "details": "Implements a chain relay/light client for eth2 consensus post-altair (including sync committees)",
    "kind": "dev",
    "methods": {},
    "title": "Chain Relay",
    "version": 1
  },
  "userdoc": {
    "kind": "user",
    "methods": {},
    "version": 1
  }
}