{
  "contractName": "Eth2ChainRelay_2",
  "abi": [
    {
      "inputs": [
        {
          "internalType": "uint64",
          "name": "_signatureThreshold",
          "type": "uint64"
        },
        {
          "internalType": "uint64",
          "name": "_trustingPeriod",
          "type": "uint64"
        },
        {
          "internalType": "bytes[2]",
          "name": "_currentValidatorSet",
          "type": "bytes[2]"
        },
        {
          "internalType": "bytes",
          "name": "_currentValidatorSetAggregate",
          "type": "bytes"
        },
        {
          "internalType": "bytes[2]",
          "name": "_nextValidatorSet",
          "type": "bytes[2]"
        },
        {
          "internalType": "bytes",
          "name": "_nextValidatorSetAggregate",
          "type": "bytes"
        },
        {
          "internalType": "bytes32",
          "name": "_finalizedBlockRoot",
          "type": "bytes32"
        },
        {
          "internalType": "bytes32",
          "name": "_finalizedStateRoot",
          "type": "bytes32"
        },
        {
          "internalType": "uint64",
          "name": "_finalizedSlot",
          "type": "uint64"
        },
        {
          "internalType": "uint64",
          "name": "_latestSlot",
          "type": "uint64"
        },
        {
          "internalType": "uint64",
          "name": "_latestSlotWithValidatorSetChange",
          "type": "uint64"
        }
      ],
      "stateMutability": "nonpayable",
      "type": "constructor"
    },
    {
      "inputs": [],
      "name": "getLatestSlotWithValidatorSetChange",
      "outputs": [
        {
          "internalType": "uint64",
          "name": "",
          "type": "uint64"
        }
      ],
      "stateMutability": "view",
      "type": "function",
      "constant": true
    },
    {
      "inputs": [],
      "name": "getFinalizedBlockRoot",
      "outputs": [
        {
          "internalType": "bytes32",
          "name": "",
          "type": "bytes32"
        }
      ],
      "stateMutability": "view",
      "type": "function",
      "constant": true
    },
    {
      "inputs": [],
      "name": "getFinalizedStateRoot",
      "outputs": [
        {
          "internalType": "bytes32",
          "name": "",
          "type": "bytes32"
        }
      ],
      "stateMutability": "view",
      "type": "function",
      "constant": true
    },
    {
      "inputs": [
        {
          "components": [
            {
              "internalType": "bytes",
              "name": "signature",
              "type": "bytes"
            },
            {
              "internalType": "bool[2]",
              "name": "participants",
              "type": "bool[2]"
            },
            {
              "internalType": "bytes32",
              "name": "latestBlockRoot",
              "type": "bytes32"
            },
            {
              "internalType": "bytes32",
              "name": "signingDomain",
              "type": "bytes32"
            },
            {
              "internalType": "uint64",
              "name": "latestSlot",
              "type": "uint64"
            },
            {
              "internalType": "bytes32[]",
              "name": "latestSlotBranch",
              "type": "bytes32[]"
            },
            {
              "internalType": "bytes32",
              "name": "finalizedBlockRoot",
              "type": "bytes32"
            },
            {
              "internalType": "bytes32[]",
              "name": "finalizingBranch",
              "type": "bytes32[]"
            },
            {
              "internalType": "uint64",
              "name": "finalizedSlot",
              "type": "uint64"
            },
            {
              "internalType": "bytes32[]",
              "name": "finalizedSlotBranch",
              "type": "bytes32[]"
            },
            {
              "internalType": "bytes32",
              "name": "finalizedStateRoot",
              "type": "bytes32"
            },
            {
              "internalType": "bytes32[]",
              "name": "finalizedStateRootBranch",
              "type": "bytes32[]"
            },
            {
              "internalType": "bytes32",
              "name": "stateRoot",
              "type": "bytes32"
            },
            {
              "internalType": "bytes32[]",
              "name": "stateRootBranch",
              "type": "bytes32[]"
            }
          ],
          "internalType": "struct ChainRelayUpdate",
          "name": "_chainRelayUpdate",
          "type": "tuple"
        },
        {
          "components": [
            {
              "internalType": "bytes[2]",
              "name": "nextNextValidatorSet",
              "type": "bytes[2]"
            },
            {
              "internalType": "bytes",
              "name": "nextNextValidatorSetAggregate",
              "type": "bytes"
            },
            {
              "internalType": "bytes32[]",
              "name": "nextNextValidatorSetBranch",
              "type": "bytes32[]"
            }
          ],
          "internalType": "struct SyncCommitteeUpdate",
          "name": "_syncCommitteeUpdate",
          "type": "tuple"
        }
      ],
      "name": "submitUpdate",
      "outputs": [
        {
          "internalType": "bool",
          "name": "",
          "type": "bool"
        }
      ],
      "stateMutability": "nonpayable",
      "type": "function"
    },
    {
      "inputs": [
        {
          "internalType": "bytes[2]",
          "name": "_pubkeys",
          "type": "bytes[2]"
        },
        {
          "internalType": "bool[2]",
          "name": "_isActive",
          "type": "bool[2]"
        },
        {
          "internalType": "uint256",
          "name": "_numberOfActive",
          "type": "uint256"
        }
      ],
      "name": "getActiveValidators",
      "outputs": [
        {
          "internalType": "bytes[]",
          "name": "",
          "type": "bytes[]"
        }
      ],
      "stateMutability": "pure",
      "type": "function",
      "constant": true
    },
    {
      "inputs": [
        {
          "internalType": "bool[2]",
          "name": "_bools",
          "type": "bool[2]"
        }
      ],
      "name": "countTrueBools",
      "outputs": [
        {
          "internalType": "uint256",
          "name": "",
          "type": "uint256"
        }
      ],
      "stateMutability": "pure",
      "type": "function",
      "constant": true
    },
    {
      "inputs": [
        {
          "internalType": "bytes32",
          "name": "_message",
          "type": "bytes32"
        },
        {
          "internalType": "bytes",
          "name": "_signature",
          "type": "bytes"
        },
        {
          "internalType": "bytes[]",
          "name": "_pubkeys",
          "type": "bytes[]"
        }
      ],
      "name": "serializeAggregateSignature",
      "outputs": [
        {
          "internalType": "bytes",
          "name": "",
          "type": "bytes"
        }
      ],
      "stateMutability": "pure",
      "type": "function",
      "constant": true
    },
    {
      "inputs": [
        {
          "internalType": "bytes",
          "name": "_input",
          "type": "bytes"
        }
      ],
      "name": "fastAggregateVerify",
      "outputs": [
        {
          "internalType": "bool",
          "name": "o",
          "type": "bool"
        }
      ],
      "stateMutability": "view",
      "type": "function",
      "constant": true
    },
    {
      "inputs": [
        {
          "internalType": "uint256",
          "name": "_slot",
          "type": "uint256"
        }
      ],
      "name": "slotToUnixTimestamp",
      "outputs": [
        {
          "internalType": "uint256",
          "name": "timestamp",
          "type": "uint256"
        }
      ],
      "stateMutability": "pure",
      "type": "function",
      "constant": true
    },
    {
      "inputs": [
        {
          "internalType": "bytes32",
          "name": "_input",
          "type": "bytes32"
        }
      ],
      "name": "bytes32ToBytes",
      "outputs": [
        {
          "internalType": "bytes",
          "name": "output",
          "type": "bytes"
        }
      ],
      "stateMutability": "pure",
      "type": "function",
      "constant": true
    },
    {
      "inputs": [
        {
          "internalType": "bytes2",
          "name": "_input",
          "type": "bytes2"
        }
      ],
      "name": "bytes2ToBytes",
      "outputs": [
        {
          "internalType": "bytes",
          "name": "output",
          "type": "bytes"
        }
      ],
      "stateMutability": "pure",
      "type": "function",
      "constant": true
    },
    {
      "inputs": [
        {
          "internalType": "bytes32",
          "name": "_left",
          "type": "bytes32"
        },
        {
          "internalType": "bytes32",
          "name": "_right",
          "type": "bytes32"
        }
      ],
      "name": "concat",
      "outputs": [
        {
          "internalType": "bytes",
          "name": "",
          "type": "bytes"
        }
      ],
      "stateMutability": "pure",
      "type": "function",
      "constant": true
    },
    {
      "inputs": [
        {
          "internalType": "bytes32",
          "name": "_left",
          "type": "bytes32"
        },
        {
          "internalType": "bytes32",
          "name": "_right",
          "type": "bytes32"
        }
      ],
      "name": "hashTreeRootPair",
      "outputs": [
        {
          "internalType": "bytes32",
          "name": "",
          "type": "bytes32"
        }
      ],
      "stateMutability": "pure",
      "type": "function",
      "constant": true
    },
    {
      "inputs": [
        {
          "internalType": "bytes",
          "name": "_blspubkey",
          "type": "bytes"
        }
      ],
      "name": "hashTreeRootBlspubkey",
      "outputs": [
        {
          "internalType": "bytes32",
          "name": "",
          "type": "bytes32"
        }
      ],
      "stateMutability": "pure",
      "type": "function",
      "constant": true
    },
    {
      "inputs": [
        {
          "internalType": "bytes32",
          "name": "_blockRoot",
          "type": "bytes32"
        },
        {
          "internalType": "bytes32",
          "name": "_signingDomain",
          "type": "bytes32"
        }
      ],
      "name": "computeSigningRoot",
      "outputs": [
        {
          "internalType": "bytes32",
          "name": "",
          "type": "bytes32"
        }
      ],
      "stateMutability": "pure",
      "type": "function",
      "constant": true
    },
    {
      "inputs": [
        {
          "internalType": "bytes",
          "name": "_input",
          "type": "bytes"
        }
      ],
      "name": "bytesToBytes8",
      "outputs": [
        {
          "internalType": "bytes8",
          "name": "result",
          "type": "bytes8"
        }
      ],
      "stateMutability": "pure",
      "type": "function",
      "constant": true
    },
    {
      "inputs": [
        {
          "internalType": "bytes",
          "name": "_input",
          "type": "bytes"
        }
      ],
      "name": "bytesToBytes32",
      "outputs": [
        {
          "internalType": "bytes32",
          "name": "result",
          "type": "bytes32"
        }
      ],
      "stateMutability": "pure",
      "type": "function",
      "constant": true
    },
    {
      "inputs": [
        {
          "internalType": "bytes8",
          "name": "_input",
          "type": "bytes8"
        }
      ],
      "name": "revertBytes8",
      "outputs": [
        {
          "internalType": "bytes8",
          "name": "",
          "type": "bytes8"
        }
      ],
      "stateMutability": "pure",
      "type": "function",
      "constant": true
    },
    {
      "inputs": [
        {
          "internalType": "uint64",
          "name": "_input",
          "type": "uint64"
        }
      ],
      "name": "merklelizeSlot",
      "outputs": [
        {
          "internalType": "bytes32",
          "name": "",
          "type": "bytes32"
        }
      ],
      "stateMutability": "pure",
      "type": "function",
      "constant": true
    },
    {
      "inputs": [
        {
          "internalType": "uint256",
          "name": "_input",
          "type": "uint256"
        }
      ],
      "name": "bitLength",
      "outputs": [
        {
          "internalType": "uint256",
          "name": "",
          "type": "uint256"
        }
      ],
      "stateMutability": "pure",
      "type": "function",
      "constant": true
    },
    {
      "inputs": [
        {
          "internalType": "uint256",
          "name": "_input",
          "type": "uint256"
        }
      ],
      "name": "nextPowOfTwo",
      "outputs": [
        {
          "internalType": "uint256",
          "name": "",
          "type": "uint256"
        }
      ],
      "stateMutability": "pure",
      "type": "function",
      "constant": true
    },
    {
      "inputs": [
        {
          "internalType": "uint256",
          "name": "_input",
          "type": "uint256"
        }
      ],
      "name": "floorLog2",
      "outputs": [
        {
          "internalType": "uint256",
          "name": "",
          "type": "uint256"
        }
      ],
      "stateMutability": "pure",
      "type": "function",
      "constant": true
    },
    {
      "inputs": [
        {
          "internalType": "bytes32[2]",
          "name": "_chunks",
          "type": "bytes32[2]"
        }
      ],
      "name": "merkleize",
      "outputs": [
        {
          "internalType": "bytes32",
          "name": "",
          "type": "bytes32"
        }
      ],
      "stateMutability": "pure",
      "type": "function",
      "constant": true
    },
    {
      "inputs": [
        {
          "internalType": "bytes[2]",
          "name": "_syncCommittee",
          "type": "bytes[2]"
        },
        {
          "internalType": "bytes",
          "name": "_syncAggregate",
          "type": "bytes"
        }
      ],
      "name": "hashTreeRootSyncCommittee",
      "outputs": [
        {
          "internalType": "bytes32",
          "name": "",
          "type": "bytes32"
        }
      ],
      "stateMutability": "pure",
      "type": "function",
      "constant": true
    },
    {
      "inputs": [
        {
          "internalType": "uint256",
          "name": "_generalizedIndex",
          "type": "uint256"
        }
      ],
      "name": "getSubtreeIndex",
      "outputs": [
        {
          "internalType": "uint256",
          "name": "",
          "type": "uint256"
        }
      ],
      "stateMutability": "pure",
      "type": "function",
      "constant": true
    },
    {
      "inputs": [
        {
          "internalType": "bytes32",
          "name": "_root",
          "type": "bytes32"
        },
        {
          "internalType": "bytes32",
          "name": "_leaf",
          "type": "bytes32"
        },
        {
          "internalType": "uint256",
          "name": "_generalizedIndex",
          "type": "uint256"
        },
        {
          "internalType": "bytes32[]",
          "name": "_branch",
          "type": "bytes32[]"
        }
      ],
      "name": "validateMerkleBranch",
      "outputs": [
        {
          "internalType": "bool",
          "name": "",
          "type": "bool"
        }
      ],
      "stateMutability": "pure",
      "type": "function",
      "constant": true
    }
  ],
  "bytecode": "0x60806040523480156200001157600080fd5b5060405162003e9138038062003e91833981810160405281019062000037919062000463565b8a6000806101000a81548167ffffffffffffffff021916908367ffffffffffffffff16021790555089600060086101000a81548167ffffffffffffffff021916908367ffffffffffffffff1602179055508860019060026200009b9291906200017c565b508760039080519060200190620000b4929190620001d6565b50866004906002620000c89291906200017c565b508560069080519060200190620000e1929190620001d6565b508460078190555081600960006101000a81548167ffffffffffffffff021916908367ffffffffffffffff16021790555080600960086101000a81548167ffffffffffffffff021916908367ffffffffffffffff16021790555082600960106101000a81548167ffffffffffffffff021916908367ffffffffffffffff160217905550836008819055505050505050505050505050620007f0565b8260028101928215620001c3579160200282015b82811115620001c2578251829080519060200190620001b1929190620001d6565b509160200191906001019062000190565b5b509050620001d2919062000267565b5090565b828054620001e490620006c8565b90600052602060002090601f01602090048101928262000208576000855562000254565b82601f106200022357805160ff191683800117855562000254565b8280016001018555821562000254579182015b828111156200025357825182559160200191906001019062000236565b5b5090506200026391906200028f565b5090565b5b808211156200028b5760008181620002819190620002ae565b5060010162000268565b5090565b5b80821115620002aa57600081600090555060010162000290565b5090565b508054620002bc90620006c8565b6000825580601f10620002d05750620002f1565b601f016020900490600052602060002090810190620002f091906200028f565b5b50565b60006200030b620003058462000615565b620005ec565b9050808285602086028201111562000328576200032762000797565b5b60005b858110156200037d57815167ffffffffffffffff81111562000352576200035162000792565b5b80860162000361898262000419565b855260208501945060208401935050506001810190506200032b565b5050509392505050565b60006200039e62000398846200063e565b620005ec565b905082815260208101848484011115620003bd57620003bc6200079c565b5b620003ca84828562000692565b509392505050565b600082601f830112620003ea57620003e962000792565b5b6002620003f9848285620002f4565b91505092915050565b6000815190506200041381620007bc565b92915050565b600082601f83011262000431576200043062000792565b5b81516200044384826020860162000387565b91505092915050565b6000815190506200045d81620007d6565b92915050565b60008060008060008060008060008060006101608c8e0312156200048c576200048b620007a6565b5b60006200049c8e828f016200044c565b9b50506020620004af8e828f016200044c565b9a505060408c015167ffffffffffffffff811115620004d357620004d2620007a1565b5b620004e18e828f01620003d2565b99505060608c015167ffffffffffffffff811115620005055762000504620007a1565b5b620005138e828f0162000419565b98505060808c015167ffffffffffffffff811115620005375762000536620007a1565b5b620005458e828f01620003d2565b97505060a08c015167ffffffffffffffff811115620005695762000568620007a1565b5b620005778e828f0162000419565b96505060c06200058a8e828f0162000402565b95505060e06200059d8e828f0162000402565b945050610100620005b18e828f016200044c565b935050610120620005c58e828f016200044c565b925050610140620005d98e828f016200044c565b9150509295989b509295989b9093969950565b6000620005f86200060b565b9050620006068282620006fe565b919050565b6000604051905090565b600067ffffffffffffffff82111562000633576200063262000763565b5b602082029050919050565b600067ffffffffffffffff8211156200065c576200065b62000763565b5b6200066782620007ab565b9050602081019050919050565b6000819050919050565b600067ffffffffffffffff82169050919050565b60005b83811015620006b257808201518184015260208101905062000695565b83811115620006c2576000848401525b50505050565b60006002820490506001821680620006e157607f821691505b60208210811415620006f857620006f762000734565b5b50919050565b6200070982620007ab565b810181811067ffffffffffffffff821117156200072b576200072a62000763565b5b80604052505050565b7f4e487b7100000000000000000000000000000000000000000000000000000000600052602260045260246000fd5b7f4e487b7100000000000000000000000000000000000000000000000000000000600052604160045260246000fd5b600080fd5b600080fd5b600080fd5b600080fd5b600080fd5b6000601f19601f8301169050919050565b620007c78162000674565b8114620007d357600080fd5b50565b620007e1816200067e565b8114620007ed57600080fd5b50565b61369180620008006000396000f3fe608060405234801561001057600080fd5b506004361061018e5760003560e01c80637e7f232a116100de578063bfe370d911610097578063e41bbcf811610071578063e41bbcf81461057d578063e92938ab146105ad578063f218850e146105dd578063f4260a5f1461060d5761018e565b8063bfe370d9146104ed578063c36a13da1461051d578063db96e1fc1461054d5761018e565b80637e7f232a146103cd57806382152433146103fd5780639eb51fce1461042d578063a9755eb11461045d578063b1e9f2a01461048d578063b8ffb2e3146104bd5761018e565b806345b8bafc1161014b5780635c552879116101255780635c5528791461031f578063639f30c31461034f5780636e1e76b91461036d5780637b9e62001461039d5761018e565b806345b8bafc146102a15780634c0999c7146102d157806356f07c06146103015761018e565b80632c26bfd4146101935780632f717fba146101b1578063398fd9d4146101e15780633c7f56bc146102115780633fccb97b14610241578063404c2a7114610271575b600080fd5b61019b61063d565b6040516101a891906129cc565b60405180910390f35b6101cb60048036038101906101c691906121b5565b610647565b6040516101d89190612b64565b60405180910390f35b6101fb60048036038101906101f691906124f8565b6106aa565b60405161020891906129b1565b60405180910390f35b61022b6004803603810190610226919061227e565b610702565b60405161023891906129cc565b60405180910390f35b61025b600480360381019061025691906125b9565b610797565b6040516102689190612b64565b60405180910390f35b61028b600480360381019061028691906125e6565b6107bc565b60405161029891906129cc565b60405180910390f35b6102bb60048036038101906102b691906125b9565b6107ec565b6040516102c89190612b64565b60405180910390f35b6102eb60048036038101906102e69190612323565b61084e565b6040516102f89190612a02565b60405180910390f35b610309610877565b60405161031691906129cc565b60405180910390f35b610339600480360381019061033491906124f8565b610881565b60405161034691906129e7565b60405180910390f35b6103576108a5565b6040516103649190612b7f565b60405180910390f35b610387600480360381019061038291906124cb565b6108c3565b60405161039491906129e7565b60405180910390f35b6103b760048036038101906103b2919061237d565b6109ac565b6040516103c49190612a02565b60405180910390f35b6103e760048036038101906103e29190612440565b6109d8565b6040516103f49190612a02565b60405180910390f35b6104176004803603810190610412919061220f565b610ade565b604051610424919061298f565b60405180910390f35b6104476004803603810190610442919061237d565b610bc1565b60405161045491906129cc565b60405180910390f35b610477600480360381019061047291906122f6565b610c24565b6040516104849190612a02565b60405180910390f35b6104a760048036038101906104a291906125b9565b610c4d565b6040516104b49190612b64565b60405180910390f35b6104d760048036038101906104d291906125b9565b610c76565b6040516104e49190612b64565b60405180910390f35b610507600480360381019061050291906124f8565b610cb2565b60405161051491906129cc565b60405180910390f35b610537600480360381019061053291906124f8565b610cd5565b60405161054491906129cc565b60405180910390f35b61056760048036038101906105629190612541565b610d5a565b60405161057491906129b1565b60405180910390f35b610597600480360381019061059291906125b9565b61135a565b6040516105a49190612b64565b60405180910390f35b6105c760048036038101906105c2919061237d565b61138d565b6040516105d491906129cc565b60405180910390f35b6105f760048036038101906105f291906123bd565b6113a1565b60405161060491906129b1565b60405180910390f35b610627600480360381019061062291906121e2565b61150c565b60405161063491906129cc565b60405180910390f35b6000600754905090565b6000806000905060005b60028110156106a0576001151584826002811061067157610670613242565b5b60200201511515141561068d57818061068990613127565b9250505b808061069890613127565b915050610651565b5080915050919050565b60006001156106bc57600190506106fd565b6106c46117ca565b6040518351602083826020880160055afa6106de57600080fd5b5050806000600181106106f4576106f3613242565b5b60200201519150505b919050565b600061070c6117ec565b60005b60028110156107675761073885826002811061072e5761072d613242565b5b6020020151610cd5565b82826002811061074b5761074a613242565b5b602002018181525050808061075f90613127565b91505061070f565b5060006107738261150c565b905060006107898261078487610cd5565b610bc1565b905080935050505092915050565b6000635fc63057600c836107ab9190612f34565b6107b59190612d3c565b9050919050565b60006107ca8260c01b6108c3565b77ffffffffffffffffffffffffffffffffffffffffffffffff19169050919050565b60006001821015610832576040517f08c379a000000000000000000000000000000000000000000000000000000000815260040161082990612a64565b60405180910390fd5b600161083d8361135a565b6108479190612f8e565b9050919050565b6060816040516020016108619190612931565b6040516020818303038152906040529050919050565b6000600854905090565b6000808251141561089857600060c01b90506108a0565b602082015190505b919050565b6000600960089054906101000a900467ffffffffffffffff16905090565b600080600867ffffffffffffffff8111156108e1576108e0613271565b5b6040519080825280601f01601f1916602001820160405280156109135781602001600182028036833780820191505090505b50905060005b600881101561099a5783816008811061093557610934613242565b5b1a60f81b828260076109479190612f8e565b8151811061095857610957613242565b5b60200101907effffffffffffffffffffffffffffffffffffffffffffffffffffffffffffff1916908160001a905350808061099290613127565b915050610919565b506109a481610881565b915050919050565b606082826040516020016109c192919061294c565b604051602081830303815290604052905092915050565b60606000825160f01b905060008067ffffffffffffffff8111156109ff576109fe613271565b5b6040519080825280601f01601f191660200182016040528015610a315781602001600182028036833780820191505090505b509050610a4f610a408761084e565b8261162290919063ffffffff16565b9050610a64858261162290919063ffffffff16565b9050610a81610a7283610c24565b8261162290919063ffffffff16565b905060005b8451811015610ad157610abc858281518110610aa557610aa4613242565b5b60200260200101518361162290919063ffffffff16565b91508080610ac990613127565b915050610a86565b5080925050509392505050565b606060008267ffffffffffffffff811115610afc57610afb613271565b5b604051908082528060200260200182016040528015610b2f57816020015b6060815260200190600190039081610b1a5790505b5090506000805b6002811015610bb457858160028110610b5257610b51613242565b5b602002015115610ba157868160028110610b6f57610b6e613242565b5b6020020151838381518110610b8757610b86613242565b5b60200260200101819052508180610b9d90613127565b9250505b8080610bac90613127565b915050610b36565b5081925050509392505050565b60006002610bcf84846109ac565b604051610bdc9190612978565b602060405180830381855afa158015610bf9573d6000803e3d6000fd5b5050506040513d601f19601f82011682018060405250810190610c1c9190612350565b905092915050565b606081604051602001610c379190612916565b6040516020818303038152906040529050919050565b6000610c58826107ec565b6002610c649190612e16565b82610c6f9190613184565b9050919050565b600080821415610c895760019050610cad565b610c9e600183610c999190612f8e565b61135a565b6002610caa9190612e16565b90505b919050565b60008082511415610cc8576000801b9050610cd0565b602082015190505b919050565b600080610cef60006020856116ac9092919063ffffffff16565b90506000610d0a60206010866116ac9092919063ffffffff16565b9050610d3560405180604001604052806010815260200160008152508261162290919063ffffffff16565b9050610d51610d4383610cb2565b610d4c83610cb2565b610bc1565b92505050919050565b600080610d6f8460400151856060015161138d565b90506000610d808560200151610647565b905060008054906101000a900467ffffffffffffffff1667ffffffffffffffff16811015610de3576040517f08c379a0000000000000000000000000000000000000000000000000000000008152600401610dda90612ac4565b60405180910390fd5b610dfe8560400151866101800151600b886101a001516113a1565b610e3d576040517f08c379a0000000000000000000000000000000000000000000000000000000008152600401610e3490612b44565b60405180910390fd5b610e5e8560400151610e5287608001516107bc565b60088860a001516113a1565b50610e828560c00151610e758761010001516107bc565b60088861012001516113a1565b50610e9e8560c00151866101400151600b8861016001516113a1565b610edd576040517f08c379a0000000000000000000000000000000000000000000000000000000008152600401610ed490612a24565b60405180910390fd5b6000600960089054906101000a900467ffffffffffffffff168660800151610f059190612fc2565b67ffffffffffffffff16905060006102006020610f229190612f34565b82610f2d9190612d92565b141561105b5761101761101284886000015161100d6001600280602002604051908101604052809291906000905b82821015610ffe578382018054610f71906130c4565b80601f0160208091040260200160405190810160405280929190818152602001828054610f9d906130c4565b8015610fea5780601f10610fbf57610100808354040283529160200191610fea565b820191906000526020600020905b815481529060010190602001808311610fcd57829003601f168201915b505050505081526020019060010190610f5b565b505050508b6020015188610ade565b6109d8565b6106aa565b611056576040517f08c379a000000000000000000000000000000000000000000000000000000000815260040161104d90612aa4565b60405180910390fd5b6112db565b6001610200602061106c9190612f34565b826110779190612d92565b141561129f5761116161115c8488600001516111576004600280602002604051908101604052809291906000905b828210156111485783820180546110bb906130c4565b80601f01602080910402602001604051908101604052809291908181526020018280546110e7906130c4565b80156111345780601f1061110957610100808354040283529160200191611134565b820191906000526020600020905b81548152906001019060200180831161111757829003601f168201915b5050505050815260200190600101906110a5565b505050508b6020015188610ade565b6109d8565b6106aa565b6111a0576040517f08c379a000000000000000000000000000000000000000000000000000000000815260040161119790612b24565b60405180910390fd5b60006111b486600001518760200151610702565b90506111cc87610140015182603789604001516113a1565b61120b576040517f08c379a000000000000000000000000000000000000000000000000000000000815260040161120290612a44565b60405180910390fd5b6004600190600261121d92919061180e565b506006600390805461122e906130c4565b611239929190611861565b508560000151600490600261124f9291906118ee565b5085602001516006908051906020019061126a929190611941565b50866101000151600960086101000a81548167ffffffffffffffff021916908367ffffffffffffffff160217905550506112da565b6040517f08c379a00000000000000000000000000000000000000000000000000000000081526004016112d190612b04565b60405180910390fd5b5b8560c001516007819055508561014001516008819055508560800151600960006101000a81548167ffffffffffffffff021916908367ffffffffffffffff160217905550856101000151600960106101000a81548167ffffffffffffffff021916908367ffffffffffffffff1602179055506001935050505092915050565b600080600090505b6000831461138457600183901c9250808061137c90613127565b915050611362565b80915050919050565b60006113998383610bc1565b905092915050565b6000806113ad84610c4d565b905060006113ba856107ec565b9050600086905060005b828110156114fb57600160028260026113dd9190612e16565b866113e89190612d92565b6113f29190613184565b141561147257600261141e8783815181106114105761140f613242565b5b6020026020010151846109ac565b60405161142b9190612978565b602060405180830381855afa158015611448573d6000803e3d6000fd5b5050506040513d601f19601f8201168201806040525081019061146b9190612350565b91506114e8565b60026114988388848151811061148b5761148a613242565b5b60200260200101516109ac565b6040516114a59190612978565b602060405180830381855afa1580156114c2573d6000803e3d6000fd5b5050506040513d601f19601f820116820180604052508101906114e59190612350565b91505b80806114f390613127565b9150506113c4565b508781149350505050949350505050565b6000806115196002610c76565b90506000600290505b8181101561153d57808061153590613127565b915050611522565b5060005b61154a826107ec565b8110156116005760008160026115609190612e16565b905060005b838110156115eb576115b086826002811061158357611582613242565b5b60200201518784846115959190612d3c565b600281106115a6576115a5613242565b5b6020020151610bc1565b8682600281106115c3576115c2613242565b5b6020020181815250506002826115d99190612f34565b816115e49190612d3c565b9050611565565b505080806115f890613127565b915050611541565b508260006002811061161557611614613242565b5b6020020151915050919050565b6060806040519050835180825260208201818101602087015b81831015611658578051835260208301925060208101905061163b565b50855192508351830184528091508282019050602086015b8183101561168d5780518352602083019250602081019050611670565b50601f19601f8851850115830101166040525050508091505092915050565b606081601f836116bc9190612d3c565b10156116fd576040517f08c379a00000000000000000000000000000000000000000000000000000000081526004016116f490612a84565b60405180910390fd5b81836117099190612d3c565b8451101561174c576040517f08c379a000000000000000000000000000000000000000000000000000000000815260040161174390612ae4565b60405180910390fd5b606082156000811461176d57604051915060008252602082016040526117be565b6040519150601f8416801560200281840101858101878315602002848b0101015b818310156117ab578051835260208301925060208101905061178e565b50868552601f19601f8301166040525050505b50809150509392505050565b6040518060200160405280600190602082028036833780820191505090505090565b6040518060400160405280600290602082028036833780820191505090505090565b8260028101928215611850579182015b8281111561184f578282908054611834906130c4565b61183f9291906119c7565b509160010191906001019061181e565b5b50905061185d9190611a54565b5090565b82805461186d906130c4565b90600052602060002090601f01602090048101928261188f57600085556118dd565b82601f106118a057805485556118dd565b828001600101855582156118dd57600052602060002091601f016020900482015b828111156118dc5782548255916001019190600101906118c1565b5b5090506118ea9190611a78565b5090565b8260028101928215611930579160200282015b8281111561192f57825182908051906020019061191f929190611941565b5091602001919060010190611901565b5b50905061193d9190611a54565b5090565b82805461194d906130c4565b90600052602060002090601f01602090048101928261196f57600085556119b6565b82601f1061198857805160ff19168380011785556119b6565b828001600101855582156119b6579182015b828111156119b557825182559160200191906001019061199a565b5b5090506119c39190611a78565b5090565b8280546119d3906130c4565b90600052602060002090601f0160209004810192826119f55760008555611a43565b82601f10611a065780548555611a43565b82800160010185558215611a4357600052602060002091601f016020900482015b82811115611a42578254825591600101919060010190611a27565b5b509050611a509190611a78565b5090565b5b80821115611a745760008181611a6b9190611a95565b50600101611a55565b5090565b5b80821115611a91576000816000905550600101611a79565b5090565b508054611aa1906130c4565b6000825580601f10611ab35750611ad2565b601f016020900490600052602060002090810190611ad19190611a78565b5b50565b6000611ae8611ae384612bbf565b612b9a565b90508082856020860282011115611b0257611b016132af565b5b60005b85811015611b325781611b188882611e45565b845260208401935060208301925050600181019050611b05565b5050509392505050565b6000611b4f611b4a84612be5565b612b9a565b90508082856020860282011115611b6957611b686132af565b5b60005b85811015611b995781611b7f8882611e6f565b845260208401935060208301925050600181019050611b6c565b5050509392505050565b6000611bb6611bb184612c0b565b612b9a565b90508083825260208201905082856020860282011115611bd957611bd86132af565b5b60005b85811015611c095781611bef8882611e6f565b845260208401935060208301925050600181019050611bdc565b5050509392505050565b6000611c26611c2184612c37565b612b9a565b90508082856020860282011115611c4057611c3f6132af565b5b60005b85811015611c8e57813567ffffffffffffffff811115611c6657611c656132a0565b5b808601611c738982611eae565b85526020850194506020840193505050600181019050611c43565b5050509392505050565b6000611cab611ca684612c5d565b612b9a565b90508083825260208201905082856020860282011115611cce57611ccd6132af565b5b60005b85811015611d1c57813567ffffffffffffffff811115611cf457611cf36132a0565b5b808601611d018982611eae565b85526020850194506020840193505050600181019050611cd1565b5050509392505050565b6000611d39611d3484612c89565b612b9a565b905082815260208101848484011115611d5557611d546132b4565b5b611d60848285613082565b509392505050565b600082601f830112611d7d57611d7c6132a0565b5b6002611d8a848285611ad5565b91505092915050565b600082601f830112611da857611da76132a0565b5b6002611db5848285611b3c565b91505092915050565b600082601f830112611dd357611dd26132a0565b5b8135611de3848260208601611ba3565b91505092915050565b600082601f830112611e0157611e006132a0565b5b6002611e0e848285611c13565b91505092915050565b600082601f830112611e2c57611e2b6132a0565b5b8135611e3c848260208601611c98565b91505092915050565b600081359050611e54816135d1565b92915050565b600081359050611e69816135e8565b92915050565b600081359050611e7e816135ff565b92915050565b600081519050611e93816135ff565b92915050565b600081359050611ea881613616565b92915050565b600082601f830112611ec357611ec26132a0565b5b8135611ed3848260208601611d26565b91505092915050565b60006101e08284031215611ef357611ef26132a5565b5b611efe6101c0612b9a565b9050600082013567ffffffffffffffff811115611f1e57611f1d6132aa565b5b611f2a84828501611eae565b6000830152506020611f3e84828501611d68565b6020830152506060611f5284828501611e6f565b6040830152506080611f6684828501611e6f565b60608301525060a0611f7a848285016121a0565b60808301525060c082013567ffffffffffffffff811115611f9e57611f9d6132aa565b5b611faa84828501611dbe565b60a08301525060e0611fbe84828501611e6f565b60c08301525061010082013567ffffffffffffffff811115611fe357611fe26132aa565b5b611fef84828501611dbe565b60e083015250610120612004848285016121a0565b6101008301525061014082013567ffffffffffffffff81111561202a576120296132aa565b5b61203684828501611dbe565b6101208301525061016061204c84828501611e6f565b6101408301525061018082013567ffffffffffffffff811115612072576120716132aa565b5b61207e84828501611dbe565b610160830152506101a061209484828501611e6f565b610180830152506101c082013567ffffffffffffffff8111156120ba576120b96132aa565b5b6120c684828501611dbe565b6101a08301525092915050565b6000606082840312156120e9576120e86132a5565b5b6120f36060612b9a565b9050600082013567ffffffffffffffff811115612113576121126132aa565b5b61211f84828501611dec565b600083015250602082013567ffffffffffffffff811115612143576121426132aa565b5b61214f84828501611eae565b602083015250604082013567ffffffffffffffff811115612173576121726132aa565b5b61217f84828501611dbe565b60408301525092915050565b60008135905061219a8161362d565b92915050565b6000813590506121af81613644565b92915050565b6000604082840312156121cb576121ca6132be565b5b60006121d984828501611d68565b91505092915050565b6000604082840312156121f8576121f76132be565b5b600061220684828501611d93565b91505092915050565b600080600060808486031215612228576122276132be565b5b600084013567ffffffffffffffff811115612246576122456132b9565b5b61225286828701611dec565b935050602061226386828701611d68565b92505060606122748682870161218b565b9150509250925092565b60008060408385031215612295576122946132be565b5b600083013567ffffffffffffffff8111156122b3576122b26132b9565b5b6122bf85828601611dec565b925050602083013567ffffffffffffffff8111156122e0576122df6132b9565b5b6122ec85828601611eae565b9150509250929050565b60006020828403121561230c5761230b6132be565b5b600061231a84828501611e5a565b91505092915050565b600060208284031215612339576123386132be565b5b600061234784828501611e6f565b91505092915050565b600060208284031215612366576123656132be565b5b600061237484828501611e84565b91505092915050565b60008060408385031215612394576123936132be565b5b60006123a285828601611e6f565b92505060206123b385828601611e6f565b9150509250929050565b600080600080608085870312156123d7576123d66132be565b5b60006123e587828801611e6f565b94505060206123f687828801611e6f565b93505060406124078782880161218b565b925050606085013567ffffffffffffffff811115612428576124276132b9565b5b61243487828801611dbe565b91505092959194509250565b600080600060608486031215612459576124586132be565b5b600061246786828701611e6f565b935050602084013567ffffffffffffffff811115612488576124876132b9565b5b61249486828701611eae565b925050604084013567ffffffffffffffff8111156124b5576124b46132b9565b5b6124c186828701611e17565b9150509250925092565b6000602082840312156124e1576124e06132be565b5b60006124ef84828501611e99565b91505092915050565b60006020828403121561250e5761250d6132be565b5b600082013567ffffffffffffffff81111561252c5761252b6132b9565b5b61253884828501611eae565b91505092915050565b60008060408385031215612558576125576132be565b5b600083013567ffffffffffffffff811115612576576125756132b9565b5b61258285828601611edc565b925050602083013567ffffffffffffffff8111156125a3576125a26132b9565b5b6125af858286016120d3565b9150509250929050565b6000602082840312156125cf576125ce6132be565b5b60006125dd8482850161218b565b91505092915050565b6000602082840312156125fc576125fb6132be565b5b600061260a848285016121a0565b91505092915050565b600061261f83836126f7565b905092915050565b600061263282612cca565b61263c8185612ced565b93508360208202850161264e85612cba565b8060005b8581101561268a578484038952815161266b8582612613565b945061267683612ce0565b925060208a01995050600181019050612652565b50829750879550505050505092915050565b6126a581612ff6565b82525050565b6126bc6126b782613002565b613170565b82525050565b6126cb8161302e565b82525050565b6126e26126dd8261302e565b61317a565b82525050565b6126f181613038565b82525050565b600061270282612cd5565b61270c8185612cfe565b935061271c818560208601613091565b612725816132c3565b840191505092915050565b600061273b82612cd5565b6127458185612d0f565b9350612755818560208601613091565b61275e816132c3565b840191505092915050565b600061277482612cd5565b61277e8185612d20565b935061278e818560208601613091565b80840191505092915050565b60006127a7602f83612d2b565b91506127b2826132e1565b604082019050919050565b60006127ca603283612d2b565b91506127d582613330565b604082019050919050565b60006127ed603283612d2b565b91506127f88261337f565b604082019050919050565b6000612810600e83612d2b565b915061281b826133ce565b602082019050919050565b6000612833602d83612d2b565b915061283e826133f7565b604082019050919050565b6000612856602183612d2b565b915061286182613446565b604082019050919050565b6000612879601183612d2b565b915061288482613495565b602082019050919050565b600061289c605083612d2b565b91506128a7826134be565b606082019050919050565b60006128bf602a83612d2b565b91506128ca82613533565b604082019050919050565b60006128e2602c83612d2b565b91506128ed82613582565b604082019050919050565b61290181613064565b82525050565b6129108161306e565b82525050565b600061292282846126ab565b60028201915081905092915050565b600061293d82846126d1565b60208201915081905092915050565b600061295882856126d1565b60208201915061296882846126d1565b6020820191508190509392505050565b60006129848284612769565b915081905092915050565b600060208201905081810360008301526129a98184612627565b905092915050565b60006020820190506129c6600083018461269c565b92915050565b60006020820190506129e160008301846126c2565b92915050565b60006020820190506129fc60008301846126e8565b92915050565b60006020820190508181036000830152612a1c8184612730565b905092915050565b60006020820190508181036000830152612a3d8161279a565b9050919050565b60006020820190508181036000830152612a5d816127bd565b9050919050565b60006020820190508181036000830152612a7d816127e0565b9050919050565b60006020820190508181036000830152612a9d81612803565b9050919050565b60006020820190508181036000830152612abd81612826565b9050919050565b60006020820190508181036000830152612add81612849565b9050919050565b60006020820190508181036000830152612afd8161286c565b9050919050565b60006020820190508181036000830152612b1d8161288f565b9050919050565b60006020820190508181036000830152612b3d816128b2565b9050919050565b60006020820190508181036000830152612b5d816128d5565b9050919050565b6000602082019050612b7960008301846128f8565b92915050565b6000602082019050612b946000830184612907565b92915050565b6000612ba4612bb5565b9050612bb082826130f6565b919050565b6000604051905090565b600067ffffffffffffffff821115612bda57612bd9613271565b5b602082029050919050565b600067ffffffffffffffff821115612c0057612bff613271565b5b602082029050919050565b600067ffffffffffffffff821115612c2657612c25613271565b5b602082029050602081019050919050565b600067ffffffffffffffff821115612c5257612c51613271565b5b602082029050919050565b600067ffffffffffffffff821115612c7857612c77613271565b5b602082029050602081019050919050565b600067ffffffffffffffff821115612ca457612ca3613271565b5b612cad826132c3565b9050602081019050919050565b6000819050602082019050919050565b600081519050919050565b600081519050919050565b6000602082019050919050565b600082825260208201905092915050565b600082825260208201905092915050565b600082825260208201905092915050565b600081905092915050565b600082825260208201905092915050565b6000612d4782613064565b9150612d5283613064565b9250827fffffffffffffffffffffffffffffffffffffffffffffffffffffffffffffffff03821115612d8757612d866131b5565b5b828201905092915050565b6000612d9d82613064565b9150612da883613064565b925082612db857612db76131e4565b5b828204905092915050565b6000808291508390505b6001851115612e0d57808604811115612de957612de86131b5565b5b6001851615612df85780820291505b8081029050612e06856132d4565b9450612dcd565b94509492505050565b6000612e2182613064565b9150612e2c83613064565b9250612e597fffffffffffffffffffffffffffffffffffffffffffffffffffffffffffffffff8484612e61565b905092915050565b600082612e715760019050612f2d565b81612e7f5760009050612f2d565b8160018114612e955760028114612e9f57612ece565b6001915050612f2d565b60ff841115612eb157612eb06131b5565b5b8360020a915084821115612ec857612ec76131b5565b5b50612f2d565b5060208310610133831016604e8410600b8410161715612f035782820a905083811115612efe57612efd6131b5565b5b612f2d565b612f108484846001612dc3565b92509050818404811115612f2757612f266131b5565b5b81810290505b9392505050565b6000612f3f82613064565b9150612f4a83613064565b9250817fffffffffffffffffffffffffffffffffffffffffffffffffffffffffffffffff0483118215151615612f8357612f826131b5565b5b828202905092915050565b6000612f9982613064565b9150612fa483613064565b925082821015612fb757612fb66131b5565b5b828203905092915050565b6000612fcd8261306e565b9150612fd88361306e565b925082821015612feb57612fea6131b5565b5b828203905092915050565b60008115159050919050565b60007fffff00000000000000000000000000000000000000000000000000000000000082169050919050565b6000819050919050565b60007fffffffffffffffff00000000000000000000000000000000000000000000000082169050919050565b6000819050919050565b600067ffffffffffffffff82169050919050565b82818337600083830152505050565b60005b838110156130af578082015181840152602081019050613094565b838111156130be576000848401525b50505050565b600060028204905060018216806130dc57607f821691505b602082108114156130f0576130ef613213565b5b50919050565b6130ff826132c3565b810181811067ffffffffffffffff8211171561311e5761311d613271565b5b80604052505050565b600061313282613064565b91507fffffffffffffffffffffffffffffffffffffffffffffffffffffffffffffffff821415613165576131646131b5565b5b600182019050919050565b6000819050919050565b6000819050919050565b600061318f82613064565b915061319a83613064565b9250826131aa576131a96131e4565b5b828206905092915050565b7f4e487b7100000000000000000000000000000000000000000000000000000000600052601160045260246000fd5b7f4e487b7100000000000000000000000000000000000000000000000000000000600052601260045260246000fd5b7f4e487b7100000000000000000000000000000000000000000000000000000000600052602260045260246000fd5b7f4e487b7100000000000000000000000000000000000000000000000000000000600052603260045260246000fd5b7f4e487b7100000000000000000000000000000000000000000000000000000000600052604160045260246000fd5b600080fd5b600080fd5b600080fd5b600080fd5b600080fd5b600080fd5b600080fd5b6000601f19601f8301169050919050565b60008160011c9050919050565b7f6d65726b6c652070726f6f6620666f722066696e616c697a656420737461746560008201527f20726f6f74206e6f742076616c69640000000000000000000000000000000000602082015250565b7f6d65726b6c652070726f6f66206f66206e657874206e6578742073796e63206360008201527f6f6d6d6974746565206e6f742076616c69640000000000000000000000000000602082015250565b7f5f696e70757420746f20666c6f6f724c6f6732206d757374206265206c61726760008201527f6572206f7220657175616c207468616e20310000000000000000000000000000602082015250565b7f736c6963655f6f766572666c6f77000000000000000000000000000000000000600082015250565b7f7369676e61747572652062792063757272656e742073796e6320636f6d6d697460008201527f746565206e6f742076616c696400000000000000000000000000000000000000602082015250565b7f6e6f7420656e6f756768207369676e6174757265207061727469636970616e7460008201527f7300000000000000000000000000000000000000000000000000000000000000602082015250565b7f736c6963655f6f75744f66426f756e6473000000000000000000000000000000600082015250565b7f6c617465737420736c6f7420646f6573206e6f7420696e64696361746520746860008201527f61742063757272656e74206f72206e6578742073796e6320636f6d6d6974746560208201527f6520697320726573706f6e7369626c6500000000000000000000000000000000604082015250565b7f7369676e6174757265206279206e6578742073796e6320636f6d6d697474656560008201527f206e6f742076616c696400000000000000000000000000000000000000000000602082015250565b7f6d65726b6c652070726f6f6620666f72206c617465737420737461746520726f60008201527f6f74206e6f742076616c69640000000000000000000000000000000000000000602082015250565b6135da81612ff6565b81146135e557600080fd5b50565b6135f181613002565b81146135fc57600080fd5b50565b6136088161302e565b811461361357600080fd5b50565b61361f81613038565b811461362a57600080fd5b50565b61363681613064565b811461364157600080fd5b50565b61364d8161306e565b811461365857600080fd5b5056fea2646970667358221220d26dea8cb3919053e16e5fb42a481d85e23c437409941c2c6c9094d209d8f04064736f6c63430008060033",
  "immutableReferences": {},
  "source": "// SPDX-License-Identifier: UNLICENSED\npragma solidity >=0.8.0 <0.9.0;\n\nimport \"bytes/BytesLib.sol\";\n\n// debug settings\nbool constant MOCK_BLS_PRECOMPILE = true;\n\n// magic numbers\nuint constant FIRST_BEACON_BLOCK_UNIX_TIMESTAMP = 1606824023;\n\n// eth2 mainnet configuration\nuint constant SYNC_COMMITTEE_SIZE = 2;\nuint constant SECONDS_PER_SLOT = 12;\nuint constant SLOTS_PER_EPOCH = 32;\nuint constant EPOCHS_PER_SYNC_COMMITTEE_PERIOD = 512;\n\n// SSZ generalized indices\nuint constant FINALIZED_ROOT_INDEX = 105;\nuint constant FINALIZED_EPOCH_INDEX = 104;\nuint constant NEXT_SYNC_COMMITTEE_INDEX = 55;\nuint constant NEXT_SYNC_COMMITTEE_PUBKEYS_INDEX = 110;\nuint constant SLOT_INDEX = 8;\nuint constant STATE_ROOT_INDEX = 11;\n\nstruct ChainRelayUpdate {\n    bytes signature;\n    bool[SYNC_COMMITTEE_SIZE] participants;\n    bytes32 latestBlockRoot;\n    bytes32 signingDomain;\n    uint64 latestSlot;\n    bytes32[] latestSlotBranch; \n    bytes32 finalizedBlockRoot; \n    bytes32[] finalizingBranch; \n    uint64 finalizedSlot; \n    bytes32[] finalizedSlotBranch; \n    bytes32 finalizedStateRoot;\n    bytes32[] finalizedStateRootBranch;\n    bytes32 stateRoot;\n    bytes32[] stateRootBranch; \n}\n\nstruct SyncCommitteeUpdate {\n    bytes[SYNC_COMMITTEE_SIZE] nextNextValidatorSet;\n    bytes nextNextValidatorSetAggregate;\n    bytes32[] nextNextValidatorSetBranch;\n}\n\n/** \n * @title Chain Relay\n * @dev Implements a chain relay/light client for eth2 consensus post-altair (including sync committees)\n */\ncontract Eth2ChainRelay_2 {\n    using BytesLib for bytes;\n\n    uint64 private signatureThreshold; // 0 < signatureThreshold <= 512\n    uint64 private trustingPeriod; // validators are trusted for a certain time, ensuring they have not exited the validator set, in unix time\n    bytes[SYNC_COMMITTEE_SIZE] private currentValidatorSet;\n    bytes private currentValidatorSetAggregate;\n    bytes[SYNC_COMMITTEE_SIZE] private nextValidatorSet;\n    bytes private nextValidatorSetAggregate;\n    bytes32 private finalizedBlockRoot;\n    bytes32 private finalizedStateRoot; \n    uint64 private latestSlot;\n    uint64 private latestSlotWithValidatorSetChange;\n    uint64 private finalizedSlot;\n    \n    constructor(uint64 _signatureThreshold, \n                uint64 _trustingPeriod, \n                bytes[SYNC_COMMITTEE_SIZE] memory _currentValidatorSet, \n                bytes memory _currentValidatorSetAggregate,\n                bytes[SYNC_COMMITTEE_SIZE] memory _nextValidatorSet,\n                bytes memory _nextValidatorSetAggregate,\n                bytes32 _finalizedBlockRoot,\n                bytes32 _finalizedStateRoot,\n                uint64 _finalizedSlot,\n                uint64 _latestSlot,\n                uint64 _latestSlotWithValidatorSetChange) \n    {\n        signatureThreshold=_signatureThreshold;\n        trustingPeriod=_trustingPeriod;\n        currentValidatorSet=_currentValidatorSet;\n        currentValidatorSetAggregate=_currentValidatorSetAggregate;\n        nextValidatorSet=_nextValidatorSet;\n        nextValidatorSetAggregate=_nextValidatorSetAggregate;\n        finalizedBlockRoot=_finalizedBlockRoot;\n        latestSlot=_latestSlot;\n        latestSlotWithValidatorSetChange=_latestSlotWithValidatorSetChange;\n        finalizedSlot=_finalizedSlot;\n        finalizedStateRoot=_finalizedStateRoot;\n    }\n\n    function getLatestSlotWithValidatorSetChange() public view returns (uint64) {\n        return latestSlotWithValidatorSetChange;\n    }\n    \n    function getFinalizedBlockRoot() public view returns (bytes32) {\n        return finalizedBlockRoot;\n    }\n    \n    function getFinalizedStateRoot() public view returns (bytes32) {\n        return finalizedStateRoot;\n    }\n    \n    function submitUpdate(ChainRelayUpdate memory _chainRelayUpdate, SyncCommitteeUpdate memory _syncCommitteeUpdate) public returns (bool) {\n        bytes32 signingRoot = computeSigningRoot(_chainRelayUpdate.latestBlockRoot, _chainRelayUpdate.signingDomain);\n        uint numberOfParticipants = countTrueBools(_chainRelayUpdate.participants);\n        require(\n            numberOfParticipants >= signatureThreshold, \n            \"not enough signature participants\");\n        require(\n            validateMerkleBranch(\n                _chainRelayUpdate.latestBlockRoot, \n                _chainRelayUpdate.stateRoot, \n                STATE_ROOT_INDEX, \n                _chainRelayUpdate.stateRootBranch), \n            \"merkle proof for latest state root not valid\");\n        //require(\n            validateMerkleBranch(\n                _chainRelayUpdate.latestBlockRoot, \n                merklelizeSlot(_chainRelayUpdate.latestSlot), \n                SLOT_INDEX, \n                _chainRelayUpdate.latestSlotBranch)\n                //,\"merkle proof for latest slot not valid\")\n            ;\n        /*require(\n            validateMerkleBranch(\n                _chainRelayUpdate.stateRoot, \n                _chainRelayUpdate.finalizedBlockRoot, \n                FINALIZED_ROOT_INDEX, \n                _chainRelayUpdate.finalizingBranch) ,\"merkle proof for finalized block root not valid\");*/\n        //require(\n            validateMerkleBranch(\n                _chainRelayUpdate.finalizedBlockRoot, \n                merklelizeSlot(_chainRelayUpdate.finalizedSlot), \n                SLOT_INDEX, \n                _chainRelayUpdate.finalizedSlotBranch)\n                //, \"merkle proof for finalized slot not valid\")\n            ;\n        require(\n            validateMerkleBranch(\n                _chainRelayUpdate.finalizedBlockRoot, \n                _chainRelayUpdate.finalizedStateRoot, \n                STATE_ROOT_INDEX, \n                _chainRelayUpdate.finalizedStateRootBranch), \n            \"merkle proof for finalized state root not valid\");\n        uint slot_distance = _chainRelayUpdate.latestSlot - latestSlotWithValidatorSetChange; \n        if ((slot_distance / (SLOTS_PER_EPOCH * EPOCHS_PER_SYNC_COMMITTEE_PERIOD)) == 0) {\n           require(\n               fastAggregateVerify(serializeAggregateSignature(\n                   signingRoot, \n                   _chainRelayUpdate.signature, \n                   getActiveValidators(currentValidatorSet, _chainRelayUpdate.participants, numberOfParticipants))), \n               \"signature by current sync committee not valid\");\n        } else if ((slot_distance / (SLOTS_PER_EPOCH * EPOCHS_PER_SYNC_COMMITTEE_PERIOD)) == 1) {\n            require(\n                fastAggregateVerify(serializeAggregateSignature(\n                    signingRoot, \n                    _chainRelayUpdate.signature, \n                    getActiveValidators(nextValidatorSet, _chainRelayUpdate.participants, numberOfParticipants))), \n                \"signature by next sync committee not valid\");\n            bytes32 merklelizedNextNextSyncCommittee = hashTreeRootSyncCommittee(_syncCommitteeUpdate.nextNextValidatorSet, _syncCommitteeUpdate.nextNextValidatorSetAggregate);\n            require(\n                validateMerkleBranch(\n                    _chainRelayUpdate.finalizedStateRoot, \n                    merklelizedNextNextSyncCommittee, \n                    NEXT_SYNC_COMMITTEE_INDEX, \n                    _syncCommitteeUpdate.nextNextValidatorSetBranch), \n                \"merkle proof of next next sync committee not valid\");\n            currentValidatorSet = nextValidatorSet; \n            currentValidatorSetAggregate = nextValidatorSetAggregate;\n            nextValidatorSet = _syncCommitteeUpdate.nextNextValidatorSet; \n            nextValidatorSetAggregate = _syncCommitteeUpdate.nextNextValidatorSetAggregate;\n            latestSlotWithValidatorSetChange = _chainRelayUpdate.finalizedSlot;\n        } else {\n            revert(\"latest slot does not indicate that current or next sync committee is responsible\");\n        }\n        finalizedBlockRoot = _chainRelayUpdate.finalizedBlockRoot; \n        finalizedStateRoot = _chainRelayUpdate.finalizedStateRoot;\n        latestSlot = _chainRelayUpdate.latestSlot;\n        finalizedSlot = _chainRelayUpdate.finalizedSlot;\n        return true;\n    }\n    \n    function getActiveValidators(bytes[SYNC_COMMITTEE_SIZE] memory _pubkeys, bool[SYNC_COMMITTEE_SIZE] memory _isActive, uint _numberOfActive) public pure returns (bytes[] memory) {\n        bytes[] memory active_validators = new bytes[](_numberOfActive);\n        uint counter = 0;\n        for (uint i = 0; i < SYNC_COMMITTEE_SIZE; i++) {\n            if (_isActive[i]) {\n                active_validators[counter] = _pubkeys[i];\n                counter++;\n            }\n        }\n        return active_validators;\n    }\n    \n    function countTrueBools(bool[SYNC_COMMITTEE_SIZE] memory _bools) public pure returns (uint) {\n        uint counter = 0;\n        for (uint i = 0; i < SYNC_COMMITTEE_SIZE; i++) {\n            if (_bools[i] == true) {\n                counter++;\n            }\n        }\n        return counter;\n    }\n\n    function serializeAggregateSignature(bytes32 _message, bytes memory _signature, bytes[] memory _pubkeys) public pure returns (bytes memory) {\n        bytes2 length = bytes2(uint16(_pubkeys.length));\n        bytes memory serialized = new bytes(0);\n        serialized = serialized.concat(bytes32ToBytes(_message));\n        serialized = serialized.concat(_signature);\n        serialized = serialized.concat(bytes2ToBytes(length));\n        for (uint i = 0; i < _pubkeys.length; i++) {\n            serialized = serialized.concat(_pubkeys[i]);\n        }\n        /* fallback w/o library\n        bytes memory serialized = new bytes(32+96+2+48*_pubkeys.length);\n        for (uint i = 0; i < 32; i++) {\n            serialized[i] = _message[i];\n        }\n        for (uint i = 32; i < 128; i++) {\n            serialized[i] = _signature[i-32];\n        }\n        for (uint i = 128; i < 130; i++) {\n            serialized[i] = length[i-128];\n        }\n        for (uint i = 0; i < _pubkeys.length; i++) {\n            for (uint j = 0; j < 48; j++) {\n            //for (uint j = 0; j < _pubkeys[i].length; j++) {\n                serialized[32+96+2+i*48+j] = _pubkeys[i][j];\n            }\n        }*/\n        return serialized;\n    }\n    \n    function fastAggregateVerify(bytes memory _input) public view returns (bool o) {\n        if (MOCK_BLS_PRECOMPILE) {\n            return true;\n        }\n        bool[1] memory outCache;\n        assembly {\n            let p := mload(0x40)\n            let length := mload(_input)\n            if iszero(staticcall(gas(), 0x05, add(_input,32), length, outCache, 32)) { // first 32 yte of _input are length\n                revert(0, 0)\n            }\n        }\n        o = outCache[0];\n    }\n    \n    function slotToUnixTimestamp(uint _slot) public pure returns (uint timestamp) {\n        return _slot * SECONDS_PER_SLOT + FIRST_BEACON_BLOCK_UNIX_TIMESTAMP;\n    }\n    \n    function bytes32ToBytes(bytes32 _input) public pure returns (bytes memory output) {\n        return abi.encodePacked(_input);\n    }\n    \n    function bytes2ToBytes(bytes2 _input) public pure returns (bytes memory output) {\n        return abi.encodePacked(_input);\n    }\n    \n    function concat(bytes32 _left, bytes32 _right) public pure returns (bytes memory) {\n        return bytes.concat(_left, _right);\n        // below is fallback code for older solidity versions\n        /*bytes memory concatenated;\n        for (uint i = 0; i<32; i++) {\n            concatenated[i] = left[i];\n        }\n        for (uint i = 0; i<32; i++) {\n            concatenated[i+32] = right[i];\n        }\n        return concatenated;*/\n    }\n\n    function hashTreeRootPair(bytes32 _left, bytes32 _right) public pure returns (bytes32) {\n        return sha256(concat(_left, _right));\n    }\n    \n    function hashTreeRootBlspubkey (bytes memory _blspubkey) public pure returns (bytes32) {\n        bytes memory blspubkeyMerkleizedLeft = _blspubkey.slice(0, 32);\n        bytes memory blspubkeyMerkleizedRight = _blspubkey.slice(32, 16);\n        blspubkeyMerkleizedRight = blspubkeyMerkleizedRight.concat(bytes(hex\"00000000000000000000000000000000\"));\n        /* fallback w/o library\n        bytes memory blspubkeyMerkleizedLeft = new bytes(32);\n        for (uint i = 0; i<32; i++) {\n            blspubkeyMerkleizedLeft[i] = _blspubkey[i];\n        }\n        bytes memory blspubkeyMerkleizedRight = new bytes(32);\n        for (uint i = 0; i<16; i++) { // rest of blspubkeyMerkleizedRight is initialized zero\n            blspubkeyMerkleizedRight[i] = _blspubkey[i+32];\n        }*/\n        return hashTreeRootPair(bytesToBytes32(blspubkeyMerkleizedLeft), bytesToBytes32(blspubkeyMerkleizedRight));\n    }\n    \n    function computeSigningRoot(bytes32 _blockRoot, bytes32 _signingDomain) public pure returns (bytes32) {\n        return hashTreeRootPair(_blockRoot, _signingDomain);\n    }\n    \n    function bytesToBytes8(bytes memory _input) public pure returns (bytes8 result) {\n        if (_input.length == 0) {\n            return 0x0;\n        }\n        assembly {\n            result := mload(add(_input, 32))\n        }\n    }\n    \n    function bytesToBytes32(bytes memory _input) public pure returns (bytes32 result) {\n        if (_input.length == 0) {\n            return 0x0;\n        }\n        assembly {\n            result := mload(add(_input, 32))\n        }\n    }\n\n    function revertBytes8(bytes8 _input) public pure returns (bytes8) {\n        bytes memory reverted = new bytes(8);\n        for (uint i = 0; i < 8; i++) {\n            reverted[7-i] = _input[i];\n        }\n        return bytesToBytes8(reverted);\n    }\n\n    function merklelizeSlot(uint64 _input) public pure returns (bytes32) {\n        return bytes32(revertBytes8(bytes8(_input)));\n    }\n    \n    function bitLength(uint _input) public pure returns (uint) {\n        uint length = 0;\n        while (_input != 0) \n        {\n            _input >>= 1; \n            length++; \n        }\n        return length;\n    }\n    \n    function nextPowOfTwo(uint _input) public pure returns (uint) {\n        if (_input == 0) {\n            return 1;\n        } else {\n            return 2**(bitLength(_input-1));\n        }\n    }\n    \n    function floorLog2 (uint _input) public pure returns (uint) {\n        require(_input >= 1, \"_input to floorLog2 must be larger or equal than 1\");\n        return bitLength(_input)-1;\n    }\n    \n    function merkleize(bytes32[SYNC_COMMITTEE_SIZE] memory _chunks) public pure returns (bytes32) {\n        uint length_next_pow = nextPowOfTwo(_chunks.length);\n        for (uint i = _chunks.length; i < length_next_pow; i++) {\n           // fill lowest level \n           // TODO not necessary b/c size always 2^n?\n        }\n        for (uint level = 0; level<floorLog2(length_next_pow); level++) {\n            uint step = 2**level;\n            for (uint current_accumulator = 0; current_accumulator < length_next_pow; current_accumulator += step*2) {\n                _chunks[current_accumulator] = hashTreeRootPair(_chunks[current_accumulator], _chunks[current_accumulator+step]);\n            }\n        }\n        return _chunks[0];\n    }\n    \n    function hashTreeRootSyncCommittee(bytes[SYNC_COMMITTEE_SIZE] memory _syncCommittee, bytes memory _syncAggregate) public pure returns (bytes32) {\n        bytes32[SYNC_COMMITTEE_SIZE] memory syncCommitteeHashed;\n        for (uint i = 0; i < SYNC_COMMITTEE_SIZE; i++) {\n            syncCommitteeHashed[i] = hashTreeRootBlspubkey(_syncCommittee[i]);\n        }\n        bytes32 syncCommitteeHashedMerkleized = merkleize(syncCommitteeHashed);\n        bytes32 syncCommitteeRoot = hashTreeRootPair(syncCommitteeHashedMerkleized, hashTreeRootBlspubkey(_syncAggregate));\n        return syncCommitteeRoot;\n    }\n    \n    function getSubtreeIndex(uint _generalizedIndex) public pure returns (uint) {\n        return _generalizedIndex % 2**(floorLog2(_generalizedIndex));\n    }\n    \n    function validateMerkleBranch(bytes32 _root, bytes32 _leaf, uint _generalizedIndex, bytes32[] memory _branch) public pure returns (bool) {\n        uint index = getSubtreeIndex(_generalizedIndex);\n        uint depth = floorLog2(_generalizedIndex);\n        bytes32 value = _leaf;\n        for (uint i = 0; i < depth; i++) {\n            if ((index / (2**i) % 2) == 1) {\n                value = sha256(concat(_branch[i],value));\n            } else {\n                value = sha256(concat(value,_branch[i]));\n            }\n        }\n        return value == _root;\n    }\n    \n}",
  "sourcePath": "/Users/Max/Documents/PoSChainRelay/Eth2ChainRelay/contracts/Eth2ChainRelay_2.sol",
  "compiler": {
    "name": "solc",
    "version": "0.8.6+commit.11564f7e.Emscripten.clang"
  },
  "schemaVersion": "3.4.1",
  "updatedAt": "2021-08-07T09:36:10.241Z",
  "networkType": "ethereum",
  "devdoc": {
    "details": "Implements a chain relay/light client for eth2 consensus post-altair (including sync committees)",
    "kind": "dev",
    "methods": {},
    "title": "Chain Relay",
    "version": 1
  },
  "userdoc": {
    "kind": "user",
    "methods": {},
    "version": 1
  }
}