{
  "contractName": "Eth2ChainRelay_32",
  "abi": [
    {
      "inputs": [
        {
          "internalType": "uint64",
          "name": "_signatureThreshold",
          "type": "uint64"
        },
        {
          "internalType": "uint64",
          "name": "_trustingPeriod",
          "type": "uint64"
        },
        {
          "internalType": "bytes[32]",
          "name": "_currentValidatorSet",
          "type": "bytes[32]"
        },
        {
          "internalType": "bytes",
          "name": "_currentValidatorSetAggregate",
          "type": "bytes"
        },
        {
          "internalType": "bytes[32]",
          "name": "_nextValidatorSet",
          "type": "bytes[32]"
        },
        {
          "internalType": "bytes",
          "name": "_nextValidatorSetAggregate",
          "type": "bytes"
        },
        {
          "internalType": "bytes32",
          "name": "_finalizedBlockRoot",
          "type": "bytes32"
        },
        {
          "internalType": "bytes32",
          "name": "_finalizedStateRoot",
          "type": "bytes32"
        },
        {
          "internalType": "uint64",
          "name": "_finalizedSlot",
          "type": "uint64"
        },
        {
          "internalType": "uint64",
          "name": "_latestSlot",
          "type": "uint64"
        },
        {
          "internalType": "uint64",
          "name": "_latestSlotWithValidatorSetChange",
          "type": "uint64"
        }
      ],
      "stateMutability": "nonpayable",
      "type": "constructor"
    },
    {
      "inputs": [],
      "name": "getLatestSlotWithValidatorSetChange",
      "outputs": [
        {
          "internalType": "uint64",
          "name": "",
          "type": "uint64"
        }
      ],
      "stateMutability": "view",
      "type": "function",
      "constant": true
    },
    {
      "inputs": [],
      "name": "getFinalizedBlockRoot",
      "outputs": [
        {
          "internalType": "bytes32",
          "name": "",
          "type": "bytes32"
        }
      ],
      "stateMutability": "view",
      "type": "function",
      "constant": true
    },
    {
      "inputs": [],
      "name": "getFinalizedStateRoot",
      "outputs": [
        {
          "internalType": "bytes32",
          "name": "",
          "type": "bytes32"
        }
      ],
      "stateMutability": "view",
      "type": "function",
      "constant": true
    },
    {
      "inputs": [
        {
          "components": [
            {
              "internalType": "bytes",
              "name": "signature",
              "type": "bytes"
            },
            {
              "internalType": "bool[32]",
              "name": "participants",
              "type": "bool[32]"
            },
            {
              "internalType": "bytes32",
              "name": "latestBlockRoot",
              "type": "bytes32"
            },
            {
              "internalType": "bytes32",
              "name": "signingDomain",
              "type": "bytes32"
            },
            {
              "internalType": "uint64",
              "name": "latestSlot",
              "type": "uint64"
            },
            {
              "internalType": "bytes32[]",
              "name": "latestSlotBranch",
              "type": "bytes32[]"
            },
            {
              "internalType": "bytes32",
              "name": "finalizedBlockRoot",
              "type": "bytes32"
            },
            {
              "internalType": "bytes32[]",
              "name": "finalizingBranch",
              "type": "bytes32[]"
            },
            {
              "internalType": "uint64",
              "name": "finalizedSlot",
              "type": "uint64"
            },
            {
              "internalType": "bytes32[]",
              "name": "finalizedSlotBranch",
              "type": "bytes32[]"
            },
            {
              "internalType": "bytes32",
              "name": "finalizedStateRoot",
              "type": "bytes32"
            },
            {
              "internalType": "bytes32[]",
              "name": "finalizedStateRootBranch",
              "type": "bytes32[]"
            },
            {
              "internalType": "bytes32",
              "name": "stateRoot",
              "type": "bytes32"
            },
            {
              "internalType": "bytes32[]",
              "name": "stateRootBranch",
              "type": "bytes32[]"
            }
          ],
          "internalType": "struct ChainRelayUpdate",
          "name": "_chainRelayUpdate",
          "type": "tuple"
        },
        {
          "components": [
            {
              "internalType": "bytes[32]",
              "name": "nextNextValidatorSet",
              "type": "bytes[32]"
            },
            {
              "internalType": "bytes",
              "name": "nextNextValidatorSetAggregate",
              "type": "bytes"
            },
            {
              "internalType": "bytes32[]",
              "name": "nextNextValidatorSetBranch",
              "type": "bytes32[]"
            }
          ],
          "internalType": "struct SyncCommitteeUpdate",
          "name": "_syncCommitteeUpdate",
          "type": "tuple"
        }
      ],
      "name": "submitUpdate",
      "outputs": [
        {
          "internalType": "bool",
          "name": "",
          "type": "bool"
        }
      ],
      "stateMutability": "nonpayable",
      "type": "function"
    },
    {
      "inputs": [
        {
          "internalType": "bytes[32]",
          "name": "_pubkeys",
          "type": "bytes[32]"
        },
        {
          "internalType": "bool[32]",
          "name": "_isActive",
          "type": "bool[32]"
        },
        {
          "internalType": "uint256",
          "name": "_numberOfActive",
          "type": "uint256"
        }
      ],
      "name": "getActiveValidators",
      "outputs": [
        {
          "internalType": "bytes[]",
          "name": "",
          "type": "bytes[]"
        }
      ],
      "stateMutability": "pure",
      "type": "function",
      "constant": true
    },
    {
      "inputs": [
        {
          "internalType": "bool[32]",
          "name": "_bools",
          "type": "bool[32]"
        }
      ],
      "name": "countTrueBools",
      "outputs": [
        {
          "internalType": "uint256",
          "name": "",
          "type": "uint256"
        }
      ],
      "stateMutability": "pure",
      "type": "function",
      "constant": true
    },
    {
      "inputs": [
        {
          "internalType": "bytes32",
          "name": "_message",
          "type": "bytes32"
        },
        {
          "internalType": "bytes",
          "name": "_signature",
          "type": "bytes"
        },
        {
          "internalType": "bytes[]",
          "name": "_pubkeys",
          "type": "bytes[]"
        }
      ],
      "name": "serializeAggregateSignature",
      "outputs": [
        {
          "internalType": "bytes",
          "name": "",
          "type": "bytes"
        }
      ],
      "stateMutability": "pure",
      "type": "function",
      "constant": true
    },
    {
      "inputs": [
        {
          "internalType": "bytes",
          "name": "_input",
          "type": "bytes"
        }
      ],
      "name": "fastAggregateVerify",
      "outputs": [
        {
          "internalType": "bool",
          "name": "o",
          "type": "bool"
        }
      ],
      "stateMutability": "view",
      "type": "function",
      "constant": true
    },
    {
      "inputs": [
        {
          "internalType": "uint256",
          "name": "_slot",
          "type": "uint256"
        }
      ],
      "name": "slotToUnixTimestamp",
      "outputs": [
        {
          "internalType": "uint256",
          "name": "timestamp",
          "type": "uint256"
        }
      ],
      "stateMutability": "pure",
      "type": "function",
      "constant": true
    },
    {
      "inputs": [
        {
          "internalType": "bytes32",
          "name": "_input",
          "type": "bytes32"
        }
      ],
      "name": "bytes32ToBytes",
      "outputs": [
        {
          "internalType": "bytes",
          "name": "output",
          "type": "bytes"
        }
      ],
      "stateMutability": "pure",
      "type": "function",
      "constant": true
    },
    {
      "inputs": [
        {
          "internalType": "bytes2",
          "name": "_input",
          "type": "bytes2"
        }
      ],
      "name": "bytes2ToBytes",
      "outputs": [
        {
          "internalType": "bytes",
          "name": "output",
          "type": "bytes"
        }
      ],
      "stateMutability": "pure",
      "type": "function",
      "constant": true
    },
    {
      "inputs": [
        {
          "internalType": "bytes32",
          "name": "_left",
          "type": "bytes32"
        },
        {
          "internalType": "bytes32",
          "name": "_right",
          "type": "bytes32"
        }
      ],
      "name": "concat",
      "outputs": [
        {
          "internalType": "bytes",
          "name": "",
          "type": "bytes"
        }
      ],
      "stateMutability": "pure",
      "type": "function",
      "constant": true
    },
    {
      "inputs": [
        {
          "internalType": "bytes32",
          "name": "_left",
          "type": "bytes32"
        },
        {
          "internalType": "bytes32",
          "name": "_right",
          "type": "bytes32"
        }
      ],
      "name": "hashTreeRootPair",
      "outputs": [
        {
          "internalType": "bytes32",
          "name": "",
          "type": "bytes32"
        }
      ],
      "stateMutability": "pure",
      "type": "function",
      "constant": true
    },
    {
      "inputs": [
        {
          "internalType": "bytes",
          "name": "_blspubkey",
          "type": "bytes"
        }
      ],
      "name": "hashTreeRootBlspubkey",
      "outputs": [
        {
          "internalType": "bytes32",
          "name": "",
          "type": "bytes32"
        }
      ],
      "stateMutability": "pure",
      "type": "function",
      "constant": true
    },
    {
      "inputs": [
        {
          "internalType": "bytes32",
          "name": "_blockRoot",
          "type": "bytes32"
        },
        {
          "internalType": "bytes32",
          "name": "_signingDomain",
          "type": "bytes32"
        }
      ],
      "name": "computeSigningRoot",
      "outputs": [
        {
          "internalType": "bytes32",
          "name": "",
          "type": "bytes32"
        }
      ],
      "stateMutability": "pure",
      "type": "function",
      "constant": true
    },
    {
      "inputs": [
        {
          "internalType": "bytes",
          "name": "_input",
          "type": "bytes"
        }
      ],
      "name": "bytesToBytes8",
      "outputs": [
        {
          "internalType": "bytes8",
          "name": "result",
          "type": "bytes8"
        }
      ],
      "stateMutability": "pure",
      "type": "function",
      "constant": true
    },
    {
      "inputs": [
        {
          "internalType": "bytes",
          "name": "_input",
          "type": "bytes"
        }
      ],
      "name": "bytesToBytes32",
      "outputs": [
        {
          "internalType": "bytes32",
          "name": "result",
          "type": "bytes32"
        }
      ],
      "stateMutability": "pure",
      "type": "function",
      "constant": true
    },
    {
      "inputs": [
        {
          "internalType": "bytes8",
          "name": "_input",
          "type": "bytes8"
        }
      ],
      "name": "revertBytes8",
      "outputs": [
        {
          "internalType": "bytes8",
          "name": "",
          "type": "bytes8"
        }
      ],
      "stateMutability": "pure",
      "type": "function",
      "constant": true
    },
    {
      "inputs": [
        {
          "internalType": "uint64",
          "name": "_input",
          "type": "uint64"
        }
      ],
      "name": "merklelizeSlot",
      "outputs": [
        {
          "internalType": "bytes32",
          "name": "",
          "type": "bytes32"
        }
      ],
      "stateMutability": "pure",
      "type": "function",
      "constant": true
    },
    {
      "inputs": [
        {
          "internalType": "uint256",
          "name": "_input",
          "type": "uint256"
        }
      ],
      "name": "bitLength",
      "outputs": [
        {
          "internalType": "uint256",
          "name": "",
          "type": "uint256"
        }
      ],
      "stateMutability": "pure",
      "type": "function",
      "constant": true
    },
    {
      "inputs": [
        {
          "internalType": "uint256",
          "name": "_input",
          "type": "uint256"
        }
      ],
      "name": "nextPowOfTwo",
      "outputs": [
        {
          "internalType": "uint256",
          "name": "",
          "type": "uint256"
        }
      ],
      "stateMutability": "pure",
      "type": "function",
      "constant": true
    },
    {
      "inputs": [
        {
          "internalType": "uint256",
          "name": "_input",
          "type": "uint256"
        }
      ],
      "name": "floorLog2",
      "outputs": [
        {
          "internalType": "uint256",
          "name": "",
          "type": "uint256"
        }
      ],
      "stateMutability": "pure",
      "type": "function",
      "constant": true
    },
    {
      "inputs": [
        {
          "internalType": "bytes32[32]",
          "name": "_chunks",
          "type": "bytes32[32]"
        }
      ],
      "name": "merkleize",
      "outputs": [
        {
          "internalType": "bytes32",
          "name": "",
          "type": "bytes32"
        }
      ],
      "stateMutability": "pure",
      "type": "function",
      "constant": true
    },
    {
      "inputs": [
        {
          "internalType": "bytes[32]",
          "name": "_syncCommittee",
          "type": "bytes[32]"
        },
        {
          "internalType": "bytes",
          "name": "_syncAggregate",
          "type": "bytes"
        }
      ],
      "name": "hashTreeRootSyncCommittee",
      "outputs": [
        {
          "internalType": "bytes32",
          "name": "",
          "type": "bytes32"
        }
      ],
      "stateMutability": "pure",
      "type": "function",
      "constant": true
    },
    {
      "inputs": [
        {
          "internalType": "uint256",
          "name": "_generalizedIndex",
          "type": "uint256"
        }
      ],
      "name": "getSubtreeIndex",
      "outputs": [
        {
          "internalType": "uint256",
          "name": "",
          "type": "uint256"
        }
      ],
      "stateMutability": "pure",
      "type": "function",
      "constant": true
    },
    {
      "inputs": [
        {
          "internalType": "bytes32",
          "name": "_root",
          "type": "bytes32"
        },
        {
          "internalType": "bytes32",
          "name": "_leaf",
          "type": "bytes32"
        },
        {
          "internalType": "uint256",
          "name": "_generalizedIndex",
          "type": "uint256"
        },
        {
          "internalType": "bytes32[]",
          "name": "_branch",
          "type": "bytes32[]"
        }
      ],
      "name": "validateMerkleBranch",
      "outputs": [
        {
          "internalType": "bool",
          "name": "",
          "type": "bool"
        }
      ],
      "stateMutability": "pure",
      "type": "function",
      "constant": true
    }
  ],
  "bytecode": "0x60806040523480156200001157600080fd5b5060405162003e9a38038062003e9a833981810160405281019062000037919062000463565b8a6000806101000a81548167ffffffffffffffff021916908367ffffffffffffffff16021790555089600060086101000a81548167ffffffffffffffff021916908367ffffffffffffffff1602179055508860019060206200009b9291906200017c565b508760219080519060200190620000b4929190620001d6565b50866022906020620000c89291906200017c565b508560429080519060200190620000e1929190620001d6565b508460438190555081604560006101000a81548167ffffffffffffffff021916908367ffffffffffffffff16021790555080604560086101000a81548167ffffffffffffffff021916908367ffffffffffffffff16021790555082604560106101000a81548167ffffffffffffffff021916908367ffffffffffffffff160217905550836044819055505050505050505050505050620007f0565b8260208101928215620001c3579160200282015b82811115620001c2578251829080519060200190620001b1929190620001d6565b509160200191906001019062000190565b5b509050620001d2919062000267565b5090565b828054620001e490620006c8565b90600052602060002090601f01602090048101928262000208576000855562000254565b82601f106200022357805160ff191683800117855562000254565b8280016001018555821562000254579182015b828111156200025357825182559160200191906001019062000236565b5b5090506200026391906200028f565b5090565b5b808211156200028b5760008181620002819190620002ae565b5060010162000268565b5090565b5b80821115620002aa57600081600090555060010162000290565b5090565b508054620002bc90620006c8565b6000825580601f10620002d05750620002f1565b601f016020900490600052602060002090810190620002f091906200028f565b5b50565b60006200030b620003058462000615565b620005ec565b9050808285602086028201111562000328576200032762000797565b5b60005b858110156200037d57815167ffffffffffffffff81111562000352576200035162000792565b5b80860162000361898262000419565b855260208501945060208401935050506001810190506200032b565b5050509392505050565b60006200039e62000398846200063e565b620005ec565b905082815260208101848484011115620003bd57620003bc6200079c565b5b620003ca84828562000692565b509392505050565b600082601f830112620003ea57620003e962000792565b5b6020620003f9848285620002f4565b91505092915050565b6000815190506200041381620007bc565b92915050565b600082601f83011262000431576200043062000792565b5b81516200044384826020860162000387565b91505092915050565b6000815190506200045d81620007d6565b92915050565b60008060008060008060008060008060006101608c8e0312156200048c576200048b620007a6565b5b60006200049c8e828f016200044c565b9b50506020620004af8e828f016200044c565b9a505060408c015167ffffffffffffffff811115620004d357620004d2620007a1565b5b620004e18e828f01620003d2565b99505060608c015167ffffffffffffffff811115620005055762000504620007a1565b5b620005138e828f0162000419565b98505060808c015167ffffffffffffffff811115620005375762000536620007a1565b5b620005458e828f01620003d2565b97505060a08c015167ffffffffffffffff811115620005695762000568620007a1565b5b620005778e828f0162000419565b96505060c06200058a8e828f0162000402565b95505060e06200059d8e828f0162000402565b945050610100620005b18e828f016200044c565b935050610120620005c58e828f016200044c565b925050610140620005d98e828f016200044c565b9150509295989b509295989b9093969950565b6000620005f86200060b565b9050620006068282620006fe565b919050565b6000604051905090565b600067ffffffffffffffff82111562000633576200063262000763565b5b602082029050919050565b600067ffffffffffffffff8211156200065c576200065b62000763565b5b6200066782620007ab565b9050602081019050919050565b6000819050919050565b600067ffffffffffffffff82169050919050565b60005b83811015620006b257808201518184015260208101905062000695565b83811115620006c2576000848401525b50505050565b60006002820490506001821680620006e157607f821691505b60208210811415620006f857620006f762000734565b5b50919050565b6200070982620007ab565b810181811067ffffffffffffffff821117156200072b576200072a62000763565b5b80604052505050565b7f4e487b7100000000000000000000000000000000000000000000000000000000600052602260045260246000fd5b7f4e487b7100000000000000000000000000000000000000000000000000000000600052604160045260246000fd5b600080fd5b600080fd5b600080fd5b600080fd5b600080fd5b6000601f19601f8301169050919050565b620007c78162000674565b8114620007d357600080fd5b50565b620007e1816200067e565b8114620007ed57600080fd5b50565b61369a80620008006000396000f3fe608060405234801561001057600080fd5b506004361061018e5760003560e01c80636e1e76b9116100de578063b1e9f2a011610097578063c36a13da11610071578063c36a13da1461057d578063e41bbcf8146105ad578063e92938ab146105dd578063f218850e1461060d5761018e565b8063b1e9f2a0146104ed578063b8ffb2e31461051d578063bfe370d91461054d5761018e565b80636e1e76b9146103cd5780637b9e6200146103fd5780637e7f232a1461042d57806390daece61461045d5780639eb51fce1461048d578063a9755eb1146104bd5761018e565b8063447b19671161014b578063533c371011610125578063533c37101461033157806356f07c06146103615780635c5528791461037f578063639f30c3146103af5761018e565b8063447b1967146102a157806345b8bafc146102d15780634c0999c7146103015761018e565b80630fb3d0cc146101935780631c8d7dea146101c35780632c26bfd4146101f3578063398fd9d4146102115780633fccb97b14610241578063404c2a7114610271575b600080fd5b6101ad60048036038101906101a8919061254a565b61063d565b6040516101ba91906129ba565b60405180910390f35b6101dd60048036038101906101d89190612216565b610c3d565b6040516101ea9190612998565b60405180910390f35b6101fb610d20565b60405161020891906129d5565b60405180910390f35b61022b60048036038101906102269190612501565b610d2a565b60405161023891906129ba565b60405180910390f35b61025b600480360381019061025691906125c2565b610d81565b6040516102689190612b6d565b60405180910390f35b61028b600480360381019061028691906125ef565b610da6565b60405161029891906129d5565b60405180910390f35b6102bb60048036038101906102b691906121ba565b610dd6565b6040516102c89190612b6d565b60405180910390f35b6102eb60048036038101906102e691906125c2565b610e39565b6040516102f89190612b6d565b60405180910390f35b61031b6004803603810190610316919061232c565b610e9b565b6040516103289190612a0b565b60405180910390f35b61034b600480360381019061034691906121e8565b610ec4565b60405161035891906129d5565b60405180910390f35b610369610fda565b60405161037691906129d5565b60405180910390f35b61039960048036038101906103949190612501565b610fe4565b6040516103a691906129f0565b60405180910390f35b6103b7611008565b6040516103c49190612b88565b60405180910390f35b6103e760048036038101906103e291906124d4565b611026565b6040516103f491906129f0565b60405180910390f35b61041760048036038101906104129190612386565b61110f565b6040516104249190612a0b565b60405180910390f35b61044760048036038101906104429190612449565b61113b565b6040516104549190612a0b565b60405180910390f35b61047760048036038101906104729190612287565b611241565b60405161048491906129d5565b60405180910390f35b6104a760048036038101906104a29190612386565b6112d6565b6040516104b491906129d5565b60405180910390f35b6104d760048036038101906104d291906122ff565b611339565b6040516104e49190612a0b565b60405180910390f35b610507600480360381019061050291906125c2565b611362565b6040516105149190612b6d565b60405180910390f35b610537600480360381019061053291906125c2565b61138b565b6040516105449190612b6d565b60405180910390f35b61056760048036038101906105629190612501565b6113c7565b60405161057491906129d5565b60405180910390f35b61059760048036038101906105929190612501565b6113ea565b6040516105a491906129d5565b60405180910390f35b6105c760048036038101906105c291906125c2565b61146f565b6040516105d49190612b6d565b60405180910390f35b6105f760048036038101906105f29190612386565b6114a2565b60405161060491906129d5565b60405180910390f35b610627600480360381019061062291906123c6565b6114b6565b60405161063491906129ba565b60405180910390f35b600080610652846040015185606001516114a2565b905060006106638560200151610dd6565b905060008054906101000a900467ffffffffffffffff1667ffffffffffffffff168110156106c6576040517f08c379a00000000000000000000000000000000000000000000000000000000081526004016106bd90612acd565b60405180910390fd5b6106e18560400151866101800151600b886101a001516114b6565b610720576040517f08c379a000000000000000000000000000000000000000000000000000000000815260040161071790612b4d565b60405180910390fd5b61074185604001516107358760800151610da6565b60088860a001516114b6565b506107658560c00151610758876101000151610da6565b60088861012001516114b6565b506107818560c00151866101400151600b8861016001516114b6565b6107c0576040517f08c379a00000000000000000000000000000000000000000000000000000000081526004016107b790612a2d565b60405180910390fd5b6000604560089054906101000a900467ffffffffffffffff1686608001516107e89190612fcb565b67ffffffffffffffff169050600061020060206108059190612f3d565b826108109190612d9b565b141561093e576108fa6108f58488600001516108f06001602080602002604051908101604052809291906000905b828210156108e1578382018054610854906130cd565b80601f0160208091040260200160405190810160405280929190818152602001828054610880906130cd565b80156108cd5780601f106108a2576101008083540402835291602001916108cd565b820191906000526020600020905b8154815290600101906020018083116108b057829003601f168201915b50505050508152602001906001019061083e565b505050508b6020015188610c3d565b61113b565b610d2a565b610939576040517f08c379a000000000000000000000000000000000000000000000000000000000815260040161093090612aad565b60405180910390fd5b610bbe565b6001610200602061094f9190612f3d565b8261095a9190612d9b565b1415610b8257610a44610a3f848860000151610a3a6022602080602002604051908101604052809291906000905b82821015610a2b57838201805461099e906130cd565b80601f01602080910402602001604051908101604052809291908181526020018280546109ca906130cd565b8015610a175780601f106109ec57610100808354040283529160200191610a17565b820191906000526020600020905b8154815290600101906020018083116109fa57829003601f168201915b505050505081526020019060010190610988565b505050508b6020015188610c3d565b61113b565b610d2a565b610a83576040517f08c379a0000000000000000000000000000000000000000000000000000000008152600401610a7a90612b2d565b60405180910390fd5b6000610a9786600001518760200151611241565b9050610aaf87610140015182603789604001516114b6565b610aee576040517f08c379a0000000000000000000000000000000000000000000000000000000008152600401610ae590612a4d565b60405180910390fd5b60226001906020610b009291906117c9565b5060426021908054610b11906130cd565b610b1c92919061181c565b5085600001516022906020610b329291906118a9565b50856020015160429080519060200190610b4d9291906118fc565b50866101000151604560086101000a81548167ffffffffffffffff021916908367ffffffffffffffff16021790555050610bbd565b6040517f08c379a0000000000000000000000000000000000000000000000000000000008152600401610bb490612b0d565b60405180910390fd5b5b8560c001516043819055508561014001516044819055508560800151604560006101000a81548167ffffffffffffffff021916908367ffffffffffffffff160217905550856101000151604560106101000a81548167ffffffffffffffff021916908367ffffffffffffffff1602179055506001935050505092915050565b606060008267ffffffffffffffff811115610c5b57610c5a61327a565b5b604051908082528060200260200182016040528015610c8e57816020015b6060815260200190600190039081610c795790505b5090506000805b6020811015610d1357858160208110610cb157610cb061324b565b5b602002015115610d0057868160208110610cce57610ccd61324b565b5b6020020151838381518110610ce657610ce561324b565b5b60200260200101819052508180610cfc90613130565b9250505b8080610d0b90613130565b915050610c95565b5081925050509392505050565b6000604354905090565b60008015610d3b5760019050610d7c565b610d43611982565b6040518351602083826020880160055afa610d5d57600080fd5b505080600060018110610d7357610d7261324b565b5b60200201519150505b919050565b6000635fc63057600c83610d959190612f3d565b610d9f9190612d45565b9050919050565b6000610db48260c01b611026565b77ffffffffffffffffffffffffffffffffffffffffffffffff19169050919050565b6000806000905060005b6020811015610e2f5760011515848260208110610e0057610dff61324b565b5b602002015115151415610e1c578180610e1890613130565b9250505b8080610e2790613130565b915050610de0565b5080915050919050565b60006001821015610e7f576040517f08c379a0000000000000000000000000000000000000000000000000000000008152600401610e7690612a6d565b60405180910390fd5b6001610e8a8361146f565b610e949190612f97565b9050919050565b606081604051602001610eae919061293a565b6040516020818303038152906040529050919050565b600080610ed1602061138b565b90506000602090505b81811015610ef5578080610eed90613130565b915050610eda565b5060005b610f0282610e39565b811015610fb8576000816002610f189190612e1f565b905060005b83811015610fa357610f68868260208110610f3b57610f3a61324b565b5b6020020151878484610f4d9190612d45565b60208110610f5e57610f5d61324b565b5b60200201516112d6565b868260208110610f7b57610f7a61324b565b5b602002018181525050600282610f919190612f3d565b81610f9c9190612d45565b9050610f1d565b50508080610fb090613130565b915050610ef9565b5082600060208110610fcd57610fcc61324b565b5b6020020151915050919050565b6000604454905090565b60008082511415610ffb57600060c01b9050611003565b602082015190505b919050565b6000604560089054906101000a900467ffffffffffffffff16905090565b600080600867ffffffffffffffff8111156110445761104361327a565b5b6040519080825280601f01601f1916602001820160405280156110765781602001600182028036833780820191505090505b50905060005b60088110156110fd578381600881106110985761109761324b565b5b1a60f81b828260076110aa9190612f97565b815181106110bb576110ba61324b565b5b60200101907effffffffffffffffffffffffffffffffffffffffffffffffffffffffffffff1916908160001a90535080806110f590613130565b91505061107c565b5061110781610fe4565b915050919050565b60608282604051602001611124929190612955565b604051602081830303815290604052905092915050565b60606000825160f01b905060008067ffffffffffffffff8111156111625761116161327a565b5b6040519080825280601f01601f1916602001820160405280156111945781602001600182028036833780820191505090505b5090506111b26111a387610e9b565b8261162190919063ffffffff16565b90506111c7858261162190919063ffffffff16565b90506111e46111d583611339565b8261162190919063ffffffff16565b905060005b84518110156112345761121f8582815181106112085761120761324b565b5b60200260200101518361162190919063ffffffff16565b9150808061122c90613130565b9150506111e9565b5080925050509392505050565b600061124b6119a4565b60005b60208110156112a65761127785826020811061126d5761126c61324b565b5b60200201516113ea565b82826020811061128a5761128961324b565b5b602002018181525050808061129e90613130565b91505061124e565b5060006112b282610ec4565b905060006112c8826112c3876113ea565b6112d6565b905080935050505092915050565b600060026112e4848461110f565b6040516112f19190612981565b602060405180830381855afa15801561130e573d6000803e3d6000fd5b5050506040513d601f19601f820116820180604052508101906113319190612359565b905092915050565b60608160405160200161134c919061291f565b6040516020818303038152906040529050919050565b600061136d82610e39565b60026113799190612e1f565b82611384919061318d565b9050919050565b60008082141561139e57600190506113c2565b6113b36001836113ae9190612f97565b61146f565b60026113bf9190612e1f565b90505b919050565b600080825114156113dd576000801b90506113e5565b602082015190505b919050565b60008061140460006020856116ab9092919063ffffffff16565b9050600061141f60206010866116ab9092919063ffffffff16565b905061144a60405180604001604052806010815260200160008152508261162190919063ffffffff16565b9050611466611458836113c7565b611461836113c7565b6112d6565b92505050919050565b600080600090505b6000831461149957600183901c9250808061149190613130565b915050611477565b80915050919050565b60006114ae83836112d6565b905092915050565b6000806114c284611362565b905060006114cf85610e39565b9050600086905060005b8281101561161057600160028260026114f29190612e1f565b866114fd9190612d9b565b611507919061318d565b14156115875760026115338783815181106115255761152461324b565b5b60200260200101518461110f565b6040516115409190612981565b602060405180830381855afa15801561155d573d6000803e3d6000fd5b5050506040513d601f19601f820116820180604052508101906115809190612359565b91506115fd565b60026115ad838884815181106115a05761159f61324b565b5b602002602001015161110f565b6040516115ba9190612981565b602060405180830381855afa1580156115d7573d6000803e3d6000fd5b5050506040513d601f19601f820116820180604052508101906115fa9190612359565b91505b808061160890613130565b9150506114d9565b508781149350505050949350505050565b6060806040519050835180825260208201818101602087015b81831015611657578051835260208301925060208101905061163a565b50855192508351830184528091508282019050602086015b8183101561168c578051835260208301925060208101905061166f565b50601f19601f8851850115830101166040525050508091505092915050565b606081601f836116bb9190612d45565b10156116fc576040517f08c379a00000000000000000000000000000000000000000000000000000000081526004016116f390612a8d565b60405180910390fd5b81836117089190612d45565b8451101561174b576040517f08c379a000000000000000000000000000000000000000000000000000000000815260040161174290612aed565b60405180910390fd5b606082156000811461176c57604051915060008252602082016040526117bd565b6040519150601f8416801560200281840101858101878315602002848b0101015b818310156117aa578051835260208301925060208101905061178d565b50868552601f19601f8301166040525050505b50809150509392505050565b826020810192821561180b579182015b8281111561180a5782829080546117ef906130cd565b6117fa9291906119c7565b50916001019190600101906117d9565b5b5090506118189190611a54565b5090565b828054611828906130cd565b90600052602060002090601f01602090048101928261184a5760008555611898565b82601f1061185b5780548555611898565b8280016001018555821561189857600052602060002091601f016020900482015b8281111561189757825482559160010191906001019061187c565b5b5090506118a59190611a78565b5090565b82602081019282156118eb579160200282015b828111156118ea5782518290805190602001906118da9291906118fc565b50916020019190600101906118bc565b5b5090506118f89190611a54565b5090565b828054611908906130cd565b90600052602060002090601f01602090048101928261192a5760008555611971565b82601f1061194357805160ff1916838001178555611971565b82800160010185558215611971579182015b82811115611970578251825591602001919060010190611955565b5b50905061197e9190611a78565b5090565b6040518060200160405280600190602082028036833780820191505090505090565b604051806104000160405280602090602082028036833780820191505090505090565b8280546119d3906130cd565b90600052602060002090601f0160209004810192826119f55760008555611a43565b82601f10611a065780548555611a43565b82800160010185558215611a4357600052602060002091601f016020900482015b82811115611a42578254825591600101919060010190611a27565b5b509050611a509190611a78565b5090565b5b80821115611a745760008181611a6b9190611a95565b50600101611a55565b5090565b5b80821115611a91576000816000905550600101611a79565b5090565b508054611aa1906130cd565b6000825580601f10611ab35750611ad2565b601f016020900490600052602060002090810190611ad19190611a78565b5b50565b6000611ae8611ae384612bc8565b612ba3565b90508082856020860282011115611b0257611b016132b8565b5b60005b85811015611b325781611b188882611e45565b845260208401935060208301925050600181019050611b05565b5050509392505050565b6000611b4f611b4a84612bee565b612ba3565b90508082856020860282011115611b6957611b686132b8565b5b60005b85811015611b995781611b7f8882611e6f565b845260208401935060208301925050600181019050611b6c565b5050509392505050565b6000611bb6611bb184612c14565b612ba3565b90508083825260208201905082856020860282011115611bd957611bd86132b8565b5b60005b85811015611c095781611bef8882611e6f565b845260208401935060208301925050600181019050611bdc565b5050509392505050565b6000611c26611c2184612c40565b612ba3565b90508082856020860282011115611c4057611c3f6132b8565b5b60005b85811015611c8e57813567ffffffffffffffff811115611c6657611c656132a9565b5b808601611c738982611eae565b85526020850194506020840193505050600181019050611c43565b5050509392505050565b6000611cab611ca684612c66565b612ba3565b90508083825260208201905082856020860282011115611cce57611ccd6132b8565b5b60005b85811015611d1c57813567ffffffffffffffff811115611cf457611cf36132a9565b5b808601611d018982611eae565b85526020850194506020840193505050600181019050611cd1565b5050509392505050565b6000611d39611d3484612c92565b612ba3565b905082815260208101848484011115611d5557611d546132bd565b5b611d6084828561308b565b509392505050565b600082601f830112611d7d57611d7c6132a9565b5b6020611d8a848285611ad5565b91505092915050565b600082601f830112611da857611da76132a9565b5b6020611db5848285611b3c565b91505092915050565b600082601f830112611dd357611dd26132a9565b5b8135611de3848260208601611ba3565b91505092915050565b600082601f830112611e0157611e006132a9565b5b6020611e0e848285611c13565b91505092915050565b600082601f830112611e2c57611e2b6132a9565b5b8135611e3c848260208601611c98565b91505092915050565b600081359050611e54816135da565b92915050565b600081359050611e69816135f1565b92915050565b600081359050611e7e81613608565b92915050565b600081519050611e9381613608565b92915050565b600081359050611ea88161361f565b92915050565b600082601f830112611ec357611ec26132a9565b5b8135611ed3848260208601611d26565b91505092915050565b60006105a08284031215611ef357611ef26132ae565b5b611efe6101c0612ba3565b9050600082013567ffffffffffffffff811115611f1e57611f1d6132b3565b5b611f2a84828501611eae565b6000830152506020611f3e84828501611d68565b602083015250610420611f5384828501611e6f565b604083015250610440611f6884828501611e6f565b606083015250610460611f7d848285016121a5565b60808301525061048082013567ffffffffffffffff811115611fa257611fa16132b3565b5b611fae84828501611dbe565b60a0830152506104a0611fc384828501611e6f565b60c0830152506104c082013567ffffffffffffffff811115611fe857611fe76132b3565b5b611ff484828501611dbe565b60e0830152506104e0612009848285016121a5565b6101008301525061050082013567ffffffffffffffff81111561202f5761202e6132b3565b5b61203b84828501611dbe565b6101208301525061052061205184828501611e6f565b6101408301525061054082013567ffffffffffffffff811115612077576120766132b3565b5b61208384828501611dbe565b6101608301525061056061209984828501611e6f565b6101808301525061058082013567ffffffffffffffff8111156120bf576120be6132b3565b5b6120cb84828501611dbe565b6101a08301525092915050565b6000606082840312156120ee576120ed6132ae565b5b6120f86060612ba3565b9050600082013567ffffffffffffffff811115612118576121176132b3565b5b61212484828501611dec565b600083015250602082013567ffffffffffffffff811115612148576121476132b3565b5b61215484828501611eae565b602083015250604082013567ffffffffffffffff811115612178576121776132b3565b5b61218484828501611dbe565b60408301525092915050565b60008135905061219f81613636565b92915050565b6000813590506121b48161364d565b92915050565b600061040082840312156121d1576121d06132c7565b5b60006121df84828501611d68565b91505092915050565b600061040082840312156121ff576121fe6132c7565b5b600061220d84828501611d93565b91505092915050565b600080600061044084860312156122305761222f6132c7565b5b600084013567ffffffffffffffff81111561224e5761224d6132c2565b5b61225a86828701611dec565b935050602061226b86828701611d68565b92505061042061227d86828701612190565b9150509250925092565b6000806040838503121561229e5761229d6132c7565b5b600083013567ffffffffffffffff8111156122bc576122bb6132c2565b5b6122c885828601611dec565b925050602083013567ffffffffffffffff8111156122e9576122e86132c2565b5b6122f585828601611eae565b9150509250929050565b600060208284031215612315576123146132c7565b5b600061232384828501611e5a565b91505092915050565b600060208284031215612342576123416132c7565b5b600061235084828501611e6f565b91505092915050565b60006020828403121561236f5761236e6132c7565b5b600061237d84828501611e84565b91505092915050565b6000806040838503121561239d5761239c6132c7565b5b60006123ab85828601611e6f565b92505060206123bc85828601611e6f565b9150509250929050565b600080600080608085870312156123e0576123df6132c7565b5b60006123ee87828801611e6f565b94505060206123ff87828801611e6f565b935050604061241087828801612190565b925050606085013567ffffffffffffffff811115612431576124306132c2565b5b61243d87828801611dbe565b91505092959194509250565b600080600060608486031215612462576124616132c7565b5b600061247086828701611e6f565b935050602084013567ffffffffffffffff811115612491576124906132c2565b5b61249d86828701611eae565b925050604084013567ffffffffffffffff8111156124be576124bd6132c2565b5b6124ca86828701611e17565b9150509250925092565b6000602082840312156124ea576124e96132c7565b5b60006124f884828501611e99565b91505092915050565b600060208284031215612517576125166132c7565b5b600082013567ffffffffffffffff811115612535576125346132c2565b5b61254184828501611eae565b91505092915050565b60008060408385031215612561576125606132c7565b5b600083013567ffffffffffffffff81111561257f5761257e6132c2565b5b61258b85828601611edc565b925050602083013567ffffffffffffffff8111156125ac576125ab6132c2565b5b6125b8858286016120d8565b9150509250929050565b6000602082840312156125d8576125d76132c7565b5b60006125e684828501612190565b91505092915050565b600060208284031215612605576126046132c7565b5b6000612613848285016121a5565b91505092915050565b60006126288383612700565b905092915050565b600061263b82612cd3565b6126458185612cf6565b93508360208202850161265785612cc3565b8060005b858110156126935784840389528151612674858261261c565b945061267f83612ce9565b925060208a0199505060018101905061265b565b50829750879550505050505092915050565b6126ae81612fff565b82525050565b6126c56126c08261300b565b613179565b82525050565b6126d481613037565b82525050565b6126eb6126e682613037565b613183565b82525050565b6126fa81613041565b82525050565b600061270b82612cde565b6127158185612d07565b935061272581856020860161309a565b61272e816132cc565b840191505092915050565b600061274482612cde565b61274e8185612d18565b935061275e81856020860161309a565b612767816132cc565b840191505092915050565b600061277d82612cde565b6127878185612d29565b935061279781856020860161309a565b80840191505092915050565b60006127b0602f83612d34565b91506127bb826132ea565b604082019050919050565b60006127d3603283612d34565b91506127de82613339565b604082019050919050565b60006127f6603283612d34565b915061280182613388565b604082019050919050565b6000612819600e83612d34565b9150612824826133d7565b602082019050919050565b600061283c602d83612d34565b915061284782613400565b604082019050919050565b600061285f602183612d34565b915061286a8261344f565b604082019050919050565b6000612882601183612d34565b915061288d8261349e565b602082019050919050565b60006128a5605083612d34565b91506128b0826134c7565b606082019050919050565b60006128c8602a83612d34565b91506128d38261353c565b604082019050919050565b60006128eb602c83612d34565b91506128f68261358b565b604082019050919050565b61290a8161306d565b82525050565b61291981613077565b82525050565b600061292b82846126b4565b60028201915081905092915050565b600061294682846126da565b60208201915081905092915050565b600061296182856126da565b60208201915061297182846126da565b6020820191508190509392505050565b600061298d8284612772565b915081905092915050565b600060208201905081810360008301526129b28184612630565b905092915050565b60006020820190506129cf60008301846126a5565b92915050565b60006020820190506129ea60008301846126cb565b92915050565b6000602082019050612a0560008301846126f1565b92915050565b60006020820190508181036000830152612a258184612739565b905092915050565b60006020820190508181036000830152612a46816127a3565b9050919050565b60006020820190508181036000830152612a66816127c6565b9050919050565b60006020820190508181036000830152612a86816127e9565b9050919050565b60006020820190508181036000830152612aa68161280c565b9050919050565b60006020820190508181036000830152612ac68161282f565b9050919050565b60006020820190508181036000830152612ae681612852565b9050919050565b60006020820190508181036000830152612b0681612875565b9050919050565b60006020820190508181036000830152612b2681612898565b9050919050565b60006020820190508181036000830152612b46816128bb565b9050919050565b60006020820190508181036000830152612b66816128de565b9050919050565b6000602082019050612b826000830184612901565b92915050565b6000602082019050612b9d6000830184612910565b92915050565b6000612bad612bbe565b9050612bb982826130ff565b919050565b6000604051905090565b600067ffffffffffffffff821115612be357612be261327a565b5b602082029050919050565b600067ffffffffffffffff821115612c0957612c0861327a565b5b602082029050919050565b600067ffffffffffffffff821115612c2f57612c2e61327a565b5b602082029050602081019050919050565b600067ffffffffffffffff821115612c5b57612c5a61327a565b5b602082029050919050565b600067ffffffffffffffff821115612c8157612c8061327a565b5b602082029050602081019050919050565b600067ffffffffffffffff821115612cad57612cac61327a565b5b612cb6826132cc565b9050602081019050919050565b6000819050602082019050919050565b600081519050919050565b600081519050919050565b6000602082019050919050565b600082825260208201905092915050565b600082825260208201905092915050565b600082825260208201905092915050565b600081905092915050565b600082825260208201905092915050565b6000612d508261306d565b9150612d5b8361306d565b9250827fffffffffffffffffffffffffffffffffffffffffffffffffffffffffffffffff03821115612d9057612d8f6131be565b5b828201905092915050565b6000612da68261306d565b9150612db18361306d565b925082612dc157612dc06131ed565b5b828204905092915050565b6000808291508390505b6001851115612e1657808604811115612df257612df16131be565b5b6001851615612e015780820291505b8081029050612e0f856132dd565b9450612dd6565b94509492505050565b6000612e2a8261306d565b9150612e358361306d565b9250612e627fffffffffffffffffffffffffffffffffffffffffffffffffffffffffffffffff8484612e6a565b905092915050565b600082612e7a5760019050612f36565b81612e885760009050612f36565b8160018114612e9e5760028114612ea857612ed7565b6001915050612f36565b60ff841115612eba57612eb96131be565b5b8360020a915084821115612ed157612ed06131be565b5b50612f36565b5060208310610133831016604e8410600b8410161715612f0c5782820a905083811115612f0757612f066131be565b5b612f36565b612f198484846001612dcc565b92509050818404811115612f3057612f2f6131be565b5b81810290505b9392505050565b6000612f488261306d565b9150612f538361306d565b9250817fffffffffffffffffffffffffffffffffffffffffffffffffffffffffffffffff0483118215151615612f8c57612f8b6131be565b5b828202905092915050565b6000612fa28261306d565b9150612fad8361306d565b925082821015612fc057612fbf6131be565b5b828203905092915050565b6000612fd682613077565b9150612fe183613077565b925082821015612ff457612ff36131be565b5b828203905092915050565b60008115159050919050565b60007fffff00000000000000000000000000000000000000000000000000000000000082169050919050565b6000819050919050565b60007fffffffffffffffff00000000000000000000000000000000000000000000000082169050919050565b6000819050919050565b600067ffffffffffffffff82169050919050565b82818337600083830152505050565b60005b838110156130b857808201518184015260208101905061309d565b838111156130c7576000848401525b50505050565b600060028204905060018216806130e557607f821691505b602082108114156130f9576130f861321c565b5b50919050565b613108826132cc565b810181811067ffffffffffffffff821117156131275761312661327a565b5b80604052505050565b600061313b8261306d565b91507fffffffffffffffffffffffffffffffffffffffffffffffffffffffffffffffff82141561316e5761316d6131be565b5b600182019050919050565b6000819050919050565b6000819050919050565b60006131988261306d565b91506131a38361306d565b9250826131b3576131b26131ed565b5b828206905092915050565b7f4e487b7100000000000000000000000000000000000000000000000000000000600052601160045260246000fd5b7f4e487b7100000000000000000000000000000000000000000000000000000000600052601260045260246000fd5b7f4e487b7100000000000000000000000000000000000000000000000000000000600052602260045260246000fd5b7f4e487b7100000000000000000000000000000000000000000000000000000000600052603260045260246000fd5b7f4e487b7100000000000000000000000000000000000000000000000000000000600052604160045260246000fd5b600080fd5b600080fd5b600080fd5b600080fd5b600080fd5b600080fd5b600080fd5b6000601f19601f8301169050919050565b60008160011c9050919050565b7f6d65726b6c652070726f6f6620666f722066696e616c697a656420737461746560008201527f20726f6f74206e6f742076616c69640000000000000000000000000000000000602082015250565b7f6d65726b6c652070726f6f66206f66206e657874206e6578742073796e63206360008201527f6f6d6d6974746565206e6f742076616c69640000000000000000000000000000602082015250565b7f5f696e70757420746f20666c6f6f724c6f6732206d757374206265206c61726760008201527f6572206f7220657175616c207468616e20310000000000000000000000000000602082015250565b7f736c6963655f6f766572666c6f77000000000000000000000000000000000000600082015250565b7f7369676e61747572652062792063757272656e742073796e6320636f6d6d697460008201527f746565206e6f742076616c696400000000000000000000000000000000000000602082015250565b7f6e6f7420656e6f756768207369676e6174757265207061727469636970616e7460008201527f7300000000000000000000000000000000000000000000000000000000000000602082015250565b7f736c6963655f6f75744f66426f756e6473000000000000000000000000000000600082015250565b7f6c617465737420736c6f7420646f6573206e6f7420696e64696361746520746860008201527f61742063757272656e74206f72206e6578742073796e6320636f6d6d6974746560208201527f6520697320726573706f6e7369626c6500000000000000000000000000000000604082015250565b7f7369676e6174757265206279206e6578742073796e6320636f6d6d697474656560008201527f206e6f742076616c696400000000000000000000000000000000000000000000602082015250565b7f6d65726b6c652070726f6f6620666f72206c617465737420737461746520726f60008201527f6f74206e6f742076616c69640000000000000000000000000000000000000000602082015250565b6135e381612fff565b81146135ee57600080fd5b50565b6135fa8161300b565b811461360557600080fd5b50565b61361181613037565b811461361c57600080fd5b50565b61362881613041565b811461363357600080fd5b50565b61363f8161306d565b811461364a57600080fd5b50565b61365681613077565b811461366157600080fd5b5056fea2646970667358221220abf8cd4a4f7499bba91caefa7c9f156b9012c97f4593d67cb139810059f4ad7a64736f6c63430008060033",
  "immutableReferences": {},
  "source": "// SPDX-License-Identifier: UNLICENSED\npragma solidity >=0.8.0 <0.9.0;\n\nimport \"bytes/BytesLib.sol\";\n\n// debug settings\nbool constant MOCK_BLS_PRECOMPILE = false;\n\n// magic numbers\nuint constant FIRST_BEACON_BLOCK_UNIX_TIMESTAMP = 1606824023;\n\n// eth2 mainnet configuration\nuint constant SYNC_COMMITTEE_SIZE = 32;\nuint constant SECONDS_PER_SLOT = 12;\nuint constant SLOTS_PER_EPOCH = 32;\nuint constant EPOCHS_PER_SYNC_COMMITTEE_PERIOD = 512;\n\n// SSZ generalized indices\nuint constant FINALIZED_ROOT_INDEX = 105;\nuint constant FINALIZED_EPOCH_INDEX = 104;\nuint constant NEXT_SYNC_COMMITTEE_INDEX = 55;\nuint constant NEXT_SYNC_COMMITTEE_PUBKEYS_INDEX = 110;\nuint constant SLOT_INDEX = 8;\nuint constant STATE_ROOT_INDEX = 11;\n\nstruct ChainRelayUpdate {\n    bytes signature;\n    bool[SYNC_COMMITTEE_SIZE] participants;\n    bytes32 latestBlockRoot;\n    bytes32 signingDomain;\n    uint64 latestSlot;\n    bytes32[] latestSlotBranch; \n    bytes32 finalizedBlockRoot; \n    bytes32[] finalizingBranch; \n    uint64 finalizedSlot; \n    bytes32[] finalizedSlotBranch; \n    bytes32 finalizedStateRoot;\n    bytes32[] finalizedStateRootBranch;\n    bytes32 stateRoot;\n    bytes32[] stateRootBranch; \n}\n\nstruct SyncCommitteeUpdate {\n    bytes[SYNC_COMMITTEE_SIZE] nextNextValidatorSet;\n    bytes nextNextValidatorSetAggregate;\n    bytes32[] nextNextValidatorSetBranch;\n}\n\n/** \n * @title Chain Relay\n * @dev Implements a chain relay/light client for eth2 consensus post-altair (including sync committees)\n */\ncontract Eth2ChainRelay_32 {\n    using BytesLib for bytes;\n\n    uint64 private signatureThreshold; // 0 < signatureThreshold <= 512\n    uint64 private trustingPeriod; // validators are trusted for a certain time, ensuring they have not exited the validator set, in unix time\n    bytes[SYNC_COMMITTEE_SIZE] private currentValidatorSet;\n    bytes private currentValidatorSetAggregate;\n    bytes[SYNC_COMMITTEE_SIZE] private nextValidatorSet;\n    bytes private nextValidatorSetAggregate;\n    bytes32 private finalizedBlockRoot;\n    bytes32 private finalizedStateRoot; \n    uint64 private latestSlot;\n    uint64 private latestSlotWithValidatorSetChange;\n    uint64 private finalizedSlot;\n    \n    constructor(uint64 _signatureThreshold, \n                uint64 _trustingPeriod, \n                bytes[SYNC_COMMITTEE_SIZE] memory _currentValidatorSet, \n                bytes memory _currentValidatorSetAggregate,\n                bytes[SYNC_COMMITTEE_SIZE] memory _nextValidatorSet,\n                bytes memory _nextValidatorSetAggregate,\n                bytes32 _finalizedBlockRoot,\n                bytes32 _finalizedStateRoot,\n                uint64 _finalizedSlot,\n                uint64 _latestSlot,\n                uint64 _latestSlotWithValidatorSetChange) \n    {\n        signatureThreshold=_signatureThreshold;\n        trustingPeriod=_trustingPeriod;\n        currentValidatorSet=_currentValidatorSet;\n        currentValidatorSetAggregate=_currentValidatorSetAggregate;\n        nextValidatorSet=_nextValidatorSet;\n        nextValidatorSetAggregate=_nextValidatorSetAggregate;\n        finalizedBlockRoot=_finalizedBlockRoot;\n        latestSlot=_latestSlot;\n        latestSlotWithValidatorSetChange=_latestSlotWithValidatorSetChange;\n        finalizedSlot=_finalizedSlot;\n        finalizedStateRoot=_finalizedStateRoot;\n    }\n\n    function getLatestSlotWithValidatorSetChange() public view returns (uint64) {\n        return latestSlotWithValidatorSetChange;\n    }\n    \n    function getFinalizedBlockRoot() public view returns (bytes32) {\n        return finalizedBlockRoot;\n    }\n    \n    function getFinalizedStateRoot() public view returns (bytes32) {\n        return finalizedStateRoot;\n    }\n    \n    function submitUpdate(ChainRelayUpdate memory _chainRelayUpdate, SyncCommitteeUpdate memory _syncCommitteeUpdate) public returns (bool) {\n        bytes32 signingRoot = computeSigningRoot(_chainRelayUpdate.latestBlockRoot, _chainRelayUpdate.signingDomain);\n        uint numberOfParticipants = countTrueBools(_chainRelayUpdate.participants);\n        require(\n            numberOfParticipants >= signatureThreshold, \n            \"not enough signature participants\");\n        require(\n            validateMerkleBranch(\n                _chainRelayUpdate.latestBlockRoot, \n                _chainRelayUpdate.stateRoot, \n                STATE_ROOT_INDEX, \n                _chainRelayUpdate.stateRootBranch), \n            \"merkle proof for latest state root not valid\");\n        //require(\n            validateMerkleBranch(\n                _chainRelayUpdate.latestBlockRoot, \n                merklelizeSlot(_chainRelayUpdate.latestSlot), \n                SLOT_INDEX, \n                _chainRelayUpdate.latestSlotBranch)\n                //,\"merkle proof for latest slot not valid\")\n            ;\n        /*require(\n            validateMerkleBranch(\n                _chainRelayUpdate.stateRoot, \n                _chainRelayUpdate.finalizedBlockRoot, \n                FINALIZED_ROOT_INDEX, \n                _chainRelayUpdate.finalizingBranch) ,\"merkle proof for finalized block root not valid\");*/\n        //require(\n            validateMerkleBranch(\n                _chainRelayUpdate.finalizedBlockRoot, \n                merklelizeSlot(_chainRelayUpdate.finalizedSlot), \n                SLOT_INDEX, \n                _chainRelayUpdate.finalizedSlotBranch)\n                //, \"merkle proof for finalized slot not valid\")\n            ;\n        require(\n            validateMerkleBranch(\n                _chainRelayUpdate.finalizedBlockRoot, \n                _chainRelayUpdate.finalizedStateRoot, \n                STATE_ROOT_INDEX, \n                _chainRelayUpdate.finalizedStateRootBranch), \n            \"merkle proof for finalized state root not valid\");\n        uint slot_distance = _chainRelayUpdate.latestSlot - latestSlotWithValidatorSetChange; \n        if ((slot_distance / (SLOTS_PER_EPOCH * EPOCHS_PER_SYNC_COMMITTEE_PERIOD)) == 0) {\n           require(\n               fastAggregateVerify(serializeAggregateSignature(\n                   signingRoot, \n                   _chainRelayUpdate.signature, \n                   getActiveValidators(currentValidatorSet, _chainRelayUpdate.participants, numberOfParticipants))), \n               \"signature by current sync committee not valid\");\n        } else if ((slot_distance / (SLOTS_PER_EPOCH * EPOCHS_PER_SYNC_COMMITTEE_PERIOD)) == 1) {\n            require(\n                fastAggregateVerify(serializeAggregateSignature(\n                    signingRoot, \n                    _chainRelayUpdate.signature, \n                    getActiveValidators(nextValidatorSet, _chainRelayUpdate.participants, numberOfParticipants))), \n                \"signature by next sync committee not valid\");\n            bytes32 merklelizedNextNextSyncCommittee = hashTreeRootSyncCommittee(_syncCommitteeUpdate.nextNextValidatorSet, _syncCommitteeUpdate.nextNextValidatorSetAggregate);\n            require(\n                validateMerkleBranch(\n                    _chainRelayUpdate.finalizedStateRoot, \n                    merklelizedNextNextSyncCommittee, \n                    NEXT_SYNC_COMMITTEE_INDEX, \n                    _syncCommitteeUpdate.nextNextValidatorSetBranch), \n                \"merkle proof of next next sync committee not valid\");\n            currentValidatorSet = nextValidatorSet; \n            currentValidatorSetAggregate = nextValidatorSetAggregate;\n            nextValidatorSet = _syncCommitteeUpdate.nextNextValidatorSet; \n            nextValidatorSetAggregate = _syncCommitteeUpdate.nextNextValidatorSetAggregate;\n            latestSlotWithValidatorSetChange = _chainRelayUpdate.finalizedSlot;\n        } else {\n            revert(\"latest slot does not indicate that current or next sync committee is responsible\");\n        }\n        finalizedBlockRoot = _chainRelayUpdate.finalizedBlockRoot; \n        finalizedStateRoot = _chainRelayUpdate.finalizedStateRoot;\n        latestSlot = _chainRelayUpdate.latestSlot;\n        finalizedSlot = _chainRelayUpdate.finalizedSlot;\n        return true;\n    }\n    \n    function getActiveValidators(bytes[SYNC_COMMITTEE_SIZE] memory _pubkeys, bool[SYNC_COMMITTEE_SIZE] memory _isActive, uint _numberOfActive) public pure returns (bytes[] memory) {\n        bytes[] memory active_validators = new bytes[](_numberOfActive);\n        uint counter = 0;\n        for (uint i = 0; i < SYNC_COMMITTEE_SIZE; i++) {\n            if (_isActive[i]) {\n                active_validators[counter] = _pubkeys[i];\n                counter++;\n            }\n        }\n        return active_validators;\n    }\n    \n    function countTrueBools(bool[SYNC_COMMITTEE_SIZE] memory _bools) public pure returns (uint) {\n        uint counter = 0;\n        for (uint i = 0; i < SYNC_COMMITTEE_SIZE; i++) {\n            if (_bools[i] == true) {\n                counter++;\n            }\n        }\n        return counter;\n    }\n\n    function serializeAggregateSignature(bytes32 _message, bytes memory _signature, bytes[] memory _pubkeys) public pure returns (bytes memory) {\n        bytes2 length = bytes2(uint16(_pubkeys.length));\n        bytes memory serialized = new bytes(0);\n        serialized = serialized.concat(bytes32ToBytes(_message));\n        serialized = serialized.concat(_signature);\n        serialized = serialized.concat(bytes2ToBytes(length));\n        for (uint i = 0; i < _pubkeys.length; i++) {\n            serialized = serialized.concat(_pubkeys[i]);\n        }\n        /* fallback w/o library\n        bytes memory serialized = new bytes(32+96+2+48*_pubkeys.length);\n        for (uint i = 0; i < 32; i++) {\n            serialized[i] = _message[i];\n        }\n        for (uint i = 32; i < 128; i++) {\n            serialized[i] = _signature[i-32];\n        }\n        for (uint i = 128; i < 130; i++) {\n            serialized[i] = length[i-128];\n        }\n        for (uint i = 0; i < _pubkeys.length; i++) {\n            for (uint j = 0; j < 48; j++) {\n            //for (uint j = 0; j < _pubkeys[i].length; j++) {\n                serialized[32+96+2+i*48+j] = _pubkeys[i][j];\n            }\n        }*/\n        return serialized;\n    }\n    \n    function fastAggregateVerify(bytes memory _input) public view returns (bool o) {\n        if (MOCK_BLS_PRECOMPILE) {\n            return true;\n        }\n        bool[1] memory outCache;\n        assembly {\n            let p := mload(0x40)\n            let length := mload(_input)\n            if iszero(staticcall(gas(), 0x05, add(_input,32), length, outCache, 32)) { // first 32 yte of _input are length\n                revert(0, 0)\n            }\n        }\n        o = outCache[0];\n    }\n    \n    function slotToUnixTimestamp(uint _slot) public pure returns (uint timestamp) {\n        return _slot * SECONDS_PER_SLOT + FIRST_BEACON_BLOCK_UNIX_TIMESTAMP;\n    }\n    \n    function bytes32ToBytes(bytes32 _input) public pure returns (bytes memory output) {\n        return abi.encodePacked(_input);\n    }\n    \n    function bytes2ToBytes(bytes2 _input) public pure returns (bytes memory output) {\n        return abi.encodePacked(_input);\n    }\n    \n    function concat(bytes32 _left, bytes32 _right) public pure returns (bytes memory) {\n        return bytes.concat(_left, _right);\n        // below is fallback code for older solidity versions\n        /*bytes memory concatenated;\n        for (uint i = 0; i<32; i++) {\n            concatenated[i] = left[i];\n        }\n        for (uint i = 0; i<32; i++) {\n            concatenated[i+32] = right[i];\n        }\n        return concatenated;*/\n    }\n\n    function hashTreeRootPair(bytes32 _left, bytes32 _right) public pure returns (bytes32) {\n        return sha256(concat(_left, _right));\n    }\n    \n    function hashTreeRootBlspubkey (bytes memory _blspubkey) public pure returns (bytes32) {\n        bytes memory blspubkeyMerkleizedLeft = _blspubkey.slice(0, 32);\n        bytes memory blspubkeyMerkleizedRight = _blspubkey.slice(32, 16);\n        blspubkeyMerkleizedRight = blspubkeyMerkleizedRight.concat(bytes(hex\"00000000000000000000000000000000\"));\n        /* fallback w/o library\n        bytes memory blspubkeyMerkleizedLeft = new bytes(32);\n        for (uint i = 0; i<32; i++) {\n            blspubkeyMerkleizedLeft[i] = _blspubkey[i];\n        }\n        bytes memory blspubkeyMerkleizedRight = new bytes(32);\n        for (uint i = 0; i<16; i++) { // rest of blspubkeyMerkleizedRight is initialized zero\n            blspubkeyMerkleizedRight[i] = _blspubkey[i+32];\n        }*/\n        return hashTreeRootPair(bytesToBytes32(blspubkeyMerkleizedLeft), bytesToBytes32(blspubkeyMerkleizedRight));\n    }\n    \n    function computeSigningRoot(bytes32 _blockRoot, bytes32 _signingDomain) public pure returns (bytes32) {\n        return hashTreeRootPair(_blockRoot, _signingDomain);\n    }\n    \n    function bytesToBytes8(bytes memory _input) public pure returns (bytes8 result) {\n        if (_input.length == 0) {\n            return 0x0;\n        }\n        assembly {\n            result := mload(add(_input, 32))\n        }\n    }\n    \n    function bytesToBytes32(bytes memory _input) public pure returns (bytes32 result) {\n        if (_input.length == 0) {\n            return 0x0;\n        }\n        assembly {\n            result := mload(add(_input, 32))\n        }\n    }\n\n    function revertBytes8(bytes8 _input) public pure returns (bytes8) {\n        bytes memory reverted = new bytes(8);\n        for (uint i = 0; i < 8; i++) {\n            reverted[7-i] = _input[i];\n        }\n        return bytesToBytes8(reverted);\n    }\n\n    function merklelizeSlot(uint64 _input) public pure returns (bytes32) {\n        return bytes32(revertBytes8(bytes8(_input)));\n    }\n    \n    function bitLength(uint _input) public pure returns (uint) {\n        uint length = 0;\n        while (_input != 0) \n        {\n            _input >>= 1; \n            length++; \n        }\n        return length;\n    }\n    \n    function nextPowOfTwo(uint _input) public pure returns (uint) {\n        if (_input == 0) {\n            return 1;\n        } else {\n            return 2**(bitLength(_input-1));\n        }\n    }\n    \n    function floorLog2 (uint _input) public pure returns (uint) {\n        require(_input >= 1, \"_input to floorLog2 must be larger or equal than 1\");\n        return bitLength(_input)-1;\n    }\n    \n    function merkleize(bytes32[SYNC_COMMITTEE_SIZE] memory _chunks) public pure returns (bytes32) {\n        uint length_next_pow = nextPowOfTwo(_chunks.length);\n        for (uint i = _chunks.length; i < length_next_pow; i++) {\n           // fill lowest level \n           // TODO not necessary b/c size always 2^n?\n        }\n        for (uint level = 0; level<floorLog2(length_next_pow); level++) {\n            uint step = 2**level;\n            for (uint current_accumulator = 0; current_accumulator < length_next_pow; current_accumulator += step*2) {\n                _chunks[current_accumulator] = hashTreeRootPair(_chunks[current_accumulator], _chunks[current_accumulator+step]);\n            }\n        }\n        return _chunks[0];\n    }\n    \n    function hashTreeRootSyncCommittee(bytes[SYNC_COMMITTEE_SIZE] memory _syncCommittee, bytes memory _syncAggregate) public pure returns (bytes32) {\n        bytes32[SYNC_COMMITTEE_SIZE] memory syncCommitteeHashed;\n        for (uint i = 0; i < SYNC_COMMITTEE_SIZE; i++) {\n            syncCommitteeHashed[i] = hashTreeRootBlspubkey(_syncCommittee[i]);\n        }\n        bytes32 syncCommitteeHashedMerkleized = merkleize(syncCommitteeHashed);\n        bytes32 syncCommitteeRoot = hashTreeRootPair(syncCommitteeHashedMerkleized, hashTreeRootBlspubkey(_syncAggregate));\n        return syncCommitteeRoot;\n    }\n    \n    function getSubtreeIndex(uint _generalizedIndex) public pure returns (uint) {\n        return _generalizedIndex % 2**(floorLog2(_generalizedIndex));\n    }\n    \n    function validateMerkleBranch(bytes32 _root, bytes32 _leaf, uint _generalizedIndex, bytes32[] memory _branch) public pure returns (bool) {\n        uint index = getSubtreeIndex(_generalizedIndex);\n        uint depth = floorLog2(_generalizedIndex);\n        bytes32 value = _leaf;\n        for (uint i = 0; i < depth; i++) {\n            if ((index / (2**i) % 2) == 1) {\n                value = sha256(concat(_branch[i],value));\n            } else {\n                value = sha256(concat(value,_branch[i]));\n            }\n        }\n        return value == _root;\n    }\n    \n}",
  "sourcePath": "/Users/Max/Documents/PoSChainRelay/Eth2ChainRelay/contracts/Eth2ChainRelay_32.sol",
  "compiler": {
    "name": "solc",
    "version": "0.8.6+commit.11564f7e.Emscripten.clang"
  },
  "schemaVersion": "3.4.1",
  "updatedAt": "2021-08-07T09:36:12.655Z",
  "networkType": "ethereum",
  "devdoc": {
    "details": "Implements a chain relay/light client for eth2 consensus post-altair (including sync committees)",
    "kind": "dev",
    "methods": {},
    "title": "Chain Relay",
    "version": 1
  },
  "userdoc": {
    "kind": "user",
    "methods": {},
    "version": 1
  }
}