{
  "contractName": "Eth2ChainRelay",
  "abi": [
    {
      "inputs": [
        {
          "internalType": "uint64",
          "name": "_signatureThreshold",
          "type": "uint64"
        },
        {
          "internalType": "uint64",
          "name": "_trustingPeriod",
          "type": "uint64"
        },
        {
          "internalType": "bytes[2]",
          "name": "_currentValidatorSet",
          "type": "bytes[2]"
        },
        {
          "internalType": "bytes",
          "name": "_currentValidatorSetAggregate",
          "type": "bytes"
        },
        {
          "internalType": "bytes[2]",
          "name": "_nextValidatorSet",
          "type": "bytes[2]"
        },
        {
          "internalType": "bytes",
          "name": "_nextValidatorSetAggregate",
          "type": "bytes"
        },
        {
          "internalType": "bytes32",
          "name": "_finalizedBlockRoot",
          "type": "bytes32"
        },
        {
          "internalType": "bytes32",
          "name": "_finalizedStateRoot",
          "type": "bytes32"
        },
        {
          "internalType": "uint64",
          "name": "_finalizedSlot",
          "type": "uint64"
        },
        {
          "internalType": "uint64",
          "name": "_latestSlot",
          "type": "uint64"
        },
        {
          "internalType": "uint64",
          "name": "_latestSlotWithValidatorSetChange",
          "type": "uint64"
        }
      ],
      "stateMutability": "nonpayable",
      "type": "constructor"
    },
    {
      "inputs": [],
      "name": "getFinalizedBlockRoot",
      "outputs": [
        {
          "internalType": "bytes32",
          "name": "",
          "type": "bytes32"
        }
      ],
      "stateMutability": "view",
      "type": "function",
      "constant": true
    },
    {
      "inputs": [],
      "name": "getFinalizedStateRoot",
      "outputs": [
        {
          "internalType": "bytes32",
          "name": "",
          "type": "bytes32"
        }
      ],
      "stateMutability": "view",
      "type": "function",
      "constant": true
    },
    {
      "inputs": [
        {
          "components": [
            {
              "internalType": "bytes",
              "name": "signature",
              "type": "bytes"
            },
            {
              "internalType": "bool[2]",
              "name": "participants",
              "type": "bool[2]"
            },
            {
              "internalType": "bytes32",
              "name": "latestBlockRoot",
              "type": "bytes32"
            },
            {
              "internalType": "bytes32",
              "name": "signingDomain",
              "type": "bytes32"
            },
            {
              "internalType": "uint64",
              "name": "latestSlot",
              "type": "uint64"
            },
            {
              "internalType": "bytes32[]",
              "name": "latestSlotBranch",
              "type": "bytes32[]"
            },
            {
              "internalType": "bytes32",
              "name": "finalizedBlockRoot",
              "type": "bytes32"
            },
            {
              "internalType": "bytes32[]",
              "name": "finalizingBranch",
              "type": "bytes32[]"
            },
            {
              "internalType": "uint64",
              "name": "finalizedSlot",
              "type": "uint64"
            },
            {
              "internalType": "bytes32[]",
              "name": "finalizedSlotBranch",
              "type": "bytes32[]"
            },
            {
              "internalType": "bytes32",
              "name": "finalizedStateRoot",
              "type": "bytes32"
            },
            {
              "internalType": "bytes32[]",
              "name": "finalizedStateRootBranch",
              "type": "bytes32[]"
            },
            {
              "internalType": "bytes32",
              "name": "stateRoot",
              "type": "bytes32"
            },
            {
              "internalType": "bytes32[]",
              "name": "stateRootBranch",
              "type": "bytes32[]"
            }
          ],
          "internalType": "struct ChainRelayUpdate",
          "name": "_chainRelayUpdate",
          "type": "tuple"
        },
        {
          "components": [
            {
              "internalType": "bytes[2]",
              "name": "nextNextValidatorSet",
              "type": "bytes[2]"
            },
            {
              "internalType": "bytes",
              "name": "nextNextValidatorSetAggregate",
              "type": "bytes"
            },
            {
              "internalType": "bytes32[]",
              "name": "nextNextValidatorSetBranch",
              "type": "bytes32[]"
            }
          ],
          "internalType": "struct SyncCommitteeUpdate",
          "name": "_syncCommitteeUpdate",
          "type": "tuple"
        }
      ],
      "name": "submitUpdate",
      "outputs": [
        {
          "internalType": "bool",
          "name": "",
          "type": "bool"
        }
      ],
      "stateMutability": "nonpayable",
      "type": "function"
    },
    {
      "inputs": [
        {
          "internalType": "bytes[2]",
          "name": "_pubkeys",
          "type": "bytes[2]"
        },
        {
          "internalType": "bool[2]",
          "name": "_isActive",
          "type": "bool[2]"
        },
        {
          "internalType": "uint256",
          "name": "_numberOfActive",
          "type": "uint256"
        }
      ],
      "name": "getActiveValidators",
      "outputs": [
        {
          "internalType": "bytes[]",
          "name": "",
          "type": "bytes[]"
        }
      ],
      "stateMutability": "pure",
      "type": "function",
      "constant": true
    },
    {
      "inputs": [
        {
          "internalType": "bool[2]",
          "name": "_bools",
          "type": "bool[2]"
        }
      ],
      "name": "countTrueBools",
      "outputs": [
        {
          "internalType": "uint256",
          "name": "",
          "type": "uint256"
        }
      ],
      "stateMutability": "pure",
      "type": "function",
      "constant": true
    },
    {
      "inputs": [
        {
          "internalType": "bytes32",
          "name": "_message",
          "type": "bytes32"
        },
        {
          "internalType": "bytes",
          "name": "_signature",
          "type": "bytes"
        },
        {
          "internalType": "bytes[]",
          "name": "_pubkeys",
          "type": "bytes[]"
        }
      ],
      "name": "serializeAggregateSignature",
      "outputs": [
        {
          "internalType": "bytes",
          "name": "",
          "type": "bytes"
        }
      ],
      "stateMutability": "pure",
      "type": "function",
      "constant": true
    },
    {
      "inputs": [
        {
          "internalType": "bytes",
          "name": "_input",
          "type": "bytes"
        }
      ],
      "name": "fastAggregateVerify",
      "outputs": [
        {
          "internalType": "bool",
          "name": "o",
          "type": "bool"
        }
      ],
      "stateMutability": "view",
      "type": "function",
      "constant": true
    },
    {
      "inputs": [
        {
          "internalType": "uint256",
          "name": "_slot",
          "type": "uint256"
        }
      ],
      "name": "slotToUnixTimestamp",
      "outputs": [
        {
          "internalType": "uint256",
          "name": "timestamp",
          "type": "uint256"
        }
      ],
      "stateMutability": "pure",
      "type": "function",
      "constant": true
    },
    {
      "inputs": [
        {
          "internalType": "bytes32",
          "name": "_input",
          "type": "bytes32"
        }
      ],
      "name": "toBytes",
      "outputs": [
        {
          "internalType": "bytes",
          "name": "output",
          "type": "bytes"
        }
      ],
      "stateMutability": "pure",
      "type": "function",
      "constant": true
    },
    {
      "inputs": [
        {
          "internalType": "bytes32",
          "name": "_left",
          "type": "bytes32"
        },
        {
          "internalType": "bytes32",
          "name": "_right",
          "type": "bytes32"
        }
      ],
      "name": "concat",
      "outputs": [
        {
          "internalType": "bytes",
          "name": "",
          "type": "bytes"
        }
      ],
      "stateMutability": "pure",
      "type": "function",
      "constant": true
    },
    {
      "inputs": [
        {
          "internalType": "bytes32",
          "name": "_left",
          "type": "bytes32"
        },
        {
          "internalType": "bytes32",
          "name": "_right",
          "type": "bytes32"
        }
      ],
      "name": "hashTreeRootPair",
      "outputs": [
        {
          "internalType": "bytes32",
          "name": "",
          "type": "bytes32"
        }
      ],
      "stateMutability": "pure",
      "type": "function",
      "constant": true
    },
    {
      "inputs": [
        {
          "internalType": "bytes",
          "name": "_blspubkey",
          "type": "bytes"
        }
      ],
      "name": "hashTreeRootBlspubkey",
      "outputs": [
        {
          "internalType": "bytes32",
          "name": "",
          "type": "bytes32"
        }
      ],
      "stateMutability": "pure",
      "type": "function",
      "constant": true
    },
    {
      "inputs": [
        {
          "internalType": "bytes32",
          "name": "_blockRoot",
          "type": "bytes32"
        },
        {
          "internalType": "bytes32",
          "name": "_signingDomain",
          "type": "bytes32"
        }
      ],
      "name": "computeSigningRoot",
      "outputs": [
        {
          "internalType": "bytes32",
          "name": "",
          "type": "bytes32"
        }
      ],
      "stateMutability": "pure",
      "type": "function",
      "constant": true
    },
    {
      "inputs": [
        {
          "internalType": "bytes",
          "name": "_input",
          "type": "bytes"
        }
      ],
      "name": "bytesToBytes8",
      "outputs": [
        {
          "internalType": "bytes8",
          "name": "result",
          "type": "bytes8"
        }
      ],
      "stateMutability": "pure",
      "type": "function",
      "constant": true
    },
    {
      "inputs": [
        {
          "internalType": "bytes",
          "name": "_input",
          "type": "bytes"
        }
      ],
      "name": "bytesToBytes32",
      "outputs": [
        {
          "internalType": "bytes32",
          "name": "result",
          "type": "bytes32"
        }
      ],
      "stateMutability": "pure",
      "type": "function",
      "constant": true
    },
    {
      "inputs": [
        {
          "internalType": "bytes8",
          "name": "_input",
          "type": "bytes8"
        }
      ],
      "name": "revertBytes8",
      "outputs": [
        {
          "internalType": "bytes8",
          "name": "",
          "type": "bytes8"
        }
      ],
      "stateMutability": "pure",
      "type": "function",
      "constant": true
    },
    {
      "inputs": [
        {
          "internalType": "uint64",
          "name": "_input",
          "type": "uint64"
        }
      ],
      "name": "merklelizeSlot",
      "outputs": [
        {
          "internalType": "bytes32",
          "name": "",
          "type": "bytes32"
        }
      ],
      "stateMutability": "pure",
      "type": "function",
      "constant": true
    },
    {
      "inputs": [
        {
          "internalType": "uint256",
          "name": "_input",
          "type": "uint256"
        }
      ],
      "name": "bitLength",
      "outputs": [
        {
          "internalType": "uint256",
          "name": "",
          "type": "uint256"
        }
      ],
      "stateMutability": "pure",
      "type": "function",
      "constant": true
    },
    {
      "inputs": [
        {
          "internalType": "uint256",
          "name": "_input",
          "type": "uint256"
        }
      ],
      "name": "nextPowOfTwo",
      "outputs": [
        {
          "internalType": "uint256",
          "name": "",
          "type": "uint256"
        }
      ],
      "stateMutability": "pure",
      "type": "function",
      "constant": true
    },
    {
      "inputs": [
        {
          "internalType": "uint256",
          "name": "_input",
          "type": "uint256"
        }
      ],
      "name": "floorLog2",
      "outputs": [
        {
          "internalType": "uint256",
          "name": "",
          "type": "uint256"
        }
      ],
      "stateMutability": "pure",
      "type": "function",
      "constant": true
    },
    {
      "inputs": [
        {
          "internalType": "bytes32[2]",
          "name": "_chunks",
          "type": "bytes32[2]"
        }
      ],
      "name": "merkleize",
      "outputs": [
        {
          "internalType": "bytes32",
          "name": "",
          "type": "bytes32"
        }
      ],
      "stateMutability": "pure",
      "type": "function",
      "constant": true
    },
    {
      "inputs": [
        {
          "internalType": "bytes[2]",
          "name": "_syncCommittee",
          "type": "bytes[2]"
        },
        {
          "internalType": "bytes",
          "name": "_syncAggregate",
          "type": "bytes"
        }
      ],
      "name": "hashTreeRootSyncCommittee",
      "outputs": [
        {
          "internalType": "bytes32",
          "name": "",
          "type": "bytes32"
        }
      ],
      "stateMutability": "pure",
      "type": "function",
      "constant": true
    },
    {
      "inputs": [
        {
          "internalType": "uint256",
          "name": "_generalizedIndex",
          "type": "uint256"
        }
      ],
      "name": "getSubtreeIndex",
      "outputs": [
        {
          "internalType": "uint256",
          "name": "",
          "type": "uint256"
        }
      ],
      "stateMutability": "pure",
      "type": "function",
      "constant": true
    },
    {
      "inputs": [
        {
          "internalType": "bytes32",
          "name": "_root",
          "type": "bytes32"
        },
        {
          "internalType": "bytes32",
          "name": "_leaf",
          "type": "bytes32"
        },
        {
          "internalType": "uint256",
          "name": "_generalizedIndex",
          "type": "uint256"
        },
        {
          "internalType": "bytes32[]",
          "name": "_branch",
          "type": "bytes32[]"
        }
      ],
      "name": "validateMerkleBranch",
      "outputs": [
        {
          "internalType": "bool",
          "name": "",
          "type": "bool"
        }
      ],
      "stateMutability": "pure",
      "type": "function",
      "constant": true
    }
  ],
  "bytecode": "0x60806040523480156200001157600080fd5b5060405162003b7638038062003b76833981810160405281019062000037919062000463565b8a6000806101000a81548167ffffffffffffffff021916908367ffffffffffffffff16021790555089600060086101000a81548167ffffffffffffffff021916908367ffffffffffffffff1602179055508860019060026200009b9291906200017c565b508760039080519060200190620000b4929190620001d6565b50866004906002620000c89291906200017c565b508560069080519060200190620000e1929190620001d6565b508460078190555081600960006101000a81548167ffffffffffffffff021916908367ffffffffffffffff16021790555080600960086101000a81548167ffffffffffffffff021916908367ffffffffffffffff16021790555082600960106101000a81548167ffffffffffffffff021916908367ffffffffffffffff160217905550836008819055505050505050505050505050620007f0565b8260028101928215620001c3579160200282015b82811115620001c2578251829080519060200190620001b1929190620001d6565b509160200191906001019062000190565b5b509050620001d2919062000267565b5090565b828054620001e490620006c8565b90600052602060002090601f01602090048101928262000208576000855562000254565b82601f106200022357805160ff191683800117855562000254565b8280016001018555821562000254579182015b828111156200025357825182559160200191906001019062000236565b5b5090506200026391906200028f565b5090565b5b808211156200028b5760008181620002819190620002ae565b5060010162000268565b5090565b5b80821115620002aa57600081600090555060010162000290565b5090565b508054620002bc90620006c8565b6000825580601f10620002d05750620002f1565b601f016020900490600052602060002090810190620002f091906200028f565b5b50565b60006200030b620003058462000615565b620005ec565b9050808285602086028201111562000328576200032762000797565b5b60005b858110156200037d57815167ffffffffffffffff81111562000352576200035162000792565b5b80860162000361898262000419565b855260208501945060208401935050506001810190506200032b565b5050509392505050565b60006200039e62000398846200063e565b620005ec565b905082815260208101848484011115620003bd57620003bc6200079c565b5b620003ca84828562000692565b509392505050565b600082601f830112620003ea57620003e962000792565b5b6002620003f9848285620002f4565b91505092915050565b6000815190506200041381620007bc565b92915050565b600082601f83011262000431576200043062000792565b5b81516200044384826020860162000387565b91505092915050565b6000815190506200045d81620007d6565b92915050565b60008060008060008060008060008060006101608c8e0312156200048c576200048b620007a6565b5b60006200049c8e828f016200044c565b9b50506020620004af8e828f016200044c565b9a505060408c015167ffffffffffffffff811115620004d357620004d2620007a1565b5b620004e18e828f01620003d2565b99505060608c015167ffffffffffffffff811115620005055762000504620007a1565b5b620005138e828f0162000419565b98505060808c015167ffffffffffffffff811115620005375762000536620007a1565b5b620005458e828f01620003d2565b97505060a08c015167ffffffffffffffff811115620005695762000568620007a1565b5b620005778e828f0162000419565b96505060c06200058a8e828f0162000402565b95505060e06200059d8e828f0162000402565b945050610100620005b18e828f016200044c565b935050610120620005c58e828f016200044c565b925050610140620005d98e828f016200044c565b9150509295989b509295989b9093969950565b6000620005f86200060b565b9050620006068282620006fe565b919050565b6000604051905090565b600067ffffffffffffffff82111562000633576200063262000763565b5b602082029050919050565b600067ffffffffffffffff8211156200065c576200065b62000763565b5b6200066782620007ab565b9050602081019050919050565b6000819050919050565b600067ffffffffffffffff82169050919050565b60005b83811015620006b257808201518184015260208101905062000695565b83811115620006c2576000848401525b50505050565b60006002820490506001821680620006e157607f821691505b60208210811415620006f857620006f762000734565b5b50919050565b6200070982620007ab565b810181811067ffffffffffffffff821117156200072b576200072a62000763565b5b80604052505050565b7f4e487b7100000000000000000000000000000000000000000000000000000000600052602260045260246000fd5b7f4e487b7100000000000000000000000000000000000000000000000000000000600052604160045260246000fd5b600080fd5b600080fd5b600080fd5b600080fd5b600080fd5b6000601f19601f8301169050919050565b620007c78162000674565b8114620007d357600080fd5b50565b620007e1816200067e565b8114620007ed57600080fd5b50565b61337680620008006000396000f3fe608060405234801561001057600080fd5b50600436106101585760003560e01c80637e7f232a116100c3578063c36a13da1161007c578063c36a13da14610499578063db96e1fc146104c9578063e41bbcf8146104f9578063e92938ab14610529578063f218850e14610559578063f4260a5f1461058957610158565b80637e7f232a1461037957806382152433146103a95780639eb51fce146103d9578063b1e9f2a014610409578063b8ffb2e314610439578063bfe370d91461046957610158565b8063404c2a7111610115578063404c2a711461026b57806345b8bafc1461029b57806356f07c06146102cb5780635c552879146102e95780636e1e76b9146103195780637b9e62001461034957610158565b80632c26bfd41461015d5780632f717fba1461017b578063326cf61c146101ab578063398fd9d4146101db5780633c7f56bc1461020b5780633fccb97b1461023b575b600080fd5b6101656105b9565b6040516101729190612889565b60405180910390f35b6101956004803603810190610190919061216c565b6105c3565b6040516101a291906129a1565b60405180910390f35b6101c560048036038101906101c091906122ad565b610626565b6040516101d291906128bf565b60405180910390f35b6101f560048036038101906101f09190612482565b61064f565b604051610202919061286e565b60405180910390f35b61022560048036038101906102209190612235565b6106a7565b6040516102329190612889565b60405180910390f35b61025560048036038101906102509190612543565b61073c565b60405161026291906129a1565b60405180910390f35b61028560048036038101906102809190612570565b610761565b6040516102929190612889565b60405180910390f35b6102b560048036038101906102b09190612543565b610791565b6040516102c291906129a1565b60405180910390f35b6102d36107f3565b6040516102e09190612889565b60405180910390f35b61030360048036038101906102fe9190612482565b6107fd565b60405161031091906128a4565b60405180910390f35b610333600480360381019061032e9190612455565b610821565b60405161034091906128a4565b60405180910390f35b610363600480360381019061035e9190612307565b61090a565b60405161037091906128bf565b60405180910390f35b610393600480360381019061038e91906123ca565b610936565b6040516103a091906128bf565b60405180910390f35b6103c360048036038101906103be91906121c6565b610c26565b6040516103d0919061284c565b60405180910390f35b6103f360048036038101906103ee9190612307565b610d09565b6040516104009190612889565b60405180910390f35b610423600480360381019061041e9190612543565b610d6c565b60405161043091906129a1565b60405180910390f35b610453600480360381019061044e9190612543565b610d95565b60405161046091906129a1565b60405180910390f35b610483600480360381019061047e9190612482565b610dd1565b6040516104909190612889565b60405180910390f35b6104b360048036038101906104ae9190612482565b610df4565b6040516104c09190612889565b60405180910390f35b6104e360048036038101906104de91906124cb565b610fc8565b6040516104f0919061286e565b60405180910390f35b610513600480360381019061050e9190612543565b6114ce565b60405161052091906129a1565b60405180910390f35b610543600480360381019061053e9190612307565b611501565b6040516105509190612889565b60405180910390f35b610573600480360381019061056e9190612347565b611515565b604051610580919061286e565b60405180910390f35b6105a3600480360381019061059e9190612199565b611680565b6040516105b09190612889565b60405180910390f35b6000600754905090565b6000806000905060005b600281101561061c57600115158482600281106105ed576105ec61302e565b5b60200201511515141561060957818061060590612f1d565b9250505b808061061490612f1d565b9150506105cd565b5080915050919050565b60608160405160200161063991906127ee565b6040516020818303038152906040529050919050565b600060011561066157600190506106a2565b610669611796565b6040518351602083826020880160055afa61068357600080fd5b5050806000600181106106995761069861302e565b5b60200201519150505b919050565b60006106b16117b8565b60005b600281101561070c576106dd8582600281106106d3576106d261302e565b5b6020020151610df4565b8282600281106106f0576106ef61302e565b5b602002018181525050808061070490612f1d565b9150506106b4565b50600061071882611680565b9050600061072e8261072987610df4565b610d09565b905080935050505092915050565b6000635fc63057600c836107509190612d56565b61075a9190612b5e565b9050919050565b600061076f8260c01b610821565b77ffffffffffffffffffffffffffffffffffffffffffffffff19169050919050565b600060018210156107d7576040517f08c379a00000000000000000000000000000000000000000000000000000000081526004016107ce90612901565b60405180910390fd5b60016107e2836114ce565b6107ec9190612db0565b9050919050565b6000600854905090565b6000808251141561081457600060c01b905061081c565b602082015190505b919050565b600080600867ffffffffffffffff81111561083f5761083e61305d565b5b6040519080825280601f01601f1916602001820160405280156108715781602001600182028036833780820191505090505b50905060005b60088110156108f8578381600881106108935761089261302e565b5b1a60f81b828260076108a59190612db0565b815181106108b6576108b561302e565b5b60200101907effffffffffffffffffffffffffffffffffffffffffffffffffffffffffffff1916908160001a90535080806108f090612f1d565b915050610877565b50610902816107fd565b915050919050565b6060828260405160200161091f929190612809565b604051602081830303815290604052905092915050565b60606000825160f01b90506000835160306109519190612d56565b608261095d9190612b5e565b67ffffffffffffffff8111156109765761097561305d565b5b6040519080825280601f01601f1916602001820160405280156109a85781602001600182028036833780820191505090505b50905060005b6020811015610a23578681602081106109ca576109c961302e565b5b1a60f81b8282815181106109e1576109e061302e565b5b60200101907effffffffffffffffffffffffffffffffffffffffffffffffffffffffffffff1916908160001a9053508080610a1b90612f1d565b9150506109ae565b506000602090505b6080811015610ab35785602082610a429190612db0565b81518110610a5357610a5261302e565b5b602001015160f81c60f81b828281518110610a7157610a7061302e565b5b60200101907effffffffffffffffffffffffffffffffffffffffffffffffffffffffffffff1916908160001a9053508080610aab90612f1d565b915050610a2b565b506000608090505b6082811015610b3c5782608082610ad29190612db0565b60028110610ae357610ae261302e565b5b1a60f81b828281518110610afa57610af961302e565b5b60200101907effffffffffffffffffffffffffffffffffffffffffffffffffffffffffffff1916908160001a9053508080610b3490612f1d565b915050610abb565b5060005b8451811015610c195760005b6030811015610c0557858281518110610b6857610b6761302e565b5b60200260200101518181518110610b8257610b8161302e565b5b602001015160f81c60f81b8382603085610b9c9190612d56565b6082610ba89190612b5e565b610bb29190612b5e565b81518110610bc357610bc261302e565b5b60200101907effffffffffffffffffffffffffffffffffffffffffffffffffffffffffffff1916908160001a9053508080610bfd90612f1d565b915050610b4c565b508080610c1190612f1d565b915050610b40565b5080925050509392505050565b606060008267ffffffffffffffff811115610c4457610c4361305d565b5b604051908082528060200260200182016040528015610c7757816020015b6060815260200190600190039081610c625790505b5090506000805b6002811015610cfc57858160028110610c9a57610c9961302e565b5b602002015115610ce957868160028110610cb757610cb661302e565b5b6020020151838381518110610ccf57610cce61302e565b5b60200260200101819052508180610ce590612f1d565b9250505b8080610cf490612f1d565b915050610c7e565b5081925050509392505050565b60006002610d17848461090a565b604051610d249190612835565b602060405180830381855afa158015610d41573d6000803e3d6000fd5b5050506040513d601f19601f82011682018060405250810190610d6491906122da565b905092915050565b6000610d7782610791565b6002610d839190612c38565b82610d8e9190612f70565b9050919050565b600080821415610da85760019050610dcc565b610dbd600183610db89190612db0565b6114ce565b6002610dc99190612c38565b90505b919050565b60008082511415610de7576000801b9050610def565b602082015190505b919050565b600080602067ffffffffffffffff811115610e1257610e1161305d565b5b6040519080825280601f01601f191660200182016040528015610e445781602001600182028036833780820191505090505b50905060005b6020811015610ec657838181518110610e6657610e6561302e565b5b602001015160f81c60f81b828281518110610e8457610e8361302e565b5b60200101907effffffffffffffffffffffffffffffffffffffffffffffffffffffffffffff1916908160001a9053508080610ebe90612f1d565b915050610e4a565b506000602067ffffffffffffffff811115610ee457610ee361305d565b5b6040519080825280601f01601f191660200182016040528015610f165781602001600182028036833780820191505090505b50905060005b6010811015610fa45784602082610f339190612b5e565b81518110610f4457610f4361302e565b5b602001015160f81c60f81b828281518110610f6257610f6161302e565b5b60200101907effffffffffffffffffffffffffffffffffffffffffffffffffffffffffffff1916908160001a9053508080610f9c90612f1d565b915050610f1c565b50610fbf610fb183610dd1565b610fba83610dd1565b610d09565b92505050919050565b600080610fdd84604001518560600151611501565b90506000610fee85602001516105c3565b905060008054906101000a900467ffffffffffffffff1667ffffffffffffffff16811015611051576040517f08c379a000000000000000000000000000000000000000000000000000000000815260040161104890612941565b60405180910390fd5b6000600960089054906101000a900467ffffffffffffffff1686608001516110799190612de4565b67ffffffffffffffff16905060006102006020836110979190612bb4565b6110a19190612d56565b14156111cf5761118b6111868488600001516111816001600280602002604051908101604052809291906000905b828210156111725783820180546110e590612eba565b80601f016020809104026020016040519081016040528092919081815260200182805461111190612eba565b801561115e5780601f106111335761010080835404028352916020019161115e565b820191906000526020600020905b81548152906001019060200180831161114157829003601f168201915b5050505050815260200190600101906110cf565b505050508b6020015188610c26565b610936565b61064f565b6111ca576040517f08c379a00000000000000000000000000000000000000000000000000000000081526004016111c190612921565b60405180910390fd5b61144f565b60016102006020836111e19190612bb4565b6111eb9190612d56565b1415611413576112d56112d08488600001516112cb6004600280602002604051908101604052809291906000905b828210156112bc57838201805461122f90612eba565b80601f016020809104026020016040519081016040528092919081815260200182805461125b90612eba565b80156112a85780601f1061127d576101008083540402835291602001916112a8565b820191906000526020600020905b81548152906001019060200180831161128b57829003601f168201915b505050505081526020019060010190611219565b505050508b6020015188610c26565b610936565b61064f565b611314576040517f08c379a000000000000000000000000000000000000000000000000000000000815260040161130b90612981565b60405180910390fd5b6000611328866000015187602001516106a7565b90506113408761014001518260378960400151611515565b61137f576040517f08c379a0000000000000000000000000000000000000000000000000000000008152600401611376906128e1565b60405180910390fd5b600460019060026113919291906117da565b50600660039080546113a290612eba565b6113ad92919061182d565b50856000015160049060026113c39291906118ba565b508560200151600690805190602001906113de92919061190d565b50866101000151600960086101000a81548167ffffffffffffffff021916908367ffffffffffffffff1602179055505061144e565b6040517f08c379a000000000000000000000000000000000000000000000000000000000815260040161144590612961565b60405180910390fd5b5b8560c001516007819055508561014001516008819055508560800151600960006101000a81548167ffffffffffffffff021916908367ffffffffffffffff160217905550856101000151600960106101000a81548167ffffffffffffffff021916908367ffffffffffffffff1602179055506001935050505092915050565b600080600090505b600083146114f857600183901c925080806114f090612f1d565b9150506114d6565b80915050919050565b600061150d8383610d09565b905092915050565b60008061152184610d6c565b9050600061152e85610791565b9050600086905060005b8281101561166f57600160028260026115519190612c38565b8661155c9190612bb4565b6115669190612f70565b14156115e65760026115928783815181106115845761158361302e565b5b60200260200101518461090a565b60405161159f9190612835565b602060405180830381855afa1580156115bc573d6000803e3d6000fd5b5050506040513d601f19601f820116820180604052508101906115df91906122da565b915061165c565b600261160c838884815181106115ff576115fe61302e565b5b602002602001015161090a565b6040516116199190612835565b602060405180830381855afa158015611636573d6000803e3d6000fd5b5050506040513d601f19601f8201168201806040525081019061165991906122da565b91505b808061166790612f1d565b915050611538565b508781149350505050949350505050565b60008061168d6002610d95565b90506000600290505b818110156116b15780806116a990612f1d565b915050611696565b5060005b6116be82610791565b8110156117745760008160026116d49190612c38565b905060005b8381101561175f576117248682600281106116f7576116f661302e565b5b60200201518784846117099190612b5e565b6002811061171a5761171961302e565b5b6020020151610d09565b8682600281106117375761173661302e565b5b60200201818152505060028261174d9190612d56565b816117589190612b5e565b90506116d9565b5050808061176c90612f1d565b9150506116b5565b50826000600281106117895761178861302e565b5b6020020151915050919050565b6040518060200160405280600190602082028036833780820191505090505090565b6040518060400160405280600290602082028036833780820191505090505090565b826002810192821561181c579182015b8281111561181b57828290805461180090612eba565b61180b929190611993565b50916001019190600101906117ea565b5b5090506118299190611a20565b5090565b82805461183990612eba565b90600052602060002090601f01602090048101928261185b57600085556118a9565b82601f1061186c57805485556118a9565b828001600101855582156118a957600052602060002091601f016020900482015b828111156118a857825482559160010191906001019061188d565b5b5090506118b69190611a44565b5090565b82600281019282156118fc579160200282015b828111156118fb5782518290805190602001906118eb92919061190d565b50916020019190600101906118cd565b5b5090506119099190611a20565b5090565b82805461191990612eba565b90600052602060002090601f01602090048101928261193b5760008555611982565b82601f1061195457805160ff1916838001178555611982565b82800160010185558215611982579182015b82811115611981578251825591602001919060010190611966565b5b50905061198f9190611a44565b5090565b82805461199f90612eba565b90600052602060002090601f0160209004810192826119c15760008555611a0f565b82601f106119d25780548555611a0f565b82800160010185558215611a0f57600052602060002091601f016020900482015b82811115611a0e5782548255916001019190600101906119f3565b5b509050611a1c9190611a44565b5090565b5b80821115611a405760008181611a379190611a61565b50600101611a21565b5090565b5b80821115611a5d576000816000905550600101611a45565b5090565b508054611a6d90612eba565b6000825580601f10611a7f5750611a9e565b601f016020900490600052602060002090810190611a9d9190611a44565b5b50565b6000611ab4611aaf846129e1565b6129bc565b90508082856020860282011115611ace57611acd61309b565b5b60005b85811015611afe5781611ae48882611e11565b845260208401935060208301925050600181019050611ad1565b5050509392505050565b6000611b1b611b1684612a07565b6129bc565b90508082856020860282011115611b3557611b3461309b565b5b60005b85811015611b655781611b4b8882611e26565b845260208401935060208301925050600181019050611b38565b5050509392505050565b6000611b82611b7d84612a2d565b6129bc565b90508083825260208201905082856020860282011115611ba557611ba461309b565b5b60005b85811015611bd55781611bbb8882611e26565b845260208401935060208301925050600181019050611ba8565b5050509392505050565b6000611bf2611bed84612a59565b6129bc565b90508082856020860282011115611c0c57611c0b61309b565b5b60005b85811015611c5a57813567ffffffffffffffff811115611c3257611c3161308c565b5b808601611c3f8982611e65565b85526020850194506020840193505050600181019050611c0f565b5050509392505050565b6000611c77611c7284612a7f565b6129bc565b90508083825260208201905082856020860282011115611c9a57611c9961309b565b5b60005b85811015611ce857813567ffffffffffffffff811115611cc057611cbf61308c565b5b808601611ccd8982611e65565b85526020850194506020840193505050600181019050611c9d565b5050509392505050565b6000611d05611d0084612aab565b6129bc565b905082815260208101848484011115611d2157611d206130a0565b5b611d2c848285612e78565b509392505050565b600082601f830112611d4957611d4861308c565b5b6002611d56848285611aa1565b91505092915050565b600082601f830112611d7457611d7361308c565b5b6002611d81848285611b08565b91505092915050565b600082601f830112611d9f57611d9e61308c565b5b8135611daf848260208601611b6f565b91505092915050565b600082601f830112611dcd57611dcc61308c565b5b6002611dda848285611bdf565b91505092915050565b600082601f830112611df857611df761308c565b5b8135611e08848260208601611c64565b91505092915050565b600081359050611e20816132cd565b92915050565b600081359050611e35816132e4565b92915050565b600081519050611e4a816132e4565b92915050565b600081359050611e5f816132fb565b92915050565b600082601f830112611e7a57611e7961308c565b5b8135611e8a848260208601611cf2565b91505092915050565b60006101e08284031215611eaa57611ea9613091565b5b611eb56101c06129bc565b9050600082013567ffffffffffffffff811115611ed557611ed4613096565b5b611ee184828501611e65565b6000830152506020611ef584828501611d34565b6020830152506060611f0984828501611e26565b6040830152506080611f1d84828501611e26565b60608301525060a0611f3184828501612157565b60808301525060c082013567ffffffffffffffff811115611f5557611f54613096565b5b611f6184828501611d8a565b60a08301525060e0611f7584828501611e26565b60c08301525061010082013567ffffffffffffffff811115611f9a57611f99613096565b5b611fa684828501611d8a565b60e083015250610120611fbb84828501612157565b6101008301525061014082013567ffffffffffffffff811115611fe157611fe0613096565b5b611fed84828501611d8a565b6101208301525061016061200384828501611e26565b6101408301525061018082013567ffffffffffffffff81111561202957612028613096565b5b61203584828501611d8a565b610160830152506101a061204b84828501611e26565b610180830152506101c082013567ffffffffffffffff81111561207157612070613096565b5b61207d84828501611d8a565b6101a08301525092915050565b6000606082840312156120a05761209f613091565b5b6120aa60606129bc565b9050600082013567ffffffffffffffff8111156120ca576120c9613096565b5b6120d684828501611db8565b600083015250602082013567ffffffffffffffff8111156120fa576120f9613096565b5b61210684828501611e65565b602083015250604082013567ffffffffffffffff81111561212a57612129613096565b5b61213684828501611d8a565b60408301525092915050565b60008135905061215181613312565b92915050565b60008135905061216681613329565b92915050565b600060408284031215612182576121816130aa565b5b600061219084828501611d34565b91505092915050565b6000604082840312156121af576121ae6130aa565b5b60006121bd84828501611d5f565b91505092915050565b6000806000608084860312156121df576121de6130aa565b5b600084013567ffffffffffffffff8111156121fd576121fc6130a5565b5b61220986828701611db8565b935050602061221a86828701611d34565b925050606061222b86828701612142565b9150509250925092565b6000806040838503121561224c5761224b6130aa565b5b600083013567ffffffffffffffff81111561226a576122696130a5565b5b61227685828601611db8565b925050602083013567ffffffffffffffff811115612297576122966130a5565b5b6122a385828601611e65565b9150509250929050565b6000602082840312156122c3576122c26130aa565b5b60006122d184828501611e26565b91505092915050565b6000602082840312156122f0576122ef6130aa565b5b60006122fe84828501611e3b565b91505092915050565b6000806040838503121561231e5761231d6130aa565b5b600061232c85828601611e26565b925050602061233d85828601611e26565b9150509250929050565b60008060008060808587031215612361576123606130aa565b5b600061236f87828801611e26565b945050602061238087828801611e26565b935050604061239187828801612142565b925050606085013567ffffffffffffffff8111156123b2576123b16130a5565b5b6123be87828801611d8a565b91505092959194509250565b6000806000606084860312156123e3576123e26130aa565b5b60006123f186828701611e26565b935050602084013567ffffffffffffffff811115612412576124116130a5565b5b61241e86828701611e65565b925050604084013567ffffffffffffffff81111561243f5761243e6130a5565b5b61244b86828701611de3565b9150509250925092565b60006020828403121561246b5761246a6130aa565b5b600061247984828501611e50565b91505092915050565b600060208284031215612498576124976130aa565b5b600082013567ffffffffffffffff8111156124b6576124b56130a5565b5b6124c284828501611e65565b91505092915050565b600080604083850312156124e2576124e16130aa565b5b600083013567ffffffffffffffff811115612500576124ff6130a5565b5b61250c85828601611e93565b925050602083013567ffffffffffffffff81111561252d5761252c6130a5565b5b6125398582860161208a565b9150509250929050565b600060208284031215612559576125586130aa565b5b600061256784828501612142565b91505092915050565b600060208284031215612586576125856130aa565b5b600061259484828501612157565b91505092915050565b60006125a9838361266a565b905092915050565b60006125bc82612aec565b6125c68185612b0f565b9350836020820285016125d885612adc565b8060005b8581101561261457848403895281516125f5858261259d565b945061260083612b02565b925060208a019950506001810190506125dc565b50829750879550505050505092915050565b61262f81612e18565b82525050565b61263e81612e24565b82525050565b61265561265082612e24565b612f66565b82525050565b61266481612e2e565b82525050565b600061267582612af7565b61267f8185612b20565b935061268f818560208601612e87565b612698816130af565b840191505092915050565b60006126ae82612af7565b6126b88185612b31565b93506126c8818560208601612e87565b6126d1816130af565b840191505092915050565b60006126e782612af7565b6126f18185612b42565b9350612701818560208601612e87565b80840191505092915050565b600061271a603283612b4d565b9150612725826130cd565b604082019050919050565b600061273d603283612b4d565b91506127488261311c565b604082019050919050565b6000612760602d83612b4d565b915061276b8261316b565b604082019050919050565b6000612783602183612b4d565b915061278e826131ba565b604082019050919050565b60006127a6605083612b4d565b91506127b182613209565b606082019050919050565b60006127c9602a83612b4d565b91506127d48261327e565b604082019050919050565b6127e881612e5a565b82525050565b60006127fa8284612644565b60208201915081905092915050565b60006128158285612644565b6020820191506128258284612644565b6020820191508190509392505050565b600061284182846126dc565b915081905092915050565b6000602082019050818103600083015261286681846125b1565b905092915050565b60006020820190506128836000830184612626565b92915050565b600060208201905061289e6000830184612635565b92915050565b60006020820190506128b9600083018461265b565b92915050565b600060208201905081810360008301526128d981846126a3565b905092915050565b600060208201905081810360008301526128fa8161270d565b9050919050565b6000602082019050818103600083015261291a81612730565b9050919050565b6000602082019050818103600083015261293a81612753565b9050919050565b6000602082019050818103600083015261295a81612776565b9050919050565b6000602082019050818103600083015261297a81612799565b9050919050565b6000602082019050818103600083015261299a816127bc565b9050919050565b60006020820190506129b660008301846127df565b92915050565b60006129c66129d7565b90506129d28282612eec565b919050565b6000604051905090565b600067ffffffffffffffff8211156129fc576129fb61305d565b5b602082029050919050565b600067ffffffffffffffff821115612a2257612a2161305d565b5b602082029050919050565b600067ffffffffffffffff821115612a4857612a4761305d565b5b602082029050602081019050919050565b600067ffffffffffffffff821115612a7457612a7361305d565b5b602082029050919050565b600067ffffffffffffffff821115612a9a57612a9961305d565b5b602082029050602081019050919050565b600067ffffffffffffffff821115612ac657612ac561305d565b5b612acf826130af565b9050602081019050919050565b6000819050602082019050919050565b600081519050919050565b600081519050919050565b6000602082019050919050565b600082825260208201905092915050565b600082825260208201905092915050565b600082825260208201905092915050565b600081905092915050565b600082825260208201905092915050565b6000612b6982612e5a565b9150612b7483612e5a565b9250827fffffffffffffffffffffffffffffffffffffffffffffffffffffffffffffffff03821115612ba957612ba8612fa1565b5b828201905092915050565b6000612bbf82612e5a565b9150612bca83612e5a565b925082612bda57612bd9612fd0565b5b828204905092915050565b6000808291508390505b6001851115612c2f57808604811115612c0b57612c0a612fa1565b5b6001851615612c1a5780820291505b8081029050612c28856130c0565b9450612bef565b94509492505050565b6000612c4382612e5a565b9150612c4e83612e5a565b9250612c7b7fffffffffffffffffffffffffffffffffffffffffffffffffffffffffffffffff8484612c83565b905092915050565b600082612c935760019050612d4f565b81612ca15760009050612d4f565b8160018114612cb75760028114612cc157612cf0565b6001915050612d4f565b60ff841115612cd357612cd2612fa1565b5b8360020a915084821115612cea57612ce9612fa1565b5b50612d4f565b5060208310610133831016604e8410600b8410161715612d255782820a905083811115612d2057612d1f612fa1565b5b612d4f565b612d328484846001612be5565b92509050818404811115612d4957612d48612fa1565b5b81810290505b9392505050565b6000612d6182612e5a565b9150612d6c83612e5a565b9250817fffffffffffffffffffffffffffffffffffffffffffffffffffffffffffffffff0483118215151615612da557612da4612fa1565b5b828202905092915050565b6000612dbb82612e5a565b9150612dc683612e5a565b925082821015612dd957612dd8612fa1565b5b828203905092915050565b6000612def82612e64565b9150612dfa83612e64565b925082821015612e0d57612e0c612fa1565b5b828203905092915050565b60008115159050919050565b6000819050919050565b60007fffffffffffffffff00000000000000000000000000000000000000000000000082169050919050565b6000819050919050565b600067ffffffffffffffff82169050919050565b82818337600083830152505050565b60005b83811015612ea5578082015181840152602081019050612e8a565b83811115612eb4576000848401525b50505050565b60006002820490506001821680612ed257607f821691505b60208210811415612ee657612ee5612fff565b5b50919050565b612ef5826130af565b810181811067ffffffffffffffff82111715612f1457612f1361305d565b5b80604052505050565b6000612f2882612e5a565b91507fffffffffffffffffffffffffffffffffffffffffffffffffffffffffffffffff821415612f5b57612f5a612fa1565b5b600182019050919050565b6000819050919050565b6000612f7b82612e5a565b9150612f8683612e5a565b925082612f9657612f95612fd0565b5b828206905092915050565b7f4e487b7100000000000000000000000000000000000000000000000000000000600052601160045260246000fd5b7f4e487b7100000000000000000000000000000000000000000000000000000000600052601260045260246000fd5b7f4e487b7100000000000000000000000000000000000000000000000000000000600052602260045260246000fd5b7f4e487b7100000000000000000000000000000000000000000000000000000000600052603260045260246000fd5b7f4e487b7100000000000000000000000000000000000000000000000000000000600052604160045260246000fd5b600080fd5b600080fd5b600080fd5b600080fd5b600080fd5b600080fd5b600080fd5b6000601f19601f8301169050919050565b60008160011c9050919050565b7f6d65726b6c652070726f6f66206f66206e657874206e6578742073796e63206360008201527f6f6d6d6974746565206e6f742076616c69640000000000000000000000000000602082015250565b7f5f696e70757420746f20666c6f6f724c6f6732206d757374206265206c61726760008201527f6572206f7220657175616c207468616e20310000000000000000000000000000602082015250565b7f7369676e61747572652062792063757272656e742073796e6320636f6d6d697460008201527f746565206e6f742076616c696400000000000000000000000000000000000000602082015250565b7f6e6f7420656e6f756768207369676e6174757265207061727469636970616e7460008201527f7300000000000000000000000000000000000000000000000000000000000000602082015250565b7f6c617465737420736c6f7420646f6573206e6f7420696e64696361746520746860008201527f61742063757272656e74206f72206e6578742073796e6320636f6d6d6974746560208201527f6520697320726573706f6e7369626c6500000000000000000000000000000000604082015250565b7f7369676e6174757265206279206e6578742073796e6320636f6d6d697474656560008201527f206e6f742076616c696400000000000000000000000000000000000000000000602082015250565b6132d681612e18565b81146132e157600080fd5b50565b6132ed81612e24565b81146132f857600080fd5b50565b61330481612e2e565b811461330f57600080fd5b50565b61331b81612e5a565b811461332657600080fd5b50565b61333281612e64565b811461333d57600080fd5b5056fea264697066735822122058a085ad9f60b934dc602496d490ccefc26afb8d8e9898ae94c6de51be8bd28d64736f6c63430008060033",
  "immutableReferences": {},
  "source": "// SPDX-License-Identifier: UNLICENSED\npragma solidity >=0.8.0 <0.9.0;\n\n// debug settings\nbool constant MOCK_BLS_PRECOMPILE = true;\n\n// magic numbers\nuint constant FIRST_BEACON_BLOCK_UNIX_TIMESTAMP = 1606824023;\n\n// eth2 mainnet configuration\nuint constant SYNC_COMMITTEE_SIZE = 2;\nuint constant SECONDS_PER_SLOT = 12;\nuint constant SLOTS_PER_EPOCH = 32;\nuint constant EPOCHS_PER_SYNC_COMMITTEE_PERIOD = 512;\n\n// SSZ generalized indices\nuint constant FINALIZED_ROOT_INDEX = 105;\nuint constant FINALIZED_EPOCH_INDEX = 104;\nuint constant NEXT_SYNC_COMMITTEE_INDEX = 55;\nuint constant NEXT_SYNC_COMMITTEE_PUBKEYS_INDEX = 110;\nuint constant SLOT_INDEX = 8;\nuint constant STATE_ROOT_INDEX = 11;\n\nstruct ChainRelayUpdate {\n    bytes signature;\n    bool[SYNC_COMMITTEE_SIZE] participants;\n    bytes32 latestBlockRoot;\n    bytes32 signingDomain;\n    uint64 latestSlot;\n    bytes32[] latestSlotBranch; \n    bytes32 finalizedBlockRoot; \n    bytes32[] finalizingBranch; \n    uint64 finalizedSlot; \n    bytes32[] finalizedSlotBranch; \n    bytes32 finalizedStateRoot;\n    bytes32[] finalizedStateRootBranch;\n    bytes32 stateRoot;\n    bytes32[] stateRootBranch; \n}\n\nstruct SyncCommitteeUpdate {\n    bytes[SYNC_COMMITTEE_SIZE] nextNextValidatorSet;\n    bytes nextNextValidatorSetAggregate;\n    bytes32[] nextNextValidatorSetBranch;\n}\n\n/** \n * @title Chain Relay\n * @dev Implements a chain relay/light client for eth2 consensus post-altair (including sync committees)\n */\ncontract Eth2ChainRelay {\n    uint64 private signatureThreshold; // 0 < signatureThreshold <= 512\n    uint64 private trustingPeriod; // validators are trusted for a certain time, ensuring they have not exited the validator set, in unix time\n    bytes[SYNC_COMMITTEE_SIZE] private currentValidatorSet;\n    bytes private currentValidatorSetAggregate;\n    bytes[SYNC_COMMITTEE_SIZE] private nextValidatorSet;\n    bytes private nextValidatorSetAggregate;\n    bytes32 private finalizedBlockRoot;\n    bytes32 private finalizedStateRoot; \n    uint64 private latestSlot;\n    uint64 private latestSlotWithValidatorSetChange;\n    uint64 private finalizedSlot;\n    \n    constructor(uint64 _signatureThreshold, \n                uint64 _trustingPeriod, \n                bytes[SYNC_COMMITTEE_SIZE] memory _currentValidatorSet, \n                bytes memory _currentValidatorSetAggregate,\n                bytes[SYNC_COMMITTEE_SIZE] memory _nextValidatorSet,\n                bytes memory _nextValidatorSetAggregate,\n                bytes32 _finalizedBlockRoot,\n                bytes32 _finalizedStateRoot,\n                uint64 _finalizedSlot,\n                uint64 _latestSlot,\n                uint64 _latestSlotWithValidatorSetChange) \n    {\n        signatureThreshold=_signatureThreshold;\n        trustingPeriod=_trustingPeriod;\n        currentValidatorSet=_currentValidatorSet;\n        currentValidatorSetAggregate=_currentValidatorSetAggregate;\n        nextValidatorSet=_nextValidatorSet;\n        nextValidatorSetAggregate=_nextValidatorSetAggregate;\n        finalizedBlockRoot=_finalizedBlockRoot;\n        latestSlot=_latestSlot;\n        latestSlotWithValidatorSetChange=_latestSlotWithValidatorSetChange;\n        finalizedSlot=_finalizedSlot;\n        finalizedStateRoot=_finalizedStateRoot;\n    }\n    \n    function getFinalizedBlockRoot() public view returns (bytes32) {\n        return finalizedBlockRoot;\n    }\n    \n    function getFinalizedStateRoot() public view returns (bytes32) {\n        return finalizedStateRoot;\n    }\n    \n    function submitUpdate(ChainRelayUpdate memory _chainRelayUpdate, SyncCommitteeUpdate memory _syncCommitteeUpdate) public returns (bool) {\n        bytes32 signingRoot = computeSigningRoot(_chainRelayUpdate.latestBlockRoot, _chainRelayUpdate.signingDomain);\n        uint numberOfParticipants = countTrueBools(_chainRelayUpdate.participants);\n        require(\n            numberOfParticipants >= signatureThreshold, \n            \"not enough signature participants\");\n        /*require(\n            validateMerkleBranch(\n                _chainRelayUpdate.latestBlockRoot, \n                _chainRelayUpdate.stateRoot, \n                STATE_ROOT_INDEX, \n                _chainRelayUpdate.stateRootBranch), \n            \"merkle proof for latest state root not valid\");\n        require(\n            validateMerkleBranch(\n                _chainRelayUpdate.latestBlockRoot, \n                merklelizeSlot(_chainRelayUpdate.latestSlot), \n                SLOT_INDEX, \n                _chainRelayUpdate.latestSlotBranch), \n            \"merkle proof for latest slot not valid\");\n        require(\n            validateMerkleBranch(\n                _chainRelayUpdate.stateRoot, \n                _chainRelayUpdate.finalizedBlockRoot, \n                FINALIZED_ROOT_INDEX, \n                _chainRelayUpdate.finalizingBranch), \n            \"merkle proof for finalized block root not valid\");\n        require(\n            validateMerkleBranch(\n                _chainRelayUpdate.finalizedBlockRoot, \n                merklelizeSlot(_chainRelayUpdate.finalizedSlot), \n                SLOT_INDEX, \n                _chainRelayUpdate.finalizedSlotBranch), \n            \"merkle proof for finalized slot not valid\");\n        require(\n            validateMerkleBranch(\n                _chainRelayUpdate.finalizedBlockRoot, \n                _chainRelayUpdate.finalizedStateRoot, \n                STATE_ROOT_INDEX, \n                _chainRelayUpdate.finalizedStateRootBranch), \n            \"merkle proof for finalized state root not valid\");*/\n        uint slot_distance = _chainRelayUpdate.latestSlot - latestSlotWithValidatorSetChange; \n        if ((slot_distance / SLOTS_PER_EPOCH * EPOCHS_PER_SYNC_COMMITTEE_PERIOD) == 0) {\n           require(\n               fastAggregateVerify(serializeAggregateSignature(\n                   signingRoot, \n                   _chainRelayUpdate.signature, \n                   getActiveValidators(currentValidatorSet, _chainRelayUpdate.participants, numberOfParticipants))), \n               \"signature by current sync committee not valid\");\n        } else if ((slot_distance / SLOTS_PER_EPOCH * EPOCHS_PER_SYNC_COMMITTEE_PERIOD) == 1) {\n            require(\n                fastAggregateVerify(serializeAggregateSignature(\n                    signingRoot, \n                    _chainRelayUpdate.signature, \n                    getActiveValidators(nextValidatorSet, _chainRelayUpdate.participants, numberOfParticipants))), \n                \"signature by next sync committee not valid\");\n            bytes32 merklelizedNextNextSyncCommittee = hashTreeRootSyncCommittee(_syncCommitteeUpdate.nextNextValidatorSet, _syncCommitteeUpdate.nextNextValidatorSetAggregate);\n            require(\n                validateMerkleBranch(\n                    _chainRelayUpdate.finalizedStateRoot, \n                    merklelizedNextNextSyncCommittee, \n                    NEXT_SYNC_COMMITTEE_INDEX, \n                    _syncCommitteeUpdate.nextNextValidatorSetBranch), \n                \"merkle proof of next next sync committee not valid\");\n            currentValidatorSet = nextValidatorSet; \n            currentValidatorSetAggregate = nextValidatorSetAggregate;\n            nextValidatorSet = _syncCommitteeUpdate.nextNextValidatorSet; \n            nextValidatorSetAggregate = _syncCommitteeUpdate.nextNextValidatorSetAggregate;\n            latestSlotWithValidatorSetChange = _chainRelayUpdate.finalizedSlot;\n        } else {\n            revert(\"latest slot does not indicate that current or next sync committee is responsible\");\n        }\n        finalizedBlockRoot = _chainRelayUpdate.finalizedBlockRoot; \n        finalizedStateRoot = _chainRelayUpdate.finalizedStateRoot;\n        latestSlot = _chainRelayUpdate.latestSlot;\n        finalizedSlot = _chainRelayUpdate.finalizedSlot;\n        return true;\n    }\n    \n    function getActiveValidators(bytes[SYNC_COMMITTEE_SIZE] memory _pubkeys, bool[SYNC_COMMITTEE_SIZE] memory _isActive, uint _numberOfActive) public pure returns (bytes[] memory) {\n        bytes[] memory active_validators = new bytes[](_numberOfActive);\n        uint counter = 0;\n        for (uint i = 0; i < SYNC_COMMITTEE_SIZE; i++) {\n            if (_isActive[i]) {\n                active_validators[counter] = _pubkeys[i];\n                counter++;\n            }\n        }\n        return active_validators;\n    }\n    \n    function countTrueBools(bool[SYNC_COMMITTEE_SIZE] memory _bools) public pure returns (uint) {\n        uint counter = 0;\n        for (uint i = 0; i < SYNC_COMMITTEE_SIZE; i++) {\n            if (_bools[i] == true) {\n                counter++;\n            }\n        }\n        return counter;\n    }\n\n    function serializeAggregateSignature(bytes32 _message, bytes memory _signature, bytes[] memory _pubkeys) public pure returns (bytes memory) {\n        // TODO assess encodePacked solution\n        bytes2 length = bytes2(uint16(_pubkeys.length));\n        bytes memory serialized = new bytes(32+96+2+48*_pubkeys.length);\n        for (uint i = 0; i < 32; i++) {\n            serialized[i] = _message[i];\n        }\n        for (uint i = 32; i < 128; i++) {\n            serialized[i] = _signature[i-32];\n        }\n        for (uint i = 128; i < 130; i++) {\n            serialized[i] = length[i-128];\n        }\n        for (uint i = 0; i < _pubkeys.length; i++) {\n            for (uint j = 0; j < 48; j++) {\n            //for (uint j = 0; j < _pubkeys[i].length; j++) {\n                serialized[32+96+2+i*48+j] = _pubkeys[i][j];\n            }\n        }\n        return serialized;\n    }\n    \n    function fastAggregateVerify(bytes memory _input) public view returns (bool o) {\n        if (MOCK_BLS_PRECOMPILE) {\n            return true;\n        }\n        bool[1] memory outCache;\n        assembly {\n            let p := mload(0x40)\n            let length := mload(_input)\n            if iszero(staticcall(gas(), 0x05, add(_input,32), length, outCache, 32)) { // first 32 yte of _input are length\n                revert(0, 0)\n            }\n        }\n        o = outCache[0];\n    }\n    \n    function slotToUnixTimestamp(uint _slot) public pure returns (uint timestamp) {\n        return _slot * SECONDS_PER_SLOT + FIRST_BEACON_BLOCK_UNIX_TIMESTAMP;\n    }\n    \n    function toBytes(bytes32 _input) public pure returns (bytes memory output) {\n        return abi.encodePacked(_input);\n    }\n    \n    function concat(bytes32 _left, bytes32 _right) public pure returns (bytes memory) {\n        return bytes.concat(_left, _right);\n        // below is fallback code for older solidity versions\n        /*bytes memory concatenated;\n        for (uint i = 0; i<32; i++) {\n            concatenated[i] = left[i];\n        }\n        for (uint i = 0; i<32; i++) {\n            concatenated[i+32] = right[i];\n        }\n        return concatenated;*/\n    }\n\n    function hashTreeRootPair(bytes32 _left, bytes32 _right) public pure returns (bytes32) {\n        return sha256(concat(_left, _right));\n    }\n    \n    function hashTreeRootBlspubkey (bytes memory _blspubkey) public pure returns (bytes32) {\n        bytes memory blspubkeyMerkleizedLeft = new bytes(32);\n        for (uint i = 0; i<32; i++) {\n            blspubkeyMerkleizedLeft[i] = _blspubkey[i];\n        }\n        bytes memory blspubkeyMerkleizedRight = new bytes(32);\n        for (uint i = 0; i<16; i++) { // rest of blspubkeyMerkleizedRight is initialized zero\n            blspubkeyMerkleizedRight[i] = _blspubkey[i+32];\n        }\n        \n        return hashTreeRootPair(bytesToBytes32(blspubkeyMerkleizedLeft), bytesToBytes32(blspubkeyMerkleizedRight));\n    }\n    \n    function computeSigningRoot(bytes32 _blockRoot, bytes32 _signingDomain) public pure returns (bytes32) {\n        return hashTreeRootPair(_blockRoot, _signingDomain);\n    }\n    \n    function bytesToBytes8(bytes memory _input) public pure returns (bytes8 result) {\n        if (_input.length == 0) {\n            return 0x0;\n        }\n        assembly {\n            result := mload(add(_input, 32))\n        }\n    }\n    \n    function bytesToBytes32(bytes memory _input) public pure returns (bytes32 result) {\n        if (_input.length == 0) {\n            return 0x0;\n        }\n        assembly {\n            result := mload(add(_input, 32))\n        }\n    }\n\n    function revertBytes8(bytes8 _input) public pure returns (bytes8) {\n        bytes memory reverted = new bytes(8);\n        for (uint i = 0; i < 8; i++) {\n            reverted[7-i] = _input[i];\n        }\n        return bytesToBytes8(reverted);\n    }\n\n    function merklelizeSlot(uint64 _input) public pure returns (bytes32) {\n        return bytes32(revertBytes8(bytes8(_input)));\n    }\n    \n    function bitLength(uint _input) public pure returns (uint) {\n        uint length = 0;\n        while (_input != 0) \n        {\n            _input >>= 1; \n            length++; \n        }\n        return length;\n    }\n    \n    function nextPowOfTwo(uint _input) public pure returns (uint) {\n        if (_input == 0) {\n            return 1;\n        } else {\n            return 2**(bitLength(_input-1));\n        }\n    }\n    \n    function floorLog2 (uint _input) public pure returns (uint) {\n        require(_input >= 1, \"_input to floorLog2 must be larger or equal than 1\");\n        return bitLength(_input)-1;\n    }\n    \n    function merkleize(bytes32[SYNC_COMMITTEE_SIZE] memory _chunks) public pure returns (bytes32) {\n        uint length_next_pow = nextPowOfTwo(_chunks.length);\n        for (uint i = _chunks.length; i < length_next_pow; i++) {\n           // fill lowest level \n           // TODO not necessary b/c size always 2^n?\n        }\n        for (uint level = 0; level<floorLog2(length_next_pow); level++) {\n            uint step = 2**level;\n            for (uint current_accumulator = 0; current_accumulator < length_next_pow; current_accumulator += step*2) {\n                _chunks[current_accumulator] = hashTreeRootPair(_chunks[current_accumulator], _chunks[current_accumulator+step]);\n            }\n        }\n        return _chunks[0];\n    }\n    \n    function hashTreeRootSyncCommittee(bytes[SYNC_COMMITTEE_SIZE] memory _syncCommittee, bytes memory _syncAggregate) public pure returns (bytes32) {\n        bytes32[SYNC_COMMITTEE_SIZE] memory syncCommitteeHashed;\n        for (uint i = 0; i < SYNC_COMMITTEE_SIZE; i++) {\n            syncCommitteeHashed[i] = hashTreeRootBlspubkey(_syncCommittee[i]);\n        }\n        bytes32 syncCommitteeHashedMerkleized = merkleize(syncCommitteeHashed);\n        bytes32 syncCommitteeRoot = hashTreeRootPair(syncCommitteeHashedMerkleized, hashTreeRootBlspubkey(_syncAggregate));\n        return syncCommitteeRoot;\n    }\n    \n    function getSubtreeIndex(uint _generalizedIndex) public pure returns (uint) {\n        return _generalizedIndex % 2**(floorLog2(_generalizedIndex));\n    }\n    \n    function validateMerkleBranch(bytes32 _root, bytes32 _leaf, uint _generalizedIndex, bytes32[] memory _branch) public pure returns (bool) {\n        uint index = getSubtreeIndex(_generalizedIndex);\n        uint depth = floorLog2(_generalizedIndex);\n        bytes32 value = _leaf;\n        for (uint i = 0; i < depth; i++) {\n            if ((index / (2**i) % 2) == 1) {\n                value = sha256(concat(_branch[i],value));\n            } else {\n                value = sha256(concat(value,_branch[i]));\n            }\n        }\n        return value == _root;\n    }\n    \n}",
  "sourcePath": "/Users/Max/Documents/PoSChainRelay/Eth2ChainRelay/contracts/Eth2ChainRelay.sol",
  "compiler": {
    "name": "solc",
    "version": "0.8.6+commit.11564f7e.Emscripten.clang"
  },
  "schemaVersion": "3.4.1",
  "updatedAt": "2021-07-01T12:11:32.044Z",
  "networkType": "ethereum",
  "devdoc": {
    "details": "Implements a chain relay/light client for eth2 consensus post-altair (including sync committees)",
    "kind": "dev",
    "methods": {},
    "title": "Chain Relay",
    "version": 1
  },
  "userdoc": {
    "kind": "user",
    "methods": {},
    "version": 1
  }
}