{
  "contractName": "Eth2ChainRelay_512_NoStorage",
  "abi": [
    {
      "inputs": [
        {
          "internalType": "uint64",
          "name": "_signatureThreshold",
          "type": "uint64"
        },
        {
          "internalType": "uint64",
          "name": "_trustingPeriod",
          "type": "uint64"
        },
        {
          "internalType": "bytes32",
          "name": "_finalizedBlockRoot",
          "type": "bytes32"
        },
        {
          "internalType": "bytes32",
          "name": "_finalizedStateRoot",
          "type": "bytes32"
        },
        {
          "internalType": "uint64",
          "name": "_finalizedSlot",
          "type": "uint64"
        },
        {
          "internalType": "uint64",
          "name": "_latestSlot",
          "type": "uint64"
        },
        {
          "internalType": "uint64",
          "name": "_latestSlotWithValidatorSetChange",
          "type": "uint64"
        }
      ],
      "stateMutability": "nonpayable",
      "type": "constructor"
    },
    {
      "inputs": [],
      "name": "getLatestSlotWithValidatorSetChange",
      "outputs": [
        {
          "internalType": "uint64",
          "name": "",
          "type": "uint64"
        }
      ],
      "stateMutability": "view",
      "type": "function",
      "constant": true
    },
    {
      "inputs": [],
      "name": "getFinalizedBlockRoot",
      "outputs": [
        {
          "internalType": "bytes32",
          "name": "",
          "type": "bytes32"
        }
      ],
      "stateMutability": "view",
      "type": "function",
      "constant": true
    },
    {
      "inputs": [],
      "name": "getFinalizedStateRoot",
      "outputs": [
        {
          "internalType": "bytes32",
          "name": "",
          "type": "bytes32"
        }
      ],
      "stateMutability": "view",
      "type": "function",
      "constant": true
    },
    {
      "inputs": [
        {
          "internalType": "bytes32",
          "name": "message",
          "type": "bytes32"
        },
        {
          "internalType": "bytes",
          "name": "signature",
          "type": "bytes"
        },
        {
          "internalType": "bytes[]",
          "name": "pubkeys",
          "type": "bytes[]"
        }
      ],
      "name": "testEncoding",
      "outputs": [
        {
          "internalType": "bytes",
          "name": "",
          "type": "bytes"
        }
      ],
      "stateMutability": "view",
      "type": "function",
      "constant": true
    },
    {
      "inputs": [
        {
          "internalType": "bytes[512]",
          "name": "committee",
          "type": "bytes[512]"
        },
        {
          "internalType": "bytes",
          "name": "aggregate",
          "type": "bytes"
        }
      ],
      "name": "testJustStoreSyncCommittee",
      "outputs": [],
      "stateMutability": "nonpayable",
      "type": "function"
    },
    {
      "inputs": [
        {
          "internalType": "bytes[512]",
          "name": "committee",
          "type": "bytes[512]"
        },
        {
          "internalType": "bytes",
          "name": "aggregate",
          "type": "bytes"
        }
      ],
      "name": "testJustDoSyncCommitteeMerkleizationFromMemory",
      "outputs": [
        {
          "internalType": "bytes32",
          "name": "",
          "type": "bytes32"
        }
      ],
      "stateMutability": "nonpayable",
      "type": "function"
    },
    {
      "inputs": [],
      "name": "testJustDoSyncCommitteeMerkleizationFromStorage",
      "outputs": [
        {
          "internalType": "bytes32",
          "name": "",
          "type": "bytes32"
        }
      ],
      "stateMutability": "nonpayable",
      "type": "function"
    },
    {
      "inputs": [],
      "name": "testJustReadSyncCommitteeFromStorage",
      "outputs": [
        {
          "internalType": "bytes[512]",
          "name": "",
          "type": "bytes[512]"
        }
      ],
      "stateMutability": "nonpayable",
      "type": "function"
    },
    {
      "inputs": [
        {
          "internalType": "bytes[512]",
          "name": "",
          "type": "bytes[512]"
        }
      ],
      "name": "testJustSubmitSyncCommitteeViaMemory",
      "outputs": [
        {
          "internalType": "bool",
          "name": "",
          "type": "bool"
        }
      ],
      "stateMutability": "nonpayable",
      "type": "function"
    },
    {
      "inputs": [
        {
          "internalType": "bytes[512]",
          "name": "",
          "type": "bytes[512]"
        }
      ],
      "name": "testJustSubmitSyncCommitteeViaCalldata",
      "outputs": [
        {
          "internalType": "bool",
          "name": "",
          "type": "bool"
        }
      ],
      "stateMutability": "nonpayable",
      "type": "function"
    },
    {
      "inputs": [
        {
          "components": [
            {
              "internalType": "bytes",
              "name": "signature",
              "type": "bytes"
            },
            {
              "internalType": "bool[512]",
              "name": "participants",
              "type": "bool[512]"
            },
            {
              "internalType": "bytes32",
              "name": "latestBlockRoot",
              "type": "bytes32"
            },
            {
              "internalType": "bytes32",
              "name": "signingDomain",
              "type": "bytes32"
            },
            {
              "internalType": "bytes32",
              "name": "stateRoot",
              "type": "bytes32"
            },
            {
              "internalType": "bytes32[]",
              "name": "stateRootBranch",
              "type": "bytes32[]"
            },
            {
              "internalType": "uint64",
              "name": "latestSlot",
              "type": "uint64"
            },
            {
              "internalType": "bytes32[]",
              "name": "latestSlotBranch",
              "type": "bytes32[]"
            },
            {
              "internalType": "bytes32",
              "name": "finalizedBlockRoot",
              "type": "bytes32"
            },
            {
              "internalType": "bytes32[]",
              "name": "finalizingBranch",
              "type": "bytes32[]"
            },
            {
              "internalType": "uint64",
              "name": "finalizedSlot",
              "type": "uint64"
            },
            {
              "internalType": "bytes32[]",
              "name": "finalizedSlotBranch",
              "type": "bytes32[]"
            },
            {
              "internalType": "bytes32",
              "name": "finalizedStateRoot",
              "type": "bytes32"
            },
            {
              "internalType": "bytes32[]",
              "name": "finalizedStateRootBranch",
              "type": "bytes32[]"
            },
            {
              "internalType": "bytes[512]",
              "name": "syncCommittee",
              "type": "bytes[512]"
            },
            {
              "internalType": "bytes",
              "name": "syncCommitteeAggregate",
              "type": "bytes"
            },
            {
              "internalType": "bytes32[]",
              "name": "syncCommitteeBranch",
              "type": "bytes32[]"
            }
          ],
          "internalType": "struct ChainRelayUpdate",
          "name": "_chainRelayUpdate",
          "type": "tuple"
        }
      ],
      "name": "testDoNothingWithData",
      "outputs": [
        {
          "internalType": "bool",
          "name": "",
          "type": "bool"
        }
      ],
      "stateMutability": "nonpayable",
      "type": "function"
    },
    {
      "inputs": [
        {
          "components": [
            {
              "internalType": "bytes",
              "name": "signature",
              "type": "bytes"
            },
            {
              "internalType": "bool[512]",
              "name": "participants",
              "type": "bool[512]"
            },
            {
              "internalType": "bytes32",
              "name": "latestBlockRoot",
              "type": "bytes32"
            },
            {
              "internalType": "bytes32",
              "name": "signingDomain",
              "type": "bytes32"
            },
            {
              "internalType": "bytes32",
              "name": "stateRoot",
              "type": "bytes32"
            },
            {
              "internalType": "bytes32[]",
              "name": "stateRootBranch",
              "type": "bytes32[]"
            },
            {
              "internalType": "uint64",
              "name": "latestSlot",
              "type": "uint64"
            },
            {
              "internalType": "bytes32[]",
              "name": "latestSlotBranch",
              "type": "bytes32[]"
            },
            {
              "internalType": "bytes32",
              "name": "finalizedBlockRoot",
              "type": "bytes32"
            },
            {
              "internalType": "bytes32[]",
              "name": "finalizingBranch",
              "type": "bytes32[]"
            },
            {
              "internalType": "uint64",
              "name": "finalizedSlot",
              "type": "uint64"
            },
            {
              "internalType": "bytes32[]",
              "name": "finalizedSlotBranch",
              "type": "bytes32[]"
            },
            {
              "internalType": "bytes32",
              "name": "finalizedStateRoot",
              "type": "bytes32"
            },
            {
              "internalType": "bytes32[]",
              "name": "finalizedStateRootBranch",
              "type": "bytes32[]"
            },
            {
              "internalType": "bytes[512]",
              "name": "syncCommittee",
              "type": "bytes[512]"
            },
            {
              "internalType": "bytes",
              "name": "syncCommitteeAggregate",
              "type": "bytes"
            },
            {
              "internalType": "bytes32[]",
              "name": "syncCommitteeBranch",
              "type": "bytes32[]"
            }
          ],
          "internalType": "struct ChainRelayUpdate",
          "name": "_chainRelayUpdate",
          "type": "tuple"
        }
      ],
      "name": "submitUpdate",
      "outputs": [
        {
          "internalType": "bool",
          "name": "",
          "type": "bool"
        }
      ],
      "stateMutability": "nonpayable",
      "type": "function"
    },
    {
      "inputs": [
        {
          "internalType": "bytes[512]",
          "name": "_pubkeys",
          "type": "bytes[512]"
        },
        {
          "internalType": "bool[512]",
          "name": "_isActive",
          "type": "bool[512]"
        },
        {
          "internalType": "uint256",
          "name": "_numberOfActive",
          "type": "uint256"
        }
      ],
      "name": "getActiveValidators",
      "outputs": [
        {
          "internalType": "bytes[]",
          "name": "",
          "type": "bytes[]"
        }
      ],
      "stateMutability": "pure",
      "type": "function",
      "constant": true
    },
    {
      "inputs": [
        {
          "internalType": "bool[512]",
          "name": "_bools",
          "type": "bool[512]"
        }
      ],
      "name": "countTrueBools",
      "outputs": [
        {
          "internalType": "uint256",
          "name": "",
          "type": "uint256"
        }
      ],
      "stateMutability": "pure",
      "type": "function",
      "constant": true
    },
    {
      "inputs": [
        {
          "internalType": "bytes32",
          "name": "_message",
          "type": "bytes32"
        },
        {
          "internalType": "bytes",
          "name": "_signature",
          "type": "bytes"
        },
        {
          "internalType": "bytes[]",
          "name": "_pubkeys",
          "type": "bytes[]"
        }
      ],
      "name": "serializeAggregateSignature",
      "outputs": [
        {
          "internalType": "bytes",
          "name": "",
          "type": "bytes"
        }
      ],
      "stateMutability": "pure",
      "type": "function",
      "constant": true
    },
    {
      "inputs": [
        {
          "internalType": "bytes",
          "name": "_input",
          "type": "bytes"
        }
      ],
      "name": "fastAggregateVerify",
      "outputs": [
        {
          "internalType": "bool",
          "name": "o",
          "type": "bool"
        }
      ],
      "stateMutability": "view",
      "type": "function",
      "constant": true
    },
    {
      "inputs": [
        {
          "internalType": "uint256",
          "name": "_slot",
          "type": "uint256"
        }
      ],
      "name": "slotToUnixTimestamp",
      "outputs": [
        {
          "internalType": "uint256",
          "name": "timestamp",
          "type": "uint256"
        }
      ],
      "stateMutability": "pure",
      "type": "function",
      "constant": true
    },
    {
      "inputs": [
        {
          "internalType": "bytes32",
          "name": "_input",
          "type": "bytes32"
        }
      ],
      "name": "bytes32ToBytes",
      "outputs": [
        {
          "internalType": "bytes",
          "name": "output",
          "type": "bytes"
        }
      ],
      "stateMutability": "pure",
      "type": "function",
      "constant": true
    },
    {
      "inputs": [
        {
          "internalType": "bytes2",
          "name": "_input",
          "type": "bytes2"
        }
      ],
      "name": "bytes2ToBytes",
      "outputs": [
        {
          "internalType": "bytes",
          "name": "output",
          "type": "bytes"
        }
      ],
      "stateMutability": "pure",
      "type": "function",
      "constant": true
    },
    {
      "inputs": [
        {
          "internalType": "bytes32",
          "name": "_left",
          "type": "bytes32"
        },
        {
          "internalType": "bytes32",
          "name": "_right",
          "type": "bytes32"
        }
      ],
      "name": "concat",
      "outputs": [
        {
          "internalType": "bytes",
          "name": "",
          "type": "bytes"
        }
      ],
      "stateMutability": "pure",
      "type": "function",
      "constant": true
    },
    {
      "inputs": [
        {
          "internalType": "bytes32",
          "name": "_left",
          "type": "bytes32"
        },
        {
          "internalType": "bytes32",
          "name": "_right",
          "type": "bytes32"
        }
      ],
      "name": "hashTreeRootPair",
      "outputs": [
        {
          "internalType": "bytes32",
          "name": "",
          "type": "bytes32"
        }
      ],
      "stateMutability": "pure",
      "type": "function",
      "constant": true
    },
    {
      "inputs": [
        {
          "internalType": "bytes",
          "name": "_blspubkey",
          "type": "bytes"
        }
      ],
      "name": "hashTreeRootBlspubkey",
      "outputs": [
        {
          "internalType": "bytes32",
          "name": "",
          "type": "bytes32"
        }
      ],
      "stateMutability": "pure",
      "type": "function",
      "constant": true
    },
    {
      "inputs": [
        {
          "internalType": "bytes32",
          "name": "_blockRoot",
          "type": "bytes32"
        },
        {
          "internalType": "bytes32",
          "name": "_signingDomain",
          "type": "bytes32"
        }
      ],
      "name": "computeSigningRoot",
      "outputs": [
        {
          "internalType": "bytes32",
          "name": "",
          "type": "bytes32"
        }
      ],
      "stateMutability": "pure",
      "type": "function",
      "constant": true
    },
    {
      "inputs": [
        {
          "internalType": "bytes",
          "name": "_input",
          "type": "bytes"
        }
      ],
      "name": "bytesToBytes8",
      "outputs": [
        {
          "internalType": "bytes8",
          "name": "result",
          "type": "bytes8"
        }
      ],
      "stateMutability": "pure",
      "type": "function",
      "constant": true
    },
    {
      "inputs": [
        {
          "internalType": "bytes",
          "name": "_input",
          "type": "bytes"
        }
      ],
      "name": "bytesToBytes32",
      "outputs": [
        {
          "internalType": "bytes32",
          "name": "result",
          "type": "bytes32"
        }
      ],
      "stateMutability": "pure",
      "type": "function",
      "constant": true
    },
    {
      "inputs": [
        {
          "internalType": "bytes8",
          "name": "_input",
          "type": "bytes8"
        }
      ],
      "name": "revertBytes8",
      "outputs": [
        {
          "internalType": "bytes8",
          "name": "",
          "type": "bytes8"
        }
      ],
      "stateMutability": "pure",
      "type": "function",
      "constant": true
    },
    {
      "inputs": [
        {
          "internalType": "uint64",
          "name": "_input",
          "type": "uint64"
        }
      ],
      "name": "merklelizeSlot",
      "outputs": [
        {
          "internalType": "bytes32",
          "name": "",
          "type": "bytes32"
        }
      ],
      "stateMutability": "pure",
      "type": "function",
      "constant": true
    },
    {
      "inputs": [
        {
          "internalType": "uint256",
          "name": "_input",
          "type": "uint256"
        }
      ],
      "name": "bitLength",
      "outputs": [
        {
          "internalType": "uint256",
          "name": "",
          "type": "uint256"
        }
      ],
      "stateMutability": "pure",
      "type": "function",
      "constant": true
    },
    {
      "inputs": [
        {
          "internalType": "uint256",
          "name": "_input",
          "type": "uint256"
        }
      ],
      "name": "nextPowOfTwo",
      "outputs": [
        {
          "internalType": "uint256",
          "name": "",
          "type": "uint256"
        }
      ],
      "stateMutability": "pure",
      "type": "function",
      "constant": true
    },
    {
      "inputs": [
        {
          "internalType": "uint256",
          "name": "_input",
          "type": "uint256"
        }
      ],
      "name": "floorLog2",
      "outputs": [
        {
          "internalType": "uint256",
          "name": "",
          "type": "uint256"
        }
      ],
      "stateMutability": "pure",
      "type": "function",
      "constant": true
    },
    {
      "inputs": [
        {
          "internalType": "bytes32[512]",
          "name": "_chunks",
          "type": "bytes32[512]"
        }
      ],
      "name": "merkleize",
      "outputs": [
        {
          "internalType": "bytes32",
          "name": "",
          "type": "bytes32"
        }
      ],
      "stateMutability": "pure",
      "type": "function",
      "constant": true
    },
    {
      "inputs": [
        {
          "internalType": "bytes[512]",
          "name": "_syncCommittee",
          "type": "bytes[512]"
        },
        {
          "internalType": "bytes",
          "name": "_syncAggregate",
          "type": "bytes"
        }
      ],
      "name": "hashTreeRootSyncCommittee",
      "outputs": [
        {
          "internalType": "bytes32",
          "name": "",
          "type": "bytes32"
        }
      ],
      "stateMutability": "pure",
      "type": "function",
      "constant": true
    },
    {
      "inputs": [
        {
          "internalType": "uint256",
          "name": "_generalizedIndex",
          "type": "uint256"
        }
      ],
      "name": "getSubtreeIndex",
      "outputs": [
        {
          "internalType": "uint256",
          "name": "",
          "type": "uint256"
        }
      ],
      "stateMutability": "pure",
      "type": "function",
      "constant": true
    },
    {
      "inputs": [
        {
          "internalType": "bytes32",
          "name": "_root",
          "type": "bytes32"
        },
        {
          "internalType": "bytes32",
          "name": "_leaf",
          "type": "bytes32"
        },
        {
          "internalType": "uint256",
          "name": "_generalizedIndex",
          "type": "uint256"
        },
        {
          "internalType": "bytes32[]",
          "name": "_branch",
          "type": "bytes32[]"
        }
      ],
      "name": "validateMerkleBranch",
      "outputs": [
        {
          "internalType": "bool",
          "name": "",
          "type": "bool"
        }
      ],
      "stateMutability": "pure",
      "type": "function",
      "constant": true
    }
  ],
  "bytecode": "0x60806040523480156200001157600080fd5b5060405162003d3f38038062003d3f83398181016040528101906200003791906200014c565b866000806101000a81548167ffffffffffffffff021916908367ffffffffffffffff16021790555085600060086101000a81548167ffffffffffffffff021916908367ffffffffffffffff1602179055508460038190555081600560006101000a81548167ffffffffffffffff021916908367ffffffffffffffff16021790555080600560086101000a81548167ffffffffffffffff021916908367ffffffffffffffff16021790555082600560106101000a81548167ffffffffffffffff021916908367ffffffffffffffff160217905550836004819055505050505050505062000256565b6000815190506200012f8162000222565b92915050565b60008151905062000146816200023c565b92915050565b600080600080600080600060e0888a0312156200016e576200016d6200021d565b5b60006200017e8a828b0162000135565b9750506020620001918a828b0162000135565b9650506040620001a48a828b016200011e565b9550506060620001b78a828b016200011e565b9450506080620001ca8a828b0162000135565b93505060a0620001dd8a828b0162000135565b92505060c0620001f08a828b0162000135565b91505092959891949750929550565b6000819050919050565b600067ffffffffffffffff82169050919050565b600080fd5b6200022d81620001ff565b81146200023957600080fd5b50565b620002478162000209565b81146200025357600080fd5b50565b613ad980620002666000396000f3fe608060405234801561001057600080fd5b50600436106102065760003560e01c80637e7f232a1161011a578063b8ffb2e3116100ad578063d344309a1161007c578063d344309a1461071f578063e41bbcf81461073d578063e92938ab1461076d578063f218850e1461079d578063fe24511e146107cd57610206565b8063b8ffb2e314610671578063bfe370d9146106a1578063c36a13da146106d1578063c9d9fc251461070157610206565b8063a7201260116100e9578063a7201260146105b1578063a9755eb1146105e1578063b1e9f2a014610611578063b537de4f1461064157610206565b80637e7f232a146104f1578063809d74ba146105215780639110bc53146105515780639eb51fce1461058157610206565b806345b8bafc1161019d5780635c5528791161016c5780635c55287914610413578063639f30c314610443578063677705f8146104615780636e1e76b9146104915780637b9e6200146104c157610206565b806345b8bafc146103795780634c0999c7146103a957806356f07c06146103d95780635b820858146103f757610206565b8063398fd9d4116101d9578063398fd9d4146102b957806339f4babd146102e95780633fccb97b14610319578063404c2a711461034957610206565b806320435b8d1461020b578063255f37911461023b5780632b2247511461026b5780632c26bfd41461029b575b600080fd5b61022560048036038101906102209190612940565b6107fd565b6040516102329190612df5565b60405180910390f35b6102556004803603810190610250919061267d565b610c0d565b6040516102629190612e10565b60405180910390f35b6102856004803603810190610280919061254c565b610ca5565b6040516102929190612e10565b60405180910390f35b6102a3610dc1565b6040516102b09190612e10565b60405180910390f35b6102d360048036038101906102ce91906128f7565b610dcb565b6040516102e09190612df5565b60405180910390f35b61030360048036038101906102fe919061283f565b610e22565b6040516103109190612e8b565b60405180910390f35b610333600480360381019061032e9190612989565b610e51565b6040516103409190612fcd565b60405180910390f35b610363600480360381019061035e91906129b6565b610e76565b6040516103709190612e10565b60405180910390f35b610393600480360381019061038e9190612989565b610ea6565b6040516103a09190612fcd565b60405180910390f35b6103c360048036038101906103be9190612722565b610f08565b6040516103d09190612e8b565b60405180910390f35b6103e1610f31565b6040516103ee9190612e10565b60405180910390f35b610411600480360381019061040c919061267d565b610f3b565b005b61042d600480360381019061042891906128f7565b610f6a565b60405161043a9190612e70565b60405180910390f35b61044b610f8e565b6040516104589190612fe8565b60405180910390f35b61047b600480360381019061047691906125c3565b610fac565b6040516104889190612df5565b60405180910390f35b6104ab60048036038101906104a691906128ca565b610fb7565b6040516104b89190612e70565b60405180910390f35b6104db60048036038101906104d6919061277c565b6110a0565b6040516104e89190612e8b565b60405180910390f35b61050b6004803603810190610506919061283f565b6110cc565b6040516105189190612e8b565b60405180910390f35b61053b6004803603810190610536919061251e565b6113bc565b6040516105489190612fcd565b60405180910390f35b61056b6004803603810190610566919061267d565b611421565b6040516105789190612e10565b60405180910390f35b61059b6004803603810190610596919061277c565b611435565b6040516105a89190612e10565b60405180910390f35b6105cb60048036038101906105c6919061257a565b611498565b6040516105d89190612df5565b60405180910390f35b6105fb60048036038101906105f691906126f5565b6114a3565b6040516106089190612e8b565b60405180910390f35b61062b60048036038101906106269190612989565b6114cc565b6040516106389190612fcd565b60405180910390f35b61065b60048036038101906106569190612940565b6114f5565b6040516106689190612df5565b60405180910390f35b61068b60048036038101906106869190612989565b61151d565b6040516106989190612fcd565b60405180910390f35b6106bb60048036038101906106b691906128f7565b611559565b6040516106c89190612e10565b60405180910390f35b6106eb60048036038101906106e691906128f7565b61157c565b6040516106f89190612e10565b60405180910390f35b610709611601565b6040516107169190612db1565b60405180910390f35b6107276116cf565b6040516107349190612e10565b60405180910390f35b61075760048036038101906107529190612989565b61182b565b6040516107649190612fcd565b60405180910390f35b6107876004803603810190610782919061277c565b61185e565b6040516107949190612e10565b60405180910390f35b6107b760048036038101906107b291906127bc565b611872565b6040516107c49190612df5565b60405180910390f35b6107e760048036038101906107e2919061260c565b6119dd565b6040516107f49190612dd3565b60405180910390f35b6000806108128360400151846060015161185e565b9050600061082384602001516113bc565b905060008054906101000a900467ffffffffffffffff1667ffffffffffffffff16811015610886576040517f08c379a000000000000000000000000000000000000000000000000000000000815260040161087d90612f2d565b60405180910390fd5b61089f84604001518560800151600b8760a00151611872565b6108de576040517f08c379a00000000000000000000000000000000000000000000000000000000081526004016108d590612fad565b60405180910390fd5b6108ff84604001516108f38660c00151610e76565b60088760e00151611872565b50610924846101000151610917866101400151610e76565b6008876101600151611872565b50610941846101000151856101800151600b876101a00151611872565b610980576040517f08c379a000000000000000000000000000000000000000000000000000000000815260040161097790612ead565b60405180910390fd5b6000600560089054906101000a900467ffffffffffffffff168560c001516109a89190613459565b67ffffffffffffffff169050600061020060206109c591906133cb565b826109d09190613229565b1415610a6c576109fd6004546109f0876101c00151886101e00151610c0d565b6036886102000151611872565b50610a28610a23848760000151610a1e896101c001518a60200151886119dd565b6110cc565b610dcb565b610a67576040517f08c379a0000000000000000000000000000000000000000000000000000000008152600401610a5e90612f0d565b60405180910390fd5b610b8e565b60016102006020610a7d91906133cb565b82610a889190613229565b1415610b5257610ab5600454610aa8876101c00151886101e00151610c0d565b6037886102000151611872565b50610ae0610adb848760000151610ad6896101c001518a60200151886119dd565b6110cc565b610dcb565b610b1f576040517f08c379a0000000000000000000000000000000000000000000000000000000008152600401610b1690612f8d565b60405180910390fd5b846101400151600560086101000a81548167ffffffffffffffff021916908367ffffffffffffffff160217905550610b8d565b6040517f08c379a0000000000000000000000000000000000000000000000000000000008152600401610b8490612f6d565b60405180910390fd5b5b8461010001516003819055508461018001516004819055508460c00151600560006101000a81548167ffffffffffffffff021916908367ffffffffffffffff160217905550846101400151600560106101000a81548167ffffffffffffffff021916908367ffffffffffffffff16021790555060019350505050919050565b6000610c17611c6b565b60005b610200811015610c7557610c4585826102008110610c3b57610c3a6136d9565b5b602002015161157c565b82826102008110610c5957610c586136d9565b5b6020020181815250508080610c6d906135be565b915050610c1a565b506000610c8182610ca5565b90506000610c9782610c928761157c565b611435565b905080935050505092915050565b600080610cb361020061151d565b9050600061020090505b81811015610cd8578080610cd0906135be565b915050610cbd565b5060005b610ce582610ea6565b811015610d9e576000816002610cfb91906132ad565b905060005b83811015610d8957610d4d86826102008110610d1f57610d1e6136d9565b5b6020020151878484610d3191906131d3565b6102008110610d4357610d426136d9565b5b6020020151611435565b86826102008110610d6157610d606136d9565b5b602002018181525050600282610d7791906133cb565b81610d8291906131d3565b9050610d00565b50508080610d96906135be565b915050610cdc565b508260006102008110610db457610db36136d9565b5b6020020151915050919050565b6000600354905090565b60008015610ddc5760019050610e1d565b610de4611c8f565b6040518351602083826020880160055afa610dfe57600080fd5b505080600060018110610e1457610e136136d9565b5b60200201519150505b919050565b6060838383604051602001610e3993929190612e2b565b60405160208183030381529060405290509392505050565b6000635fc63057600c83610e6591906133cb565b610e6f91906131d3565b9050919050565b6000610e848260c01b610fb7565b77ffffffffffffffffffffffffffffffffffffffffffffffff19169050919050565b60006001821015610eec576040517f08c379a0000000000000000000000000000000000000000000000000000000008152600401610ee390612ecd565b60405180910390fd5b6001610ef78361182b565b610f019190613425565b9050919050565b606081604051602001610f1b9190612d53565b6040516020818303038152906040529050919050565b6000600454905090565b81600690610200610f4d929190611cb1565b50806102069080519060200190610f65929190611d05565b505050565b60008082511415610f8157600060c01b9050610f89565b602082015190505b919050565b6000600560089054906101000a900467ffffffffffffffff16905090565b600060019050919050565b600080600867ffffffffffffffff811115610fd557610fd4613708565b5b6040519080825280601f01601f1916602001820160405280156110075781602001600182028036833780820191505090505b50905060005b600881101561108e57838160088110611029576110286136d9565b5b1a60f81b8282600761103b9190613425565b8151811061104c5761104b6136d9565b5b60200101907effffffffffffffffffffffffffffffffffffffffffffffffffffffffffffff1916908160001a9053508080611086906135be565b91505061100d565b5061109881610f6a565b915050919050565b606082826040516020016110b5929190612d6e565b604051602081830303815290604052905092915050565b60606000825160f01b90506000835160306110e791906133cb565b60826110f391906131d3565b67ffffffffffffffff81111561110c5761110b613708565b5b6040519080825280601f01601f19166020018201604052801561113e5781602001600182028036833780820191505090505b50905060005b60208110156111b9578681602081106111605761115f6136d9565b5b1a60f81b828281518110611177576111766136d9565b5b60200101907effffffffffffffffffffffffffffffffffffffffffffffffffffffffffffff1916908160001a90535080806111b1906135be565b915050611144565b506000602090505b608081101561124957856020826111d89190613425565b815181106111e9576111e86136d9565b5b602001015160f81c60f81b828281518110611207576112066136d9565b5b60200101907effffffffffffffffffffffffffffffffffffffffffffffffffffffffffffff1916908160001a9053508080611241906135be565b9150506111c1565b506000608090505b60828110156112d257826080826112689190613425565b60028110611279576112786136d9565b5b1a60f81b8282815181106112905761128f6136d9565b5b60200101907effffffffffffffffffffffffffffffffffffffffffffffffffffffffffffff1916908160001a90535080806112ca906135be565b915050611251565b5060005b84518110156113af5760005b603081101561139b578582815181106112fe576112fd6136d9565b5b60200260200101518181518110611318576113176136d9565b5b602001015160f81c60f81b838260308561133291906133cb565b608261133e91906131d3565b61134891906131d3565b81518110611359576113586136d9565b5b60200101907effffffffffffffffffffffffffffffffffffffffffffffffffffffffffffff1916908160001a9053508080611393906135be565b9150506112e2565b5080806113a7906135be565b9150506112d6565b5080925050509392505050565b6000806000905060005b6102008110156114175760011515848261020081106113e8576113e76136d9565b5b602002015115151415611404578180611400906135be565b9250505b808061140f906135be565b9150506113c6565b5080915050919050565b600061142d8383610c0d565b905092915050565b6000600261144384846110a0565b6040516114509190612d9a565b602060405180830381855afa15801561146d573d6000803e3d6000fd5b5050506040513d601f19601f82011682018060405250810190611490919061274f565b905092915050565b600060019050919050565b6060816040516020016114b69190612d38565b6040516020818303038152906040529050919050565b60006114d782610ea6565b60026114e391906132ad565b826114ee919061361b565b9050919050565b6000610200826101c001515061020014156115135760019050611518565b600090505b919050565b6000808214156115305760019050611554565b6115456001836115409190613425565b61182b565b600261155191906132ad565b90505b919050565b6000808251141561156f576000801b9050611577565b602082015190505b919050565b6000806115966000602085611ac39092919063ffffffff16565b905060006115b16020601086611ac39092919063ffffffff16565b90506115dc604051806040016040528060108152602001600081525082611be190919063ffffffff16565b90506115f86115ea83611559565b6115f383611559565b611435565b92505050919050565b611609611d8b565b600661020080602002604051908101604052809291906000905b828210156116c65783820180546116399061355b565b80601f01602080910402602001604051908101604052809291908181526020018280546116659061355b565b80156116b25780601f10611687576101008083540402835291602001916116b2565b820191906000526020600020905b81548152906001019060200180831161169557829003601f168201915b505050505081526020019060010190611623565b50505050905090565b6000611826600661020080602002604051908101604052809291906000905b828210156117915783820180546117049061355b565b80601f01602080910402602001604051908101604052809291908181526020018280546117309061355b565b801561177d5780601f106117525761010080835404028352916020019161177d565b820191906000526020600020905b81548152906001019060200180831161176057829003601f168201915b5050505050815260200190600101906116ee565b5050505061020680546117a39061355b565b80601f01602080910402602001604051908101604052809291908181526020018280546117cf9061355b565b801561181c5780601f106117f15761010080835404028352916020019161181c565b820191906000526020600020905b8154815290600101906020018083116117ff57829003601f168201915b5050505050610c0d565b905090565b600080600090505b6000831461185557600183901c9250808061184d906135be565b915050611833565b80915050919050565b600061186a8383611435565b905092915050565b60008061187e846114cc565b9050600061188b85610ea6565b9050600086905060005b828110156119cc57600160028260026118ae91906132ad565b866118b99190613229565b6118c3919061361b565b14156119435760026118ef8783815181106118e1576118e06136d9565b5b6020026020010151846110a0565b6040516118fc9190612d9a565b602060405180830381855afa158015611919573d6000803e3d6000fd5b5050506040513d601f19601f8201168201806040525081019061193c919061274f565b91506119b9565b60026119698388848151811061195c5761195b6136d9565b5b60200260200101516110a0565b6040516119769190612d9a565b602060405180830381855afa158015611993573d6000803e3d6000fd5b5050506040513d601f19601f820116820180604052508101906119b6919061274f565b91505b80806119c4906135be565b915050611895565b508781149350505050949350505050565b606060008267ffffffffffffffff8111156119fb576119fa613708565b5b604051908082528060200260200182016040528015611a2e57816020015b6060815260200190600190039081611a195790505b5090506000805b610200811015611ab65785816102008110611a5357611a526136d9565b5b602002015115611aa35786816102008110611a7157611a706136d9565b5b6020020151838381518110611a8957611a886136d9565b5b60200260200101819052508180611a9f906135be565b9250505b8080611aae906135be565b915050611a35565b5081925050509392505050565b606081601f83611ad391906131d3565b1015611b14576040517f08c379a0000000000000000000000000000000000000000000000000000000008152600401611b0b90612eed565b60405180910390fd5b8183611b2091906131d3565b84511015611b63576040517f08c379a0000000000000000000000000000000000000000000000000000000008152600401611b5a90612f4d565b60405180910390fd5b6060821560008114611b845760405191506000825260208201604052611bd5565b6040519150601f8416801560200281840101858101878315602002848b0101015b81831015611bc25780518352602083019250602081019050611ba5565b50868552601f19601f8301166040525050505b50809150509392505050565b6060806040519050835180825260208201818101602087015b81831015611c175780518352602083019250602081019050611bfa565b50855192508351830184528091508282019050602086015b81831015611c4c5780518352602083019250602081019050611c2f565b50601f19601f8851850115830101166040525050508091505092915050565b60405180614000016040528061020090602082028036833780820191505090505090565b6040518060200160405280600190602082028036833780820191505090505090565b826102008101928215611cf4579160200282015b82811115611cf3578251829080519060200190611ce3929190611d05565b5091602001919060010190611cc5565b5b509050611d019190611db4565b5090565b828054611d119061355b565b90600052602060002090601f016020900481019282611d335760008555611d7a565b82601f10611d4c57805160ff1916838001178555611d7a565b82800160010185558215611d7a579182015b82811115611d79578251825591602001919060010190611d5e565b5b509050611d879190611dd8565b5090565b604051806140000160405280610200905b6060815260200190600190039081611d9c5790505090565b5b80821115611dd45760008181611dcb9190611df5565b50600101611db5565b5090565b5b80821115611df1576000816000905550600101611dd9565b5090565b508054611e019061355b565b6000825580601f10611e135750611e32565b601f016020900490600052602060002090810190611e319190611dd8565b5b50565b6000611e48611e4384613028565b613003565b90508082856020860282011115611e6257611e61613746565b5b60005b85811015611e925781611e7888826121cb565b845260208401935060208301925050600181019050611e65565b5050509392505050565b6000611eaf611eaa8461304e565b613003565b90508082856020860282011115611ec957611ec8613746565b5b60005b85811015611ef95781611edf88826121f5565b845260208401935060208301925050600181019050611ecc565b5050509392505050565b6000611f16611f1184613074565b613003565b90508083825260208201905082856020860282011115611f3957611f38613746565b5b60005b85811015611f695781611f4f88826121f5565b845260208401935060208301925050600181019050611f3c565b5050509392505050565b6000611f86611f81846130a0565b613003565b90508082856020860282011115611fa057611f9f613746565b5b60005b85811015611fee57813567ffffffffffffffff811115611fc657611fc5613737565b5b808601611fd38982612234565b85526020850194506020840193505050600181019050611fa3565b5050509392505050565b600061200b612006846130c6565b613003565b9050808382526020820190508285602086028201111561202e5761202d613746565b5b60005b8581101561207c57813567ffffffffffffffff81111561205457612053613737565b5b8086016120618982612234565b85526020850194506020840193505050600181019050612031565b5050509392505050565b6000612099612094846130f2565b613003565b9050828152602081018484840111156120b5576120b461374b565b5b6120c0848285613519565b509392505050565b600082601f8301126120dd576120dc613737565b5b6102006120eb848285611e35565b91505092915050565b600082601f83011261210957612108613737565b5b610200612117848285611e9c565b91505092915050565b600082601f83011261213557612134613737565b5b8135612145848260208601611f03565b91505092915050565b6000819050826020610200028201111561216b5761216a613746565b5b92915050565b600082601f83011261218657612185613737565b5b610200612194848285611f73565b91505092915050565b600082601f8301126121b2576121b1613737565b5b81356121c2848260208601611ff8565b91505092915050565b6000813590506121da81613a19565b92915050565b6000813590506121ef81613a30565b92915050565b60008135905061220481613a47565b92915050565b60008151905061221981613a47565b92915050565b60008135905061222e81613a5e565b92915050565b600082601f83011261224957612248613737565b5b8135612259848260208601612086565b91505092915050565b600061420082840312156122795761227861373c565b5b612284610220613003565b9050600082013567ffffffffffffffff8111156122a4576122a3613741565b5b6122b084828501612234565b60008301525060206122c4848285016120c8565b6020830152506140206122d9848285016121f5565b6040830152506140406122ee848285016121f5565b606083015250614060612303848285016121f5565b60808301525061408082013567ffffffffffffffff81111561232857612327613741565b5b61233484828501612120565b60a0830152506140a061234984828501612509565b60c0830152506140c082013567ffffffffffffffff81111561236e5761236d613741565b5b61237a84828501612120565b60e0830152506140e061238f848285016121f5565b6101008301525061410082013567ffffffffffffffff8111156123b5576123b4613741565b5b6123c184828501612120565b610120830152506141206123d784828501612509565b6101408301525061414082013567ffffffffffffffff8111156123fd576123fc613741565b5b61240984828501612120565b6101608301525061416061241f848285016121f5565b6101808301525061418082013567ffffffffffffffff81111561244557612444613741565b5b61245184828501612120565b6101a0830152506141a082013567ffffffffffffffff81111561247757612476613741565b5b61248384828501612171565b6101c0830152506141c082013567ffffffffffffffff8111156124a9576124a8613741565b5b6124b584828501612234565b6101e0830152506141e082013567ffffffffffffffff8111156124db576124da613741565b5b6124e784828501612120565b6102008301525092915050565b60008135905061250381613a75565b92915050565b60008135905061251881613a8c565b92915050565b6000614000828403121561253557612534613755565b5b6000612543848285016120c8565b91505092915050565b6000614000828403121561256357612562613755565b5b6000612571848285016120f4565b91505092915050565b6000602082840312156125905761258f613755565b5b600082013567ffffffffffffffff8111156125ae576125ad613750565b5b6125ba8482850161214e565b91505092915050565b6000602082840312156125d9576125d8613755565b5b600082013567ffffffffffffffff8111156125f7576125f6613750565b5b61260384828501612171565b91505092915050565b6000806000614040848603121561262657612625613755565b5b600084013567ffffffffffffffff81111561264457612643613750565b5b61265086828701612171565b9350506020612661868287016120c8565b925050614020612673868287016124f4565b9150509250925092565b6000806040838503121561269457612693613755565b5b600083013567ffffffffffffffff8111156126b2576126b1613750565b5b6126be85828601612171565b925050602083013567ffffffffffffffff8111156126df576126de613750565b5b6126eb85828601612234565b9150509250929050565b60006020828403121561270b5761270a613755565b5b6000612719848285016121e0565b91505092915050565b60006020828403121561273857612737613755565b5b6000612746848285016121f5565b91505092915050565b60006020828403121561276557612764613755565b5b60006127738482850161220a565b91505092915050565b6000806040838503121561279357612792613755565b5b60006127a1858286016121f5565b92505060206127b2858286016121f5565b9150509250929050565b600080600080608085870312156127d6576127d5613755565b5b60006127e4878288016121f5565b94505060206127f5878288016121f5565b9350506040612806878288016124f4565b925050606085013567ffffffffffffffff81111561282757612826613750565b5b61283387828801612120565b91505092959194509250565b60008060006060848603121561285857612857613755565b5b6000612866868287016121f5565b935050602084013567ffffffffffffffff81111561288757612886613750565b5b61289386828701612234565b925050604084013567ffffffffffffffff8111156128b4576128b3613750565b5b6128c08682870161219d565b9150509250925092565b6000602082840312156128e0576128df613755565b5b60006128ee8482850161221f565b91505092915050565b60006020828403121561290d5761290c613755565b5b600082013567ffffffffffffffff81111561292b5761292a613750565b5b61293784828501612234565b91505092915050565b60006020828403121561295657612955613755565b5b600082013567ffffffffffffffff81111561297457612973613750565b5b61298084828501612262565b91505092915050565b60006020828403121561299f5761299e613755565b5b60006129ad848285016124f4565b91505092915050565b6000602082840312156129cc576129cb613755565b5b60006129da84828501612509565b91505092915050565b60006129ef8383612b3c565b905092915050565b6000612a028261313d565b612a0c8185613179565b935083602082028501612a1e85613123565b8060005b85811015612a5a5784840389528151612a3b85826129e3565b9450612a468361315f565b925060208a01995050600181019050612a22565b50829750879550505050505092915050565b6000612a7782613149565b612a818185613184565b935083602082028501612a938561312d565b8060005b85811015612acf5784840389528151612ab085826129e3565b9450612abb8361316c565b925060208a01995050600181019050612a97565b50829750879550505050505092915050565b612aea8161348d565b82525050565b612b01612afc82613499565b613607565b82525050565b612b10816134c5565b82525050565b612b27612b22826134c5565b613611565b82525050565b612b36816134cf565b82525050565b6000612b4782613154565b612b518185613195565b9350612b61818560208601613528565b612b6a8161375a565b840191505092915050565b6000612b8082613154565b612b8a81856131a6565b9350612b9a818560208601613528565b612ba38161375a565b840191505092915050565b6000612bb982613154565b612bc381856131b7565b9350612bd3818560208601613528565b80840191505092915050565b6000612bec602f836131c2565b9150612bf782613778565b604082019050919050565b6000612c0f6032836131c2565b9150612c1a826137c7565b604082019050919050565b6000612c32600e836131c2565b9150612c3d82613816565b602082019050919050565b6000612c55602d836131c2565b9150612c608261383f565b604082019050919050565b6000612c786021836131c2565b9150612c838261388e565b604082019050919050565b6000612c9b6011836131c2565b9150612ca6826138dd565b602082019050919050565b6000612cbe6050836131c2565b9150612cc982613906565b606082019050919050565b6000612ce1602a836131c2565b9150612cec8261397b565b604082019050919050565b6000612d04602c836131c2565b9150612d0f826139ca565b604082019050919050565b612d23816134fb565b82525050565b612d3281613505565b82525050565b6000612d448284612af0565b60028201915081905092915050565b6000612d5f8284612b16565b60208201915081905092915050565b6000612d7a8285612b16565b602082019150612d8a8284612b16565b6020820191508190509392505050565b6000612da68284612bae565b915081905092915050565b60006020820190508181036000830152612dcb81846129f7565b905092915050565b60006020820190508181036000830152612ded8184612a6c565b905092915050565b6000602082019050612e0a6000830184612ae1565b92915050565b6000602082019050612e256000830184612b07565b92915050565b6000606082019050612e406000830186612b07565b8181036020830152612e528185612b75565b90508181036040830152612e668184612a6c565b9050949350505050565b6000602082019050612e856000830184612b2d565b92915050565b60006020820190508181036000830152612ea58184612b75565b905092915050565b60006020820190508181036000830152612ec681612bdf565b9050919050565b60006020820190508181036000830152612ee681612c02565b9050919050565b60006020820190508181036000830152612f0681612c25565b9050919050565b60006020820190508181036000830152612f2681612c48565b9050919050565b60006020820190508181036000830152612f4681612c6b565b9050919050565b60006020820190508181036000830152612f6681612c8e565b9050919050565b60006020820190508181036000830152612f8681612cb1565b9050919050565b60006020820190508181036000830152612fa681612cd4565b9050919050565b60006020820190508181036000830152612fc681612cf7565b9050919050565b6000602082019050612fe26000830184612d1a565b92915050565b6000602082019050612ffd6000830184612d29565b92915050565b600061300d61301e565b9050613019828261358d565b919050565b6000604051905090565b600067ffffffffffffffff82111561304357613042613708565b5b602082029050919050565b600067ffffffffffffffff82111561306957613068613708565b5b602082029050919050565b600067ffffffffffffffff82111561308f5761308e613708565b5b602082029050602081019050919050565b600067ffffffffffffffff8211156130bb576130ba613708565b5b602082029050919050565b600067ffffffffffffffff8211156130e1576130e0613708565b5b602082029050602081019050919050565b600067ffffffffffffffff82111561310d5761310c613708565b5b6131168261375a565b9050602081019050919050565b6000819050919050565b6000819050602082019050919050565b60006102009050919050565b600081519050919050565b600081519050919050565b6000602082019050919050565b6000602082019050919050565b600081905092915050565b600082825260208201905092915050565b600082825260208201905092915050565b600082825260208201905092915050565b600081905092915050565b600082825260208201905092915050565b60006131de826134fb565b91506131e9836134fb565b9250827fffffffffffffffffffffffffffffffffffffffffffffffffffffffffffffffff0382111561321e5761321d61364c565b5b828201905092915050565b6000613234826134fb565b915061323f836134fb565b92508261324f5761324e61367b565b5b828204905092915050565b6000808291508390505b60018511156132a4578086048111156132805761327f61364c565b5b600185161561328f5780820291505b808102905061329d8561376b565b9450613264565b94509492505050565b60006132b8826134fb565b91506132c3836134fb565b92506132f07fffffffffffffffffffffffffffffffffffffffffffffffffffffffffffffffff84846132f8565b905092915050565b60008261330857600190506133c4565b8161331657600090506133c4565b816001811461332c576002811461333657613365565b60019150506133c4565b60ff8411156133485761334761364c565b5b8360020a91508482111561335f5761335e61364c565b5b506133c4565b5060208310610133831016604e8410600b841016171561339a5782820a9050838111156133955761339461364c565b5b6133c4565b6133a7848484600161325a565b925090508184048111156133be576133bd61364c565b5b81810290505b9392505050565b60006133d6826134fb565b91506133e1836134fb565b9250817fffffffffffffffffffffffffffffffffffffffffffffffffffffffffffffffff048311821515161561341a5761341961364c565b5b828202905092915050565b6000613430826134fb565b915061343b836134fb565b92508282101561344e5761344d61364c565b5b828203905092915050565b600061346482613505565b915061346f83613505565b9250828210156134825761348161364c565b5b828203905092915050565b60008115159050919050565b60007fffff00000000000000000000000000000000000000000000000000000000000082169050919050565b6000819050919050565b60007fffffffffffffffff00000000000000000000000000000000000000000000000082169050919050565b6000819050919050565b600067ffffffffffffffff82169050919050565b82818337600083830152505050565b60005b8381101561354657808201518184015260208101905061352b565b83811115613555576000848401525b50505050565b6000600282049050600182168061357357607f821691505b60208210811415613587576135866136aa565b5b50919050565b6135968261375a565b810181811067ffffffffffffffff821117156135b5576135b4613708565b5b80604052505050565b60006135c9826134fb565b91507fffffffffffffffffffffffffffffffffffffffffffffffffffffffffffffffff8214156135fc576135fb61364c565b5b600182019050919050565b6000819050919050565b6000819050919050565b6000613626826134fb565b9150613631836134fb565b9250826136415761364061367b565b5b828206905092915050565b7f4e487b7100000000000000000000000000000000000000000000000000000000600052601160045260246000fd5b7f4e487b7100000000000000000000000000000000000000000000000000000000600052601260045260246000fd5b7f4e487b7100000000000000000000000000000000000000000000000000000000600052602260045260246000fd5b7f4e487b7100000000000000000000000000000000000000000000000000000000600052603260045260246000fd5b7f4e487b7100000000000000000000000000000000000000000000000000000000600052604160045260246000fd5b600080fd5b600080fd5b600080fd5b600080fd5b600080fd5b600080fd5b600080fd5b6000601f19601f8301169050919050565b60008160011c9050919050565b7f6d65726b6c652070726f6f6620666f722066696e616c697a656420737461746560008201527f20726f6f74206e6f742076616c69640000000000000000000000000000000000602082015250565b7f5f696e70757420746f20666c6f6f724c6f6732206d757374206265206c61726760008201527f6572206f7220657175616c207468616e20310000000000000000000000000000602082015250565b7f736c6963655f6f766572666c6f77000000000000000000000000000000000000600082015250565b7f7369676e61747572652062792063757272656e742073796e6320636f6d6d697460008201527f746565206e6f742076616c696400000000000000000000000000000000000000602082015250565b7f6e6f7420656e6f756768207369676e6174757265207061727469636970616e7460008201527f7300000000000000000000000000000000000000000000000000000000000000602082015250565b7f736c6963655f6f75744f66426f756e6473000000000000000000000000000000600082015250565b7f6c617465737420736c6f7420646f6573206e6f7420696e64696361746520746860008201527f61742063757272656e74206f72206e6578742073796e6320636f6d6d6974746560208201527f6520697320726573706f6e7369626c6500000000000000000000000000000000604082015250565b7f7369676e6174757265206279206e6578742073796e6320636f6d6d697474656560008201527f206e6f742076616c696400000000000000000000000000000000000000000000602082015250565b7f6d65726b6c652070726f6f6620666f72206c617465737420737461746520726f60008201527f6f74206e6f742076616c69640000000000000000000000000000000000000000602082015250565b613a228161348d565b8114613a2d57600080fd5b50565b613a3981613499565b8114613a4457600080fd5b50565b613a50816134c5565b8114613a5b57600080fd5b50565b613a67816134cf565b8114613a7257600080fd5b50565b613a7e816134fb565b8114613a8957600080fd5b50565b613a9581613505565b8114613aa057600080fd5b5056fea2646970667358221220878ea325b016e38689c5112f4a2d3f991b556d9b583631c6bc544822ae17d59964736f6c63430008060033",
  "immutableReferences": {},
  "source": "// SPDX-License-Identifier: UNLICENSED\npragma solidity >=0.8.0 <0.9.0;\n\nimport \"bytes/BytesLib.sol\";\nimport \"./libraries/Memory.sol\";\n\n// debug settings\nbool constant MOCK_BLS_PRECOMPILE = false;\n\n// magic numbers\nuint constant FIRST_BEACON_BLOCK_UNIX_TIMESTAMP = 1606824023;\n\n// eth2 mainnet configuration\nuint constant SYNC_COMMITTEE_SIZE = 512;\nuint constant SECONDS_PER_SLOT = 12;\nuint constant SLOTS_PER_EPOCH = 32;\nuint constant EPOCHS_PER_SYNC_COMMITTEE_PERIOD = 512;\n\n// SSZ generalized indices\nuint constant FINALIZED_ROOT_INDEX = 105;\nuint constant FINALIZED_EPOCH_INDEX = 104;\nuint constant NEXT_SYNC_COMMITTEE_INDEX = 55;\nuint constant NEXT_SYNC_COMMITTEE_PUBKEYS_INDEX = 110;\nuint constant NEXT_SYNC_COMMITTEE_AGGREGATE_PUBKEY_INDEX = 111;\nuint constant CURRENT_SYNC_COMMITTEE_INDEX = 54;\nuint constant CURRENT_SYNC_COMMITTEE_PUBKEYS_INDEX = 108;\nuint constant CURRENT_SYNC_COMMITTEE_AGGREGATE_PUBKEY_INDEX = 109;\nuint constant SLOT_INDEX = 8;\nuint constant STATE_ROOT_INDEX = 11;\n\nstruct ChainRelayUpdate {\n    bytes signature;\n    bool[SYNC_COMMITTEE_SIZE] participants;\n    bytes32 latestBlockRoot;\n    bytes32 signingDomain;\n    bytes32 stateRoot;\n    bytes32[] stateRootBranch; \n    uint64 latestSlot;\n    bytes32[] latestSlotBranch; \n    bytes32 finalizedBlockRoot; \n    bytes32[] finalizingBranch; \n    uint64 finalizedSlot; \n    bytes32[] finalizedSlotBranch; \n    bytes32 finalizedStateRoot;\n    bytes32[] finalizedStateRootBranch;\n    bytes[SYNC_COMMITTEE_SIZE] syncCommittee;\n    bytes syncCommitteeAggregate;\n    bytes32[] syncCommitteeBranch; \n}\n\n/** \n * @title Chain Relay\n * @dev Implements a chain relay/light client for eth2 consensus post-altair (including sync committees)\n */\ncontract Eth2ChainRelay_512_NoStorage {\n    using BytesLib for bytes;\n\n    uint64 private signatureThreshold; // 0 < signatureThreshold <= 512\n    uint64 private trustingPeriod; // validators are trusted for a certain time, ensuring they have not exited the validator set, in unix time\n    bytes private currentValidatorSetAggregate;\n    bytes private nextValidatorSetAggregate;\n    bytes32 private finalizedBlockRoot;\n    bytes32 private finalizedStateRoot; \n    uint64 private latestSlot;\n    uint64 private latestSlotWithValidatorSetChange;\n    uint64 private finalizedSlot;\n    bytes[SYNC_COMMITTEE_SIZE] testSyncCommittee;\n    bytes testSyncCommitteeAggregate;\n    \n    constructor(uint64 _signatureThreshold, \n                uint64 _trustingPeriod, \n                bytes32 _finalizedBlockRoot,\n                bytes32 _finalizedStateRoot,\n                uint64 _finalizedSlot,\n                uint64 _latestSlot,\n                uint64 _latestSlotWithValidatorSetChange) \n    {\n        signatureThreshold=_signatureThreshold;\n        trustingPeriod=_trustingPeriod;\n        finalizedBlockRoot=_finalizedBlockRoot;\n        latestSlot=_latestSlot;\n        latestSlotWithValidatorSetChange=_latestSlotWithValidatorSetChange;\n        finalizedSlot=_finalizedSlot;\n        finalizedStateRoot=_finalizedStateRoot;\n    }\n\n    function getLatestSlotWithValidatorSetChange() public view returns (uint64) {\n        return latestSlotWithValidatorSetChange;\n    }\n    \n    function getFinalizedBlockRoot() public view returns (bytes32) {\n        return finalizedBlockRoot;\n    }\n    \n    function getFinalizedStateRoot() public view returns (bytes32) {\n        return finalizedStateRoot;\n    }\n\n    function testEncoding(bytes32 message, bytes memory signature, bytes[] memory pubkeys) public view returns (bytes memory) {\n        return abi.encode(message, signature, pubkeys);\n    }\n\n    function testJustStoreSyncCommittee(bytes[SYNC_COMMITTEE_SIZE] memory committee, bytes memory aggregate) public {\n        testSyncCommittee = committee;\n        testSyncCommitteeAggregate = aggregate;\n    }\n\n    function testJustDoSyncCommitteeMerkleizationFromMemory(bytes[SYNC_COMMITTEE_SIZE] memory committee, bytes memory aggregate) public returns (bytes32) {\n        return hashTreeRootSyncCommittee(committee, aggregate);\n    }\n\n    function testJustDoSyncCommitteeMerkleizationFromStorage() public returns (bytes32) {\n        return hashTreeRootSyncCommittee(testSyncCommittee, testSyncCommitteeAggregate);\n    }\n\n    function testJustReadSyncCommitteeFromStorage() public returns (bytes[SYNC_COMMITTEE_SIZE] memory) {\n        return testSyncCommittee;\n    }\n\n    function testJustSubmitSyncCommitteeViaMemory(bytes[SYNC_COMMITTEE_SIZE] memory) public returns (bool) {\n        return true;\n    }\n\n    function testJustSubmitSyncCommitteeViaCalldata(bytes[SYNC_COMMITTEE_SIZE] calldata) public returns (bool) {\n        return true;\n    }\n\n    function testDoNothingWithData(ChainRelayUpdate memory _chainRelayUpdate) public returns (bool) {\n        if (_chainRelayUpdate.syncCommittee.length == 512) {\n            return true;\n        } else {\n            return false;\n        }\n    }\n    \n    function submitUpdate(ChainRelayUpdate memory _chainRelayUpdate) public returns (bool) {\n        bytes32 signingRoot = computeSigningRoot(_chainRelayUpdate.latestBlockRoot, _chainRelayUpdate.signingDomain);\n        uint numberOfParticipants = countTrueBools(_chainRelayUpdate.participants);\n        require(\n            numberOfParticipants >= signatureThreshold, \n            \"not enough signature participants\");\n        require(\n            validateMerkleBranch(\n                _chainRelayUpdate.latestBlockRoot, \n                _chainRelayUpdate.stateRoot, \n                STATE_ROOT_INDEX, \n                _chainRelayUpdate.stateRootBranch), \n            \"merkle proof for latest state root not valid\");\n        //require(\n            validateMerkleBranch(\n                _chainRelayUpdate.latestBlockRoot, \n                merklelizeSlot(_chainRelayUpdate.latestSlot), \n                SLOT_INDEX, \n                _chainRelayUpdate.latestSlotBranch)\n                //,\"merkle proof for latest slot not valid\")\n            ;\n        /*require(\n            validateMerkleBranch(\n                _chainRelayUpdate.stateRoot, \n                _chainRelayUpdate.finalizedBlockRoot, \n                FINALIZED_ROOT_INDEX, \n                _chainRelayUpdate.finalizingBranch) ,\"merkle proof for finalized block root not valid\");*/\n        //require(\n            validateMerkleBranch(\n                _chainRelayUpdate.finalizedBlockRoot, \n                merklelizeSlot(_chainRelayUpdate.finalizedSlot), \n                SLOT_INDEX, \n                _chainRelayUpdate.finalizedSlotBranch)\n                //, \"merkle proof for finalized slot not valid\")\n            ;\n        require(\n            validateMerkleBranch(\n                _chainRelayUpdate.finalizedBlockRoot, \n                _chainRelayUpdate.finalizedStateRoot, \n                STATE_ROOT_INDEX, \n                _chainRelayUpdate.finalizedStateRootBranch), \n            \"merkle proof for finalized state root not valid\");\n        uint slot_distance = _chainRelayUpdate.latestSlot - latestSlotWithValidatorSetChange; \n        if ((slot_distance / (SLOTS_PER_EPOCH * EPOCHS_PER_SYNC_COMMITTEE_PERIOD)) == 0) {\n            /*require(*/validateMerkleBranch(\n                finalizedStateRoot, \n                hashTreeRootSyncCommittee(_chainRelayUpdate.syncCommittee, _chainRelayUpdate.syncCommitteeAggregate), \n                CURRENT_SYNC_COMMITTEE_INDEX, \n                _chainRelayUpdate.syncCommitteeBranch)\n                /*, \n            \"merkle proof for current sync committee not valid\")*/;\n           require(\n               fastAggregateVerify(serializeAggregateSignature(\n                   signingRoot, \n                   _chainRelayUpdate.signature, \n                   getActiveValidators(_chainRelayUpdate.syncCommittee, _chainRelayUpdate.participants, numberOfParticipants))), \n               \"signature by current sync committee not valid\");\n        } else if ((slot_distance / (SLOTS_PER_EPOCH * EPOCHS_PER_SYNC_COMMITTEE_PERIOD)) == 1) {\n            /*require(*/validateMerkleBranch(\n                finalizedStateRoot, \n                hashTreeRootSyncCommittee(_chainRelayUpdate.syncCommittee, _chainRelayUpdate.syncCommitteeAggregate), \n                NEXT_SYNC_COMMITTEE_INDEX, \n                _chainRelayUpdate.syncCommitteeBranch)\n                /*, \n            \"merkle proof for next sync committee not valid\")*/;\n            require(\n                fastAggregateVerify(serializeAggregateSignature(\n                    signingRoot, \n                    _chainRelayUpdate.signature, \n                    getActiveValidators(_chainRelayUpdate.syncCommittee, _chainRelayUpdate.participants, numberOfParticipants))), \n                \"signature by next sync committee not valid\");\n            latestSlotWithValidatorSetChange = _chainRelayUpdate.finalizedSlot;\n        } else {\n            revert(\"latest slot does not indicate that current or next sync committee is responsible\");\n        }\n        finalizedBlockRoot = _chainRelayUpdate.finalizedBlockRoot; \n        finalizedStateRoot = _chainRelayUpdate.finalizedStateRoot;\n        latestSlot = _chainRelayUpdate.latestSlot;\n        finalizedSlot = _chainRelayUpdate.finalizedSlot;\n        return true;\n    }\n    \n    function getActiveValidators(bytes[SYNC_COMMITTEE_SIZE] memory _pubkeys, bool[SYNC_COMMITTEE_SIZE] memory _isActive, uint _numberOfActive) public pure returns (bytes[] memory) {\n        bytes[] memory active_validators = new bytes[](_numberOfActive);\n        uint counter = 0;\n        for (uint i = 0; i < SYNC_COMMITTEE_SIZE; i++) {\n            if (_isActive[i]) {\n                active_validators[counter] = _pubkeys[i];\n                counter++;\n            }\n        }\n        return active_validators;\n    }\n    \n    function countTrueBools(bool[SYNC_COMMITTEE_SIZE] memory _bools) public pure returns (uint) {\n        uint counter = 0;\n        for (uint i = 0; i < SYNC_COMMITTEE_SIZE; i++) {\n            if (_bools[i] == true) {\n                counter++;\n            }\n        }\n        return counter;\n    }\n\n    function serializeAggregateSignature(bytes32 _message, bytes memory _signature, bytes[] memory _pubkeys) public pure returns (bytes memory) {\n        bytes2 length = bytes2(uint16(_pubkeys.length));\n        /*bytes32[] memory testARray = new bytes32[](512);\n        bytes[512] memory testArray2;\n        bytes memory test = abi.encodePacked(_message, testARray);\n        bytes memory packed = abi.encode(_message, _signature, _pubkeys);\n        return packed;\n        /*bytes memory serialized = new bytes(0);\n        serialized = serialized.concat(bytes32ToBytes(_message));\n        serialized = serialized.concat(_signature);\n        serialized = serialized.concat(bytes2ToBytes(length));\n        for (uint i = 0; i < _pubkeys.length; i++) {\n            serialized = serialized.concat(_pubkeys[i]);\n        }*/\n        // fallback w/o library\n        bytes memory serialized = new bytes(32+96+2+48*_pubkeys.length);\n        for (uint i = 0; i < 32; i++) {\n            serialized[i] = _message[i];\n        }\n        for (uint i = 32; i < 128; i++) {\n            serialized[i] = _signature[i-32];\n        }\n        for (uint i = 128; i < 130; i++) {\n            serialized[i] = length[i-128];\n        }\n        for (uint i = 0; i < _pubkeys.length; i++) {\n            for (uint j = 0; j < 48; j++) {\n                serialized[32+96+2+i*48+j] = _pubkeys[i][j];\n            }\n        }\n       return serialized;\n    }\n    \n    function fastAggregateVerify(bytes memory _input) public view returns (bool o) {\n        if (MOCK_BLS_PRECOMPILE) {\n            return true;\n        }\n        bool[1] memory outCache;\n        assembly {\n            let p := mload(0x40)\n            let length := mload(_input)\n            if iszero(staticcall(gas(), 0x05, add(_input,32), length, outCache, 32)) { // first 32 yte of _input are length\n                revert(0, 0)\n            }\n        }\n        o = outCache[0];\n    }\n    \n    function slotToUnixTimestamp(uint _slot) public pure returns (uint timestamp) {\n        return _slot * SECONDS_PER_SLOT + FIRST_BEACON_BLOCK_UNIX_TIMESTAMP;\n    }\n    \n    function bytes32ToBytes(bytes32 _input) public pure returns (bytes memory output) {\n        return abi.encodePacked(_input);\n    }\n    \n    function bytes2ToBytes(bytes2 _input) public pure returns (bytes memory output) {\n        return abi.encodePacked(_input);\n    }\n    \n    function concat(bytes32 _left, bytes32 _right) public pure returns (bytes memory) {\n        return bytes.concat(_left, _right);\n        // below is fallback code for older solidity versions\n        /*bytes memory concatenated;\n        for (uint i = 0; i<32; i++) {\n            concatenated[i] = left[i];\n        }\n        for (uint i = 0; i<32; i++) {\n            concatenated[i+32] = right[i];\n        }\n        return concatenated;*/\n    }\n\n    function hashTreeRootPair(bytes32 _left, bytes32 _right) public pure returns (bytes32) {\n        return sha256(concat(_left, _right));\n    }\n    \n    function hashTreeRootBlspubkey (bytes memory _blspubkey) public pure returns (bytes32) {\n        bytes memory blspubkeyMerkleizedLeft = _blspubkey.slice(0, 32);\n        bytes memory blspubkeyMerkleizedRight = _blspubkey.slice(32, 16);\n        blspubkeyMerkleizedRight = blspubkeyMerkleizedRight.concat(bytes(hex\"00000000000000000000000000000000\"));\n        /* fallback w/o library\n        bytes memory blspubkeyMerkleizedLeft = new bytes(32);\n        for (uint i = 0; i<32; i++) {\n            blspubkeyMerkleizedLeft[i] = _blspubkey[i];\n        }\n        bytes memory blspubkeyMerkleizedRight = new bytes(32);\n        for (uint i = 0; i<16; i++) { // rest of blspubkeyMerkleizedRight is initialized zero\n            blspubkeyMerkleizedRight[i] = _blspubkey[i+32];\n        }*/\n        return hashTreeRootPair(bytesToBytes32(blspubkeyMerkleizedLeft), bytesToBytes32(blspubkeyMerkleizedRight));\n    }\n    \n    function computeSigningRoot(bytes32 _blockRoot, bytes32 _signingDomain) public pure returns (bytes32) {\n        return hashTreeRootPair(_blockRoot, _signingDomain);\n    }\n    \n    function bytesToBytes8(bytes memory _input) public pure returns (bytes8 result) {\n        if (_input.length == 0) {\n            return 0x0;\n        }\n        assembly {\n            result := mload(add(_input, 32))\n        }\n    }\n    \n    function bytesToBytes32(bytes memory _input) public pure returns (bytes32 result) {\n        if (_input.length == 0) {\n            return 0x0;\n        }\n        assembly {\n            result := mload(add(_input, 32))\n        }\n    }\n\n    function revertBytes8(bytes8 _input) public pure returns (bytes8) {\n        bytes memory reverted = new bytes(8);\n        for (uint i = 0; i < 8; i++) {\n            reverted[7-i] = _input[i];\n        }\n        return bytesToBytes8(reverted);\n    }\n\n    function merklelizeSlot(uint64 _input) public pure returns (bytes32) {\n        return bytes32(revertBytes8(bytes8(_input)));\n    }\n    \n    function bitLength(uint _input) public pure returns (uint) {\n        uint length = 0;\n        while (_input != 0) \n        {\n            _input >>= 1; \n            length++; \n        }\n        return length;\n    }\n    \n    function nextPowOfTwo(uint _input) public pure returns (uint) {\n        if (_input == 0) {\n            return 1;\n        } else {\n            return 2**(bitLength(_input-1));\n        }\n    }\n    \n    function floorLog2 (uint _input) public pure returns (uint) {\n        require(_input >= 1, \"_input to floorLog2 must be larger or equal than 1\");\n        return bitLength(_input)-1;\n    }\n    \n    function merkleize(bytes32[SYNC_COMMITTEE_SIZE] memory _chunks) public pure returns (bytes32) {\n        uint length_next_pow = nextPowOfTwo(_chunks.length);\n        for (uint i = _chunks.length; i < length_next_pow; i++) {\n           // fill lowest level \n           // TODO not necessary b/c size always 2^n?\n        }\n        for (uint level = 0; level<floorLog2(length_next_pow); level++) {\n            uint step = 2**level;\n            for (uint current_accumulator = 0; current_accumulator < length_next_pow; current_accumulator += step*2) {\n                _chunks[current_accumulator] = hashTreeRootPair(_chunks[current_accumulator], _chunks[current_accumulator+step]);\n            }\n        }\n        return _chunks[0];\n    }\n    \n    function hashTreeRootSyncCommittee(bytes[SYNC_COMMITTEE_SIZE] memory _syncCommittee, bytes memory _syncAggregate) public pure returns (bytes32) {\n        bytes32[SYNC_COMMITTEE_SIZE] memory syncCommitteeHashed;\n        for (uint i = 0; i < SYNC_COMMITTEE_SIZE; i++) {\n            syncCommitteeHashed[i] = hashTreeRootBlspubkey(_syncCommittee[i]);\n        }\n        bytes32 syncCommitteeHashedMerkleized = merkleize(syncCommitteeHashed);\n        bytes32 syncCommitteeRoot = hashTreeRootPair(syncCommitteeHashedMerkleized, hashTreeRootBlspubkey(_syncAggregate));\n        return syncCommitteeRoot;\n    }\n    \n    function getSubtreeIndex(uint _generalizedIndex) public pure returns (uint) {\n        return _generalizedIndex % 2**(floorLog2(_generalizedIndex));\n    }\n    \n    function validateMerkleBranch(bytes32 _root, bytes32 _leaf, uint _generalizedIndex, bytes32[] memory _branch) public pure returns (bool) {\n        uint index = getSubtreeIndex(_generalizedIndex);\n        uint depth = floorLog2(_generalizedIndex);\n        bytes32 value = _leaf;\n        for (uint i = 0; i < depth; i++) {\n            if ((index / (2**i) % 2) == 1) {\n                value = sha256(concat(_branch[i],value));\n            } else {\n                value = sha256(concat(value,_branch[i]));\n            }\n        }\n        return value == _root;\n    }\n    \n}",
  "sourcePath": "/Users/Max/Documents/PoSChainRelay/Eth2ChainRelay/contracts/Eth2ChainRelay_512_NoStorage.sol",
  "compiler": {
    "name": "solc",
    "version": "0.8.6+commit.11564f7e.Emscripten.clang"
  },
  "schemaVersion": "3.4.1",
  "updatedAt": "2021-08-07T09:36:16.418Z",
  "networkType": "ethereum",
  "devdoc": {
    "details": "Implements a chain relay/light client for eth2 consensus post-altair (including sync committees)",
    "kind": "dev",
    "methods": {},
    "title": "Chain Relay",
    "version": 1
  },
  "userdoc": {
    "kind": "user",
    "methods": {},
    "version": 1
  }
}